{
  "_format": "hh-sol-artifact-1",
  "contractName": "FoodToken",
  "sourceName": "contracts/FoodToken.sol",
  "abi": [
    {
      "inputs": [
        {
          "internalType": "address",
          "name": "_colony",
          "type": "address"
        }
      ],
      "stateMutability": "nonpayable",
      "type": "constructor"
    },
    {
      "inputs": [
        {
          "internalType": "address",
          "name": "sender",
          "type": "address"
        },
        {
          "internalType": "uint256",
          "name": "tokenId",
          "type": "uint256"
        },
        {
          "internalType": "address",
          "name": "owner",
          "type": "address"
        }
      ],
      "name": "ERC721IncorrectOwner",
      "type": "error"
    },
    {
      "inputs": [
        {
          "internalType": "address",
          "name": "operator",
          "type": "address"
        },
        {
          "internalType": "uint256",
          "name": "tokenId",
          "type": "uint256"
        }
      ],
      "name": "ERC721InsufficientApproval",
      "type": "error"
    },
    {
      "inputs": [
        {
          "internalType": "address",
          "name": "approver",
          "type": "address"
        }
      ],
      "name": "ERC721InvalidApprover",
      "type": "error"
    },
    {
      "inputs": [
        {
          "internalType": "address",
          "name": "operator",
          "type": "address"
        }
      ],
      "name": "ERC721InvalidOperator",
      "type": "error"
    },
    {
      "inputs": [
        {
          "internalType": "address",
          "name": "owner",
          "type": "address"
        }
      ],
      "name": "ERC721InvalidOwner",
      "type": "error"
    },
    {
      "inputs": [
        {
          "internalType": "address",
          "name": "receiver",
          "type": "address"
        }
      ],
      "name": "ERC721InvalidReceiver",
      "type": "error"
    },
    {
      "inputs": [
        {
          "internalType": "address",
          "name": "sender",
          "type": "address"
        }
      ],
      "name": "ERC721InvalidSender",
      "type": "error"
    },
    {
      "inputs": [
        {
          "internalType": "uint256",
          "name": "tokenId",
          "type": "uint256"
        }
      ],
      "name": "ERC721NonexistentToken",
      "type": "error"
    },
    {
      "anonymous": false,
      "inputs": [
        {
          "indexed": true,
          "internalType": "address",
          "name": "owner",
          "type": "address"
        },
        {
          "indexed": true,
          "internalType": "address",
          "name": "approved",
          "type": "address"
        },
        {
          "indexed": true,
          "internalType": "uint256",
          "name": "tokenId",
          "type": "uint256"
        }
      ],
      "name": "Approval",
      "type": "event"
    },
    {
      "anonymous": false,
      "inputs": [
        {
          "indexed": true,
          "internalType": "address",
          "name": "owner",
          "type": "address"
        },
        {
          "indexed": true,
          "internalType": "address",
          "name": "operator",
          "type": "address"
        },
        {
          "indexed": false,
          "internalType": "bool",
          "name": "approved",
          "type": "bool"
        }
      ],
      "name": "ApprovalForAll",
      "type": "event"
    },
    {
      "anonymous": false,
      "inputs": [
        {
          "indexed": true,
          "internalType": "address",
          "name": "from",
          "type": "address"
        },
        {
          "indexed": true,
          "internalType": "address",
          "name": "to",
          "type": "address"
        },
        {
          "indexed": true,
          "internalType": "uint256",
          "name": "tokenId",
          "type": "uint256"
        }
      ],
      "name": "Transfer",
      "type": "event"
    },
    {
      "inputs": [
        {
          "internalType": "address",
          "name": "to",
          "type": "address"
        },
        {
          "internalType": "uint256",
          "name": "tokenId",
          "type": "uint256"
        }
      ],
      "name": "approve",
      "outputs": [],
      "stateMutability": "nonpayable",
      "type": "function"
    },
    {
      "inputs": [
        {
          "internalType": "address",
          "name": "owner",
          "type": "address"
        }
      ],
      "name": "balanceOf",
      "outputs": [
        {
          "internalType": "uint256",
          "name": "",
          "type": "uint256"
        }
      ],
      "stateMutability": "view",
      "type": "function"
    },
    {
      "inputs": [],
      "name": "colony",
      "outputs": [
        {
          "internalType": "address",
          "name": "",
          "type": "address"
        }
      ],
      "stateMutability": "view",
      "type": "function"
    },
    {
      "inputs": [
        {
          "internalType": "uint256",
          "name": "tokenId",
          "type": "uint256"
        }
      ],
      "name": "getApproved",
      "outputs": [
        {
          "internalType": "address",
          "name": "",
          "type": "address"
        }
      ],
      "stateMutability": "view",
      "type": "function"
    },
    {
      "inputs": [
        {
          "internalType": "address",
          "name": "owner",
          "type": "address"
        },
        {
          "internalType": "address",
          "name": "operator",
          "type": "address"
        }
      ],
      "name": "isApprovedForAll",
      "outputs": [
        {
          "internalType": "bool",
          "name": "",
          "type": "bool"
        }
      ],
      "stateMutability": "view",
      "type": "function"
    },
    {
      "inputs": [
        {
          "internalType": "address",
          "name": "to",
          "type": "address"
        }
      ],
      "name": "mint",
      "outputs": [],
      "stateMutability": "nonpayable",
      "type": "function"
    },
    {
      "inputs": [],
      "name": "name",
      "outputs": [
        {
          "internalType": "string",
          "name": "",
          "type": "string"
        }
      ],
      "stateMutability": "view",
      "type": "function"
    },
    {
      "inputs": [],
      "name": "nextId",
      "outputs": [
        {
          "internalType": "uint256",
          "name": "",
          "type": "uint256"
        }
      ],
      "stateMutability": "view",
      "type": "function"
    },
    {
      "inputs": [
        {
          "internalType": "uint256",
          "name": "tokenId",
          "type": "uint256"
        }
      ],
      "name": "ownerOf",
      "outputs": [
        {
          "internalType": "address",
          "name": "",
          "type": "address"
        }
      ],
      "stateMutability": "view",
      "type": "function"
    },
    {
      "inputs": [
        {
          "internalType": "address",
          "name": "from",
          "type": "address"
        },
        {
          "internalType": "address",
          "name": "to",
          "type": "address"
        },
        {
          "internalType": "uint256",
          "name": "tokenId",
          "type": "uint256"
        }
      ],
      "name": "safeTransferFrom",
      "outputs": [],
      "stateMutability": "nonpayable",
      "type": "function"
    },
    {
      "inputs": [
        {
          "internalType": "address",
          "name": "from",
          "type": "address"
        },
        {
          "internalType": "address",
          "name": "to",
          "type": "address"
        },
        {
          "internalType": "uint256",
          "name": "tokenId",
          "type": "uint256"
        },
        {
          "internalType": "bytes",
          "name": "data",
          "type": "bytes"
        }
      ],
      "name": "safeTransferFrom",
      "outputs": [],
      "stateMutability": "nonpayable",
      "type": "function"
    },
    {
      "inputs": [
        {
          "internalType": "address",
          "name": "operator",
          "type": "address"
        },
        {
          "internalType": "bool",
          "name": "approved",
          "type": "bool"
        }
      ],
      "name": "setApprovalForAll",
      "outputs": [],
      "stateMutability": "nonpayable",
      "type": "function"
    },
    {
      "inputs": [
        {
          "internalType": "bytes4",
          "name": "interfaceId",
          "type": "bytes4"
        }
      ],
      "name": "supportsInterface",
      "outputs": [
        {
          "internalType": "bool",
          "name": "",
          "type": "bool"
        }
      ],
      "stateMutability": "view",
      "type": "function"
    },
    {
      "inputs": [],
      "name": "symbol",
      "outputs": [
        {
          "internalType": "string",
          "name": "",
          "type": "string"
        }
      ],
      "stateMutability": "view",
      "type": "function"
    },
    {
      "inputs": [
        {
          "internalType": "uint256",
          "name": "tokenId",
          "type": "uint256"
        }
      ],
      "name": "tokenURI",
      "outputs": [
        {
          "internalType": "string",
          "name": "",
          "type": "string"
        }
      ],
      "stateMutability": "view",
      "type": "function"
    },
    {
      "inputs": [
        {
          "internalType": "address",
          "name": "from",
          "type": "address"
        },
        {
          "internalType": "address",
          "name": "to",
          "type": "address"
        },
        {
          "internalType": "uint256",
          "name": "tokenId",
          "type": "uint256"
        }
      ],
      "name": "transferFrom",
      "outputs": [],
      "stateMutability": "nonpayable",
      "type": "function"
    }
  ],
  "bytecode": "0x6080346200035f57601f601f196001600160401b03620011d238819003848101841686018381118782101762000349578692829160405283396020958691810103126200035f57516001600160a01b03811693908490036200035f576200006562000364565b92601084526f105b9d195b1b1a59d95b98d9519bdbd960821b868501526200008c62000364565b9060048252631193d3d160e21b8783015284519084821162000349576000918254966001978881811c911680156200033e575b8b8210146200032a57908187849311620002d7575b508a908783116001146200027457859262000268575b5050600019600383901b1c191690871b1782555b8251948511620002545785548681811c9116801562000249575b898210146200023557848111620001ed575b50879385116001146200018857508394959650926200017c575b5050600019600383901b1c191690821b1790555b600780546001600160a01b031916919091179055604051610e4d9081620003858239f35b01519050388062000144565b8493929193169685845280842093905b888210620001d55750508385969710620001bb575b505050811b01905562000158565b015160001960f88460031b161c19169055388080620001ad565b80878596829496860151815501950193019062000198565b8683528883208580880160051c8201928b89106200022b575b0160051c019087905b8281106200021f5750506200012a565b8481550187906200020f565b9250819262000206565b634e487b7160e01b83526022600452602483fd5b90607f169062000118565b634e487b7160e01b82526041600452602482fd5b015190503880620000ea565b90848a9416918680528c8720928d88905b828210620002bf5750508411620002a5575b505050811b018255620000fe565b015160001960f88460031b161c1916905538808062000297565b8385015186558d979095019493840193018e62000285565b9091508480528a85208780850160051c8201928d861062000320575b918b91869594930160051c01915b82811062000311575050620000d4565b8781558594508b910162000301565b92508192620002f3565b634e487b7160e01b85526022600452602485fd5b90607f1690620000bf565b634e487b7160e01b600052604160045260246000fd5b600080fd5b60408051919082016001600160401b03811183821017620003495760405256fe608060408181526004918236101561001657600080fd5b600092833560e01c91826301ffc9a71461096e5750816306fdde03146108a1578163081812fc14610865578163095ea7b31461078857816323b872dd14610770578163349ff7701461074757816342842e0e1461071857816361b8ce8c146106f95781636352211e146106c85781636a6278421461042557816370a08231146103d057816395d89b41146102b3578163a22cb46514610211578163b88d4fde14610177578163c87b56dd14610125575063e985e9c5146100d557600080fd5b3461012157806003193601126101215760ff816020936100f3610a19565b6100fb610a34565b6001600160a01b0391821683526005875283832091168252855220549151911615158152f35b5080fd5b838334610121576020366003190112610121576101456101739335610c8e565b5081815161015281610a7f565b5280519161015f83610a7f565b8252519182916020835260208301906109d9565b0390f35b9190503461020d57608036600319011261020d57610193610a19565b61019b610a34565b60443591856064359567ffffffffffffffff8711610121573660238801121561012157860135956101d76101ce88610ad3565b96519687610ab1565b8686523660248883010111610121578661020a976024602093018389013786010152610204838383610aef565b33610cc9565b80f35b8280fd5b9190503461020d578060031936011261020d5761022c610a19565b90602435918215158093036102af576001600160a01b031692831561029a5750338452600560205280842083855260205280842060ff1981541660ff8416179055519081527f17307eab39ab6107e8899845ad3d59bd9653f200f220920489ca2b5937696c3160203392a380f35b836024925191630b61174360e31b8352820152fd5b8480fd5b8284346103cd57806003193601126103cd5781519181600192600154938460011c91600186169586156103c3575b60209687851081146103b0578899509688969785829a52918260001461038957505060011461032d575b505050610173929161031e910385610ab1565b519282849384528301906109d9565b9190869350600183527fb10e2d527612073b26eecdfd717e6a320cf44b4afac2b0732d9fcbe2b7fa0cf65b828410610371575050508201018161031e61017361030b565b8054848a018601528895508794909301928101610358565b60ff19168782015293151560051b8601909301935084925061031e9150610173905061030b565b634e487b7160e01b835260228a52602483fd5b92607f16926102e1565b80fd5b8284346103cd5760203660031901126103cd576001600160a01b036103f3610a19565b169283156104105750806020938392526003845220549051908152f35b91516322718ad960e21b815291820152602490fd5b9190503461020d57602090816003193601126106c457610443610a19565b6007546001600160a01b039391908416330361068a576006549060001990818314610677576001830160065584519161047b83610a7f565b88835286821696871561066057878591828c5260028852888c205416801515938461062e575b50818c5260038852888c2080546001019055828c5260028852888c2080546001600160a01b031916831790557fddf252ad1be2c89b69c2b068fc378daa952ba7f163c4a11628f55a4df523b3ef8c80a4610617573b6104fe578680f35b8261053691855180938192630a85bd0160e11b96878452338c8501528c602485015260448401526080606484015260848301906109d9565b03818a895af18791816105d3575b506105a05750503d15610597573d61055b81610ad3565b9061056884519283610ab1565b81528095823d92013e5b8451948561059157505051633250574960e11b81529182015260249150fd5b85925001fd5b60609450610572565b6001600160e01b0319160390506105be575050503880808080808680f35b51633250574960e11b81529182015260249150fd5b9091508381813d8311610610575b6105eb8183610ab1565b8101031261060c57516001600160e01b03198116810361060c579038610544565b8780fd5b503d6105e1565b84516339e3563760e11b8152808801899052602490fd5b600084815260046020526040902080546001600160a01b0319169055818d5260038952898d20908154019055386104a1565b8651633250574960e11b8152808a018b9052602490fd5b634e487b7160e01b885260118752602488fd5b825162461bcd60e51b8152808601839052601460248201527313db9b1e4818dbdb1bdb9e481b585e481b5a5b9d60621b6044820152606490fd5b8380fd5b8284346103cd5760203660031901126103cd57506106e860209235610c8e565b90516001600160a01b039091168152f35b5050346101215781600319360112610121576020906006549051908152f35b5050346101215761020a9061072c36610a4a565b9192519261073984610a7f565b858452610204838383610aef565b50503461012157816003193601126101215760075490516001600160a01b039091168152602090f35b83346103cd5761020a61078236610a4a565b91610aef565b9190503461020d578060031936011261020d576107a3610a19565b916024356107b081610c8e565b33151580610852575b80610829575b610813576001600160a01b039485169482918691167f8c5be1e5ebec7d5bd14f71427d1e84f3dd0314c0f7b2291e5b200ac8c7c3b9258880a48452602052822080546001600160a01b031916909117905580f35b835163a9fbf51f60e01b81523381850152602490fd5b506001600160a01b03811686526005602090815284872033885290528386205460ff16156107bf565b506001600160a01b0381163314156107b9565b90503461020d57602036600319011261020d5791826020933561088781610c8e565b50825283528190205490516001600160a01b039091168152f35b8284346103cd57806003193601126103cd578151918182549260018460011c9160018616958615610964575b60209687851081146103b0578899509688969785829a52918260001461038957505060011461090957505050610173929161031e910385610ab1565b91908693508280527f290decd9548b62a8d60345a988386fc84ba6bc95484008f6362f93160ef3e5635b82841061094c575050508201018161031e61017361030b565b8054848a018601528895508794909301928101610933565b92607f16926108cd565b84913461020d57602036600319011261020d573563ffffffff60e01b811680910361020d57602092506380ac58cd60e01b81149081156109c8575b81156109b7575b5015158152f35b6301ffc9a760e01b149050836109b0565b635b5e139f60e01b811491506109a9565b919082519283825260005b848110610a05575050826000602080949584010152601f8019910116010190565b6020818301810151848301820152016109e4565b600435906001600160a01b0382168203610a2f57565b600080fd5b602435906001600160a01b0382168203610a2f57565b6060906003190112610a2f576001600160a01b03906004358281168103610a2f57916024359081168103610a2f579060443590565b6020810190811067ffffffffffffffff821117610a9b57604052565b634e487b7160e01b600052604160045260246000fd5b90601f8019910116810190811067ffffffffffffffff821117610a9b57604052565b67ffffffffffffffff8111610a9b57601f01601f191660200190565b6001600160a01b039182169290918315610c7557600092828452826020956002875260409684888820541696879133151580610bdf575b509060027fddf252ad1be2c89b69c2b068fc378daa952ba7f163c4a11628f55a4df523b3ef9284610bac575b858352600381528b8320805460010190558683525289812080546001600160a01b0319168517905580a41692838303610b8b5750505050565b6064945051926364283d7b60e01b8452600484015260248301526044820152fd5b600087815260046020526040902080546001600160a01b0319169055848352600381528b83208054600019019055610b52565b91939450915080610c34575b15610bfb57859291879138610b26565b878688610c18576024915190637e27328960e01b82526004820152fd5b604491519063177e802f60e01b82523360048301526024820152fd5b503387148015610c59575b80610beb5750858252600481523385898420541614610beb565b5086825260058152878220338352815260ff8883205416610c3f565b604051633250574960e11b815260006004820152602490fd5b6000818152600260205260409020546001600160a01b0316908115610cb1575090565b60249060405190637e27328960e01b82526004820152fd5b90939192833b610cdb575b5050505050565b604051630a85bd0160e11b8082526001600160a01b039384166004830152958316602482015260448101919091526080606482015294921692602092918590610d289060848301906109d9565b039483816000978189895af1869181610dd3575b50610d9d575050503d600014610d94573d610d5681610ad3565b90610d646040519283610ab1565b81528093823d92013e5b82519283610d8f57604051633250574960e11b815260048101849052602490fd5b019050fd5b60609250610d6e565b919450915063ffffffff60e01b1603610dbb57503880808080610cd4565b60249060405190633250574960e11b82526004820152fd5b9091508481813d8311610e10575b610deb8183610ab1565b81010312610e0c57516001600160e01b031981168103610e0c579038610d3c565b8680fd5b503d610de156fea2646970667358221220030bb0ab0cebcac86070c08722d292e566fdb848a8a44344a4059c57cb7e7cbb64736f6c63430008180033",
  "linkReferences": {},
  "deployedLinkReferences": {}
}