{
  "_format": "hh-sol-artifact-1",
  "contractName": "FoodToken",
  "sourceName": "contracts/FoodToken.sol",
  "abi": [
    {
      "inputs": [
        {
          "internalType": "address",
          "name": "_colony",
          "type": "address"
        }
      ],
      "stateMutability": "nonpayable",
      "type": "constructor"
    },
    {
      "inputs": [
        {
          "internalType": "address",
          "name": "sender",
          "type": "address"
        },
        {
          "internalType": "uint256",
          "name": "tokenId",
          "type": "uint256"
        },
        {
          "internalType": "address",
          "name": "owner",
          "type": "address"
        }
      ],
      "name": "ERC721IncorrectOwner",
      "type": "error"
    },
    {
      "inputs": [
        {
          "internalType": "address",
          "name": "operator",
          "type": "address"
        },
        {
          "internalType": "uint256",
          "name": "tokenId",
          "type": "uint256"
        }
      ],
      "name": "ERC721InsufficientApproval",
      "type": "error"
    },
    {
      "inputs": [
        {
          "internalType": "address",
          "name": "approver",
          "type": "address"
        }
      ],
      "name": "ERC721InvalidApprover",
      "type": "error"
    },
    {
      "inputs": [
        {
          "internalType": "address",
          "name": "operator",
          "type": "address"
        }
      ],
      "name": "ERC721InvalidOperator",
      "type": "error"
    },
    {
      "inputs": [
        {
          "internalType": "address",
          "name": "owner",
          "type": "address"
        }
      ],
      "name": "ERC721InvalidOwner",
      "type": "error"
    },
    {
      "inputs": [
        {
          "internalType": "address",
          "name": "receiver",
          "type": "address"
        }
      ],
      "name": "ERC721InvalidReceiver",
      "type": "error"
    },
    {
      "inputs": [
        {
          "internalType": "address",
          "name": "sender",
          "type": "address"
        }
      ],
      "name": "ERC721InvalidSender",
      "type": "error"
    },
    {
      "inputs": [
        {
          "internalType": "uint256",
          "name": "tokenId",
          "type": "uint256"
        }
      ],
      "name": "ERC721NonexistentToken",
      "type": "error"
    },
    {
      "anonymous": false,
      "inputs": [
        {
          "indexed": true,
          "internalType": "address",
          "name": "owner",
          "type": "address"
        },
        {
          "indexed": true,
          "internalType": "address",
          "name": "approved",
          "type": "address"
        },
        {
          "indexed": true,
          "internalType": "uint256",
          "name": "tokenId",
          "type": "uint256"
        }
      ],
      "name": "Approval",
      "type": "event"
    },
    {
      "anonymous": false,
      "inputs": [
        {
          "indexed": true,
          "internalType": "address",
          "name": "owner",
          "type": "address"
        },
        {
          "indexed": true,
          "internalType": "address",
          "name": "operator",
          "type": "address"
        },
        {
          "indexed": false,
          "internalType": "bool",
          "name": "approved",
          "type": "bool"
        }
      ],
      "name": "ApprovalForAll",
      "type": "event"
    },
    {
      "anonymous": false,
      "inputs": [
        {
          "indexed": true,
          "internalType": "address",
          "name": "from",
          "type": "address"
        },
        {
          "indexed": true,
          "internalType": "address",
          "name": "to",
          "type": "address"
        },
        {
          "indexed": true,
          "internalType": "uint256",
          "name": "tokenId",
          "type": "uint256"
        }
      ],
      "name": "Transfer",
      "type": "event"
    },
    {
      "inputs": [
        {
          "internalType": "address",
          "name": "to",
          "type": "address"
        },
        {
          "internalType": "uint256",
          "name": "tokenId",
          "type": "uint256"
        }
      ],
      "name": "approve",
      "outputs": [],
      "stateMutability": "nonpayable",
      "type": "function"
    },
    {
      "inputs": [
        {
          "internalType": "address",
          "name": "owner",
          "type": "address"
        }
      ],
      "name": "balanceOf",
      "outputs": [
        {
          "internalType": "uint256",
          "name": "",
          "type": "uint256"
        }
      ],
      "stateMutability": "view",
      "type": "function"
    },
    {
      "inputs": [],
      "name": "colony",
      "outputs": [
        {
          "internalType": "address",
          "name": "",
          "type": "address"
        }
      ],
      "stateMutability": "view",
      "type": "function"
    },
    {
      "inputs": [
        {
          "internalType": "uint256",
          "name": "tokenId",
          "type": "uint256"
        }
      ],
      "name": "getApproved",
      "outputs": [
        {
          "internalType": "address",
          "name": "",
          "type": "address"
        }
      ],
      "stateMutability": "view",
      "type": "function"
    },
    {
      "inputs": [
        {
          "internalType": "address",
          "name": "owner",
          "type": "address"
        },
        {
          "internalType": "address",
          "name": "operator",
          "type": "address"
        }
      ],
      "name": "isApprovedForAll",
      "outputs": [
        {
          "internalType": "bool",
          "name": "",
          "type": "bool"
        }
      ],
      "stateMutability": "view",
      "type": "function"
    },
    {
      "inputs": [
        {
          "internalType": "address",
          "name": "to",
          "type": "address"
        }
      ],
      "name": "mint",
      "outputs": [],
      "stateMutability": "nonpayable",
      "type": "function"
    },
    {
      "inputs": [],
      "name": "name",
      "outputs": [
        {
          "internalType": "string",
          "name": "",
          "type": "string"
        }
      ],
      "stateMutability": "view",
      "type": "function"
    },
    {
      "inputs": [],
      "name": "nextId",
      "outputs": [
        {
          "internalType": "uint256",
          "name": "",
          "type": "uint256"
        }
      ],
      "stateMutability": "view",
      "type": "function"
    },
    {
      "inputs": [
        {
          "internalType": "uint256",
          "name": "tokenId",
          "type": "uint256"
        }
      ],
      "name": "ownerOf",
      "outputs": [
        {
          "internalType": "address",
          "name": "",
          "type": "address"
        }
      ],
      "stateMutability": "view",
      "type": "function"
    },
    {
      "inputs": [
        {
          "internalType": "address",
          "name": "from",
          "type": "address"
        },
        {
          "internalType": "address",
          "name": "to",
          "type": "address"
        },
        {
          "internalType": "uint256",
          "name": "tokenId",
          "type": "uint256"
        }
      ],
      "name": "safeTransferFrom",
      "outputs": [],
      "stateMutability": "nonpayable",
      "type": "function"
    },
    {
      "inputs": [
        {
          "internalType": "address",
          "name": "from",
          "type": "address"
        },
        {
          "internalType": "address",
          "name": "to",
          "type": "address"
        },
        {
          "internalType": "uint256",
          "name": "tokenId",
          "type": "uint256"
        },
        {
          "internalType": "bytes",
          "name": "data",
          "type": "bytes"
        }
      ],
      "name": "safeTransferFrom",
      "outputs": [],
      "stateMutability": "nonpayable",
      "type": "function"
    },
    {
      "inputs": [
        {
          "internalType": "address",
          "name": "operator",
          "type": "address"
        },
        {
          "internalType": "bool",
          "name": "approved",
          "type": "bool"
        }
      ],
      "name": "setApprovalForAll",
      "outputs": [],
      "stateMutability": "nonpayable",
      "type": "function"
    },
    {
      "inputs": [
        {
          "internalType": "bytes4",
          "name": "interfaceId",
          "type": "bytes4"
        }
      ],
      "name": "supportsInterface",
      "outputs": [
        {
          "internalType": "bool",
          "name": "",
          "type": "bool"
        }
      ],
      "stateMutability": "view",
      "type": "function"
    },
    {
      "inputs": [],
      "name": "symbol",
      "outputs": [
        {
          "internalType": "string",
          "name": "",
          "type": "string"
        }
      ],
      "stateMutability": "view",
      "type": "function"
    },
    {
      "inputs": [
        {
          "internalType": "uint256",
          "name": "tokenId",
          "type": "uint256"
        }
      ],
      "name": "tokenURI",
      "outputs": [
        {
          "internalType": "string",
          "name": "",
          "type": "string"
        }
      ],
      "stateMutability": "view",
      "type": "function"
    },
    {
      "inputs": [
        {
          "internalType": "address",
          "name": "from",
          "type": "address"
        },
        {
          "internalType": "address",
          "name": "to",
          "type": "address"
        },
        {
          "internalType": "uint256",
          "name": "tokenId",
          "type": "uint256"
        }
      ],
      "name": "transferFrom",
      "outputs": [],
      "stateMutability": "nonpayable",
      "type": "function"
    }
  ],
  "bytecode": "0x60806040523480156200001157600080fd5b50604051620025223803806200252283398181016040528101906200003791906200017b565b6040518060400160405280601081526020017f416e74656c6c6967656e6365466f6f64000000000000000000000000000000008152506040518060400160405280600481526020017f464f4f44000000000000000000000000000000000000000000000000000000008152508160009081620000b4919062000427565b508060019081620000c6919062000427565b50505080600760006101000a81548173ffffffffffffffffffffffffffffffffffffffff021916908373ffffffffffffffffffffffffffffffffffffffff160217905550506200050e565b600080fd5b600073ffffffffffffffffffffffffffffffffffffffff82169050919050565b6000620001438262000116565b9050919050565b620001558162000136565b81146200016157600080fd5b50565b60008151905062000175816200014a565b92915050565b60006020828403121562000194576200019362000111565b5b6000620001a48482850162000164565b91505092915050565b600081519050919050565b7f4e487b7100000000000000000000000000000000000000000000000000000000600052604160045260246000fd5b7f4e487b7100000000000000000000000000000000000000000000000000000000600052602260045260246000fd5b600060028204905060018216806200022f57607f821691505b602082108103620002455762000244620001e7565b5b50919050565b60008190508160005260206000209050919050565b60006020601f8301049050919050565b600082821b905092915050565b600060088302620002af7fffffffffffffffffffffffffffffffffffffffffffffffffffffffffffffffff8262000270565b620002bb868362000270565b95508019841693508086168417925050509392505050565b6000819050919050565b6000819050919050565b60006200030862000302620002fc84620002d3565b620002dd565b620002d3565b9050919050565b6000819050919050565b6200032483620002e7565b6200033c62000333826200030f565b8484546200027d565b825550505050565b600090565b6200035362000344565b6200036081848462000319565b505050565b5b8181101562000388576200037c60008262000349565b60018101905062000366565b5050565b601f821115620003d757620003a1816200024b565b620003ac8462000260565b81016020851015620003bc578190505b620003d4620003cb8562000260565b83018262000365565b50505b505050565b600082821c905092915050565b6000620003fc60001984600802620003dc565b1980831691505092915050565b6000620004178383620003e9565b9150826002028217905092915050565b6200043282620001ad565b67ffffffffffffffff8111156200044e576200044d620001b8565b5b6200045a825462000216565b620004678282856200038c565b600060209050601f8311600181146200049f57600084156200048a578287015190505b62000496858262000409565b86555062000506565b601f198416620004af866200024b565b60005b82811015620004d957848901518255600182019150602085019450602081019050620004b2565b86831015620004f95784890151620004f5601f891682620003e9565b8355505b6001600288020188555050505b505050505050565b612004806200051e6000396000f3fe608060405234801561001057600080fd5b50600436106101005760003560e01c80636352211e11610097578063a22cb46511610066578063a22cb465146102ad578063b88d4fde146102c9578063c87b56dd146102e5578063e985e9c51461031557610100565b80636352211e146102135780636a6278421461024357806370a082311461025f57806395d89b411461028f57610100565b806323b872dd116100d357806323b872dd1461019f578063349ff770146101bb57806342842e0e146101d957806361b8ce8c146101f557610100565b806301ffc9a71461010557806306fdde0314610135578063081812fc14610153578063095ea7b314610183575b600080fd5b61011f600480360381019061011a919061176b565b610345565b60405161012c91906117b3565b60405180910390f35b61013d610427565b60405161014a919061185e565b60405180910390f35b61016d600480360381019061016891906118b6565b6104b9565b60405161017a9190611924565b60405180910390f35b61019d6004803603810190610198919061196b565b6104d5565b005b6101b960048036038101906101b491906119ab565b6104eb565b005b6101c36105ed565b6040516101d09190611924565b60405180910390f35b6101f360048036038101906101ee91906119ab565b610613565b005b6101fd610633565b60405161020a9190611a0d565b60405180910390f35b61022d600480360381019061022891906118b6565b610639565b60405161023a9190611924565b60405180910390f35b61025d60048036038101906102589190611a28565b61064b565b005b61027960048036038101906102749190611a28565b6106fe565b6040516102869190611a0d565b60405180910390f35b6102976107b8565b6040516102a4919061185e565b60405180910390f35b6102c760048036038101906102c29190611a81565b61084a565b005b6102e360048036038101906102de9190611bf6565b610860565b005b6102ff60048036038101906102fa91906118b6565b610885565b60405161030c919061185e565b60405180910390f35b61032f600480360381019061032a9190611c79565b6108ee565b60405161033c91906117b3565b60405180910390f35b60007f80ac58cd000000000000000000000000000000000000000000000000000000007bffffffffffffffffffffffffffffffffffffffffffffffffffffffff1916827bffffffffffffffffffffffffffffffffffffffffffffffffffffffff1916148061041057507f5b5e139f000000000000000000000000000000000000000000000000000000007bffffffffffffffffffffffffffffffffffffffffffffffffffffffff1916827bffffffffffffffffffffffffffffffffffffffffffffffffffffffff1916145b80610420575061041f82610982565b5b9050919050565b60606000805461043690611ce8565b80601f016020809104026020016040519081016040528092919081815260200182805461046290611ce8565b80156104af5780601f10610484576101008083540402835291602001916104af565b820191906000526020600020905b81548152906001019060200180831161049257829003601f168201915b5050505050905090565b60006104c4826109ec565b506104ce82610a74565b9050919050565b6104e782826104e2610ab1565b610ab9565b5050565b600073ffffffffffffffffffffffffffffffffffffffff168273ffffffffffffffffffffffffffffffffffffffff160361055d5760006040517f64a0ae920000000000000000000000000000000000000000000000000000000081526004016105549190611924565b60405180910390fd5b6000610571838361056c610ab1565b610acb565b90508373ffffffffffffffffffffffffffffffffffffffff168173ffffffffffffffffffffffffffffffffffffffff16146105e7578382826040517f64283d7b0000000000000000000000000000000000000000000000000000000081526004016105de93929190611d19565b60405180910390fd5b50505050565b600760009054906101000a900473ffffffffffffffffffffffffffffffffffffffff1681565b61062e83838360405180602001604052806000815250610860565b505050565b60065481565b6000610644826109ec565b9050919050565b600760009054906101000a900473ffffffffffffffffffffffffffffffffffffffff1673ffffffffffffffffffffffffffffffffffffffff163373ffffffffffffffffffffffffffffffffffffffff16146106db576040517f08c379a00000000000000000000000000000000000000000000000000000000081526004016106d290611d9c565b60405180910390fd5b6106fb81600660008154809291906106f290611deb565b91905055610ce5565b50565b60008073ffffffffffffffffffffffffffffffffffffffff168273ffffffffffffffffffffffffffffffffffffffff16036107715760006040517f89c62b640000000000000000000000000000000000000000000000000000000081526004016107689190611924565b60405180910390fd5b600360008373ffffffffffffffffffffffffffffffffffffffff1673ffffffffffffffffffffffffffffffffffffffff168152602001908152602001600020549050919050565b6060600180546107c790611ce8565b80601f01602080910402602001604051908101604052809291908181526020018280546107f390611ce8565b80156108405780601f1061081557610100808354040283529160200191610840565b820191906000526020600020905b81548152906001019060200180831161082357829003601f168201915b5050505050905090565b61085c610855610ab1565b8383610d03565b5050565b61086b8484846104eb565b61087f610876610ab1565b85858585610e72565b50505050565b6060610890826109ec565b50600061089b611023565b905060008151116108bb57604051806020016040528060008152506108e6565b806108c58461103a565b6040516020016108d6929190611e6f565b6040516020818303038152906040525b915050919050565b6000600560008473ffffffffffffffffffffffffffffffffffffffff1673ffffffffffffffffffffffffffffffffffffffff16815260200190815260200160002060008373ffffffffffffffffffffffffffffffffffffffff1673ffffffffffffffffffffffffffffffffffffffff16815260200190815260200160002060009054906101000a900460ff16905092915050565b60007f01ffc9a7000000000000000000000000000000000000000000000000000000007bffffffffffffffffffffffffffffffffffffffffffffffffffffffff1916827bffffffffffffffffffffffffffffffffffffffffffffffffffffffff1916149050919050565b6000806109f883611108565b9050600073ffffffffffffffffffffffffffffffffffffffff168173ffffffffffffffffffffffffffffffffffffffff1603610a6b57826040517f7e273289000000000000000000000000000000000000000000000000000000008152600401610a629190611a0d565b60405180910390fd5b80915050919050565b60006004600083815260200190815260200160002060009054906101000a900473ffffffffffffffffffffffffffffffffffffffff169050919050565b600033905090565b610ac68383836001611145565b505050565b600080610ad784611108565b9050600073ffffffffffffffffffffffffffffffffffffffff168373ffffffffffffffffffffffffffffffffffffffff1614610b1957610b1881848661130a565b5b600073ffffffffffffffffffffffffffffffffffffffff168173ffffffffffffffffffffffffffffffffffffffff1614610baa57610b5b600085600080611145565b6001600360008373ffffffffffffffffffffffffffffffffffffffff1673ffffffffffffffffffffffffffffffffffffffff168152602001908152602001600020600082825403925050819055505b600073ffffffffffffffffffffffffffffffffffffffff168573ffffffffffffffffffffffffffffffffffffffff1614610c2d576001600360008773ffffffffffffffffffffffffffffffffffffffff1673ffffffffffffffffffffffffffffffffffffffff168152602001908152602001600020600082825401925050819055505b846002600086815260200190815260200160002060006101000a81548173ffffffffffffffffffffffffffffffffffffffff021916908373ffffffffffffffffffffffffffffffffffffffff160217905550838573ffffffffffffffffffffffffffffffffffffffff168273ffffffffffffffffffffffffffffffffffffffff167fddf252ad1be2c89b69c2b068fc378daa952ba7f163c4a11628f55a4df523b3ef60405160405180910390a4809150509392505050565b610cff8282604051806020016040528060008152506113ce565b5050565b600073ffffffffffffffffffffffffffffffffffffffff168273ffffffffffffffffffffffffffffffffffffffff1603610d7457816040517f5b08ba18000000000000000000000000000000000000000000000000000000008152600401610d6b9190611924565b60405180910390fd5b80600560008573ffffffffffffffffffffffffffffffffffffffff1673ffffffffffffffffffffffffffffffffffffffff16815260200190815260200160002060008473ffffffffffffffffffffffffffffffffffffffff1673ffffffffffffffffffffffffffffffffffffffff16815260200190815260200160002060006101000a81548160ff0219169083151502179055508173ffffffffffffffffffffffffffffffffffffffff168373ffffffffffffffffffffffffffffffffffffffff167f17307eab39ab6107e8899845ad3d59bd9653f200f220920489ca2b5937696c3183604051610e6591906117b3565b60405180910390a3505050565b60008373ffffffffffffffffffffffffffffffffffffffff163b111561101c578273ffffffffffffffffffffffffffffffffffffffff1663150b7a02868685856040518563ffffffff1660e01b8152600401610ed19493929190611ee8565b6020604051808303816000875af1925050508015610f0d57506040513d601f19601f82011682018060405250810190610f0a9190611f49565b60015b610f91573d8060008114610f3d576040519150601f19603f3d011682016040523d82523d6000602084013e610f42565b606091505b506000815103610f8957836040517f64a0ae92000000000000000000000000000000000000000000000000000000008152600401610f809190611924565b60405180910390fd5b805160208201fd5b63150b7a0260e01b7bffffffffffffffffffffffffffffffffffffffffffffffffffffffff1916817bffffffffffffffffffffffffffffffffffffffffffffffffffffffff19161461101a57836040517f64a0ae920000000000000000000000000000000000000000000000000000000081526004016110119190611924565b60405180910390fd5b505b5050505050565b606060405180602001604052806000815250905090565b606060006001611049846113f2565b01905060008167ffffffffffffffff81111561106857611067611acb565b5b6040519080825280601f01601f19166020018201604052801561109a5781602001600182028036833780820191505090505b509050600082602083010190505b6001156110fd578080600190039150507f3031323334353637383961626364656600000000000000000000000000000000600a86061a8153600a85816110f1576110f0611f76565b5b049450600085036110a8575b819350505050919050565b60006002600083815260200190815260200160002060009054906101000a900473ffffffffffffffffffffffffffffffffffffffff169050919050565b808061117e5750600073ffffffffffffffffffffffffffffffffffffffff168273ffffffffffffffffffffffffffffffffffffffff1614155b156112b257600061118e846109ec565b9050600073ffffffffffffffffffffffffffffffffffffffff168373ffffffffffffffffffffffffffffffffffffffff16141580156111f957508273ffffffffffffffffffffffffffffffffffffffff168173ffffffffffffffffffffffffffffffffffffffff1614155b801561120c575061120a81846108ee565b155b1561124e57826040517fa9fbf51f0000000000000000000000000000000000000000000000000000000081526004016112459190611924565b60405180910390fd5b81156112b057838573ffffffffffffffffffffffffffffffffffffffff168273ffffffffffffffffffffffffffffffffffffffff167f8c5be1e5ebec7d5bd14f71427d1e84f3dd0314c0f7b2291e5b200ac8c7c3b92560405160405180910390a45b505b836004600085815260200190815260200160002060006101000a81548173ffffffffffffffffffffffffffffffffffffffff021916908373ffffffffffffffffffffffffffffffffffffffff16021790555050505050565b611315838383611545565b6113c957600073ffffffffffffffffffffffffffffffffffffffff168373ffffffffffffffffffffffffffffffffffffffff160361138a57806040517f7e2732890000000000000000000000000000000000000000000000000000000081526004016113819190611a0d565b60405180910390fd5b81816040517f177e802f0000000000000000000000000000000000000000000000000000000081526004016113c0929190611fa5565b60405180910390fd5b505050565b6113d88383611606565b6113ed6113e3610ab1565b6000858585610e72565b505050565b600080600090507a184f03e93ff9f4daa797ed6e38ed64bf6a1f0100000000000000008310611450577a184f03e93ff9f4daa797ed6e38ed64bf6a1f010000000000000000838161144657611445611f76565b5b0492506040810190505b6d04ee2d6d415b85acef8100000000831061148d576d04ee2d6d415b85acef8100000000838161148357611482611f76565b5b0492506020810190505b662386f26fc1000083106114bc57662386f26fc1000083816114b2576114b1611f76565b5b0492506010810190505b6305f5e10083106114e5576305f5e10083816114db576114da611f76565b5b0492506008810190505b612710831061150a576127108381611500576114ff611f76565b5b0492506004810190505b6064831061152d576064838161152357611522611f76565b5b0492506002810190505b600a831061153c576001810190505b80915050919050565b60008073ffffffffffffffffffffffffffffffffffffffff168373ffffffffffffffffffffffffffffffffffffffff16141580156115fd57508273ffffffffffffffffffffffffffffffffffffffff168473ffffffffffffffffffffffffffffffffffffffff1614806115be57506115bd84846108ee565b5b806115fc57508273ffffffffffffffffffffffffffffffffffffffff166115e483610a74565b73ffffffffffffffffffffffffffffffffffffffff16145b5b90509392505050565b600073ffffffffffffffffffffffffffffffffffffffff168273ffffffffffffffffffffffffffffffffffffffff16036116785760006040517f64a0ae9200000000000000000000000000000000000000000000000000000000815260040161166f9190611924565b60405180910390fd5b600061168683836000610acb565b9050600073ffffffffffffffffffffffffffffffffffffffff168173ffffffffffffffffffffffffffffffffffffffff16146116fa5760006040517f73c6ac6e0000000000000000000000000000000000000000000000000000000081526004016116f19190611924565b60405180910390fd5b505050565b6000604051905090565b600080fd5b600080fd5b60007fffffffff0000000000000000000000000000000000000000000000000000000082169050919050565b61174881611713565b811461175357600080fd5b50565b6000813590506117658161173f565b92915050565b60006020828403121561178157611780611709565b5b600061178f84828501611756565b91505092915050565b60008115159050919050565b6117ad81611798565b82525050565b60006020820190506117c860008301846117a4565b92915050565b600081519050919050565b600082825260208201905092915050565b60005b838110156118085780820151818401526020810190506117ed565b60008484015250505050565b6000601f19601f8301169050919050565b6000611830826117ce565b61183a81856117d9565b935061184a8185602086016117ea565b61185381611814565b840191505092915050565b600060208201905081810360008301526118788184611825565b905092915050565b6000819050919050565b61189381611880565b811461189e57600080fd5b50565b6000813590506118b08161188a565b92915050565b6000602082840312156118cc576118cb611709565b5b60006118da848285016118a1565b91505092915050565b600073ffffffffffffffffffffffffffffffffffffffff82169050919050565b600061190e826118e3565b9050919050565b61191e81611903565b82525050565b60006020820190506119396000830184611915565b92915050565b61194881611903565b811461195357600080fd5b50565b6000813590506119658161193f565b92915050565b6000806040838503121561198257611981611709565b5b600061199085828601611956565b92505060206119a1858286016118a1565b9150509250929050565b6000806000606084860312156119c4576119c3611709565b5b60006119d286828701611956565b93505060206119e386828701611956565b92505060406119f4868287016118a1565b9150509250925092565b611a0781611880565b82525050565b6000602082019050611a2260008301846119fe565b92915050565b600060208284031215611a3e57611a3d611709565b5b6000611a4c84828501611956565b91505092915050565b611a5e81611798565b8114611a6957600080fd5b50565b600081359050611a7b81611a55565b92915050565b60008060408385031215611a9857611a97611709565b5b6000611aa685828601611956565b9250506020611ab785828601611a6c565b9150509250929050565b600080fd5b600080fd5b7f4e487b7100000000000000000000000000000000000000000000000000000000600052604160045260246000fd5b611b0382611814565b810181811067ffffffffffffffff82111715611b2257611b21611acb565b5b80604052505050565b6000611b356116ff565b9050611b418282611afa565b919050565b600067ffffffffffffffff821115611b6157611b60611acb565b5b611b6a82611814565b9050602081019050919050565b82818337600083830152505050565b6000611b99611b9484611b46565b611b2b565b905082815260208101848484011115611bb557611bb4611ac6565b5b611bc0848285611b77565b509392505050565b600082601f830112611bdd57611bdc611ac1565b5b8135611bed848260208601611b86565b91505092915050565b60008060008060808587031215611c1057611c0f611709565b5b6000611c1e87828801611956565b9450506020611c2f87828801611956565b9350506040611c40878288016118a1565b925050606085013567ffffffffffffffff811115611c6157611c6061170e565b5b611c6d87828801611bc8565b91505092959194509250565b60008060408385031215611c9057611c8f611709565b5b6000611c9e85828601611956565b9250506020611caf85828601611956565b9150509250929050565b7f4e487b7100000000000000000000000000000000000000000000000000000000600052602260045260246000fd5b60006002820490506001821680611d0057607f821691505b602082108103611d1357611d12611cb9565b5b50919050565b6000606082019050611d2e6000830186611915565b611d3b60208301856119fe565b611d486040830184611915565b949350505050565b7f4f6e6c7920636f6c6f6e79206d6179206d696e74000000000000000000000000600082015250565b6000611d866014836117d9565b9150611d9182611d50565b602082019050919050565b60006020820190508181036000830152611db581611d79565b9050919050565b7f4e487b7100000000000000000000000000000000000000000000000000000000600052601160045260246000fd5b6000611df682611880565b91507fffffffffffffffffffffffffffffffffffffffffffffffffffffffffffffffff8203611e2857611e27611dbc565b5b600182019050919050565b600081905092915050565b6000611e49826117ce565b611e538185611e33565b9350611e638185602086016117ea565b80840191505092915050565b6000611e7b8285611e3e565b9150611e878284611e3e565b91508190509392505050565b600081519050919050565b600082825260208201905092915050565b6000611eba82611e93565b611ec48185611e9e565b9350611ed48185602086016117ea565b611edd81611814565b840191505092915050565b6000608082019050611efd6000830187611915565b611f0a6020830186611915565b611f1760408301856119fe565b8181036060830152611f298184611eaf565b905095945050505050565b600081519050611f438161173f565b92915050565b600060208284031215611f5f57611f5e611709565b5b6000611f6d84828501611f34565b91505092915050565b7f4e487b7100000000000000000000000000000000000000000000000000000000600052601260045260246000fd5b6000604082019050611fba6000830185611915565b611fc760208301846119fe565b939250505056fea26469706673582212205765a2d697e3a9f665001677483cc33b3513bc982fdc559a11bc5fa396a7ad2d64736f6c63430008180033",
  "linkReferences": {},
  "deployedLinkReferences": {}
}