{
  "_format": "hh-sol-artifact-1",
  "contractName": "ExperienceRegistry",
  "sourceName": "contracts/ExperienceRegistry.sol",
  "abi": [
    {
      "inputs": [],
      "stateMutability": "nonpayable",
      "type": "constructor"
    },
    {
      "anonymous": false,
      "inputs": [
        {
          "indexed": true,
          "internalType": "bytes32",
          "name": "runHash",
          "type": "bytes32"
        },
        {
          "indexed": true,
          "internalType": "address",
          "name": "validator",
          "type": "address"
        },
        {
          "indexed": false,
          "internalType": "uint8",
          "name": "quality",
          "type": "uint8"
        }
      ],
      "name": "ExperienceAttested",
      "type": "event"
    },
    {
      "anonymous": false,
      "inputs": [
        {
          "indexed": true,
          "internalType": "bytes32",
          "name": "runHash",
          "type": "bytes32"
        },
        {
          "indexed": false,
          "internalType": "string",
          "name": "ipfsCid",
          "type": "string"
        },
        {
          "indexed": false,
          "internalType": "bytes32",
          "name": "dataHash",
          "type": "bytes32"
        },
        {
          "indexed": false,
          "internalType": "uint256",
          "name": "score",
          "type": "uint256"
        },
        {
          "indexed": true,
          "internalType": "address",
          "name": "submitter",
          "type": "address"
        }
      ],
      "name": "ExperienceSubmitted",
      "type": "event"
    },
    {
      "anonymous": false,
      "inputs": [
        {
          "indexed": true,
          "internalType": "bytes32",
          "name": "runHash",
          "type": "bytes32"
        },
        {
          "indexed": true,
          "internalType": "address",
          "name": "verifier",
          "type": "address"
        }
      ],
      "name": "ExperienceVerified",
      "type": "event"
    },
    {
      "inputs": [
        {
          "internalType": "address",
          "name": "validator",
          "type": "address"
        }
      ],
      "name": "addValidator",
      "outputs": [],
      "stateMutability": "nonpayable",
      "type": "function"
    },
    {
      "inputs": [
        {
          "internalType": "bytes32",
          "name": "runHash",
          "type": "bytes32"
        },
        {
          "internalType": "uint8",
          "name": "quality",
          "type": "uint8"
        },
        {
          "internalType": "string",
          "name": "notes",
          "type": "string"
        }
      ],
      "name": "attestExperience",
      "outputs": [],
      "stateMutability": "nonpayable",
      "type": "function"
    },
    {
      "inputs": [
        {
          "internalType": "bytes32",
          "name": "",
          "type": "bytes32"
        },
        {
          "internalType": "uint256",
          "name": "",
          "type": "uint256"
        }
      ],
      "name": "attestations",
      "outputs": [
        {
          "internalType": "address",
          "name": "validator",
          "type": "address"
        },
        {
          "internalType": "uint32",
          "name": "timestamp",
          "type": "uint32"
        },
        {
          "internalType": "uint8",
          "name": "quality",
          "type": "uint8"
        },
        {
          "internalType": "string",
          "name": "notes",
          "type": "string"
        }
      ],
      "stateMutability": "view",
      "type": "function"
    },
    {
      "inputs": [
        {
          "internalType": "address",
          "name": "",
          "type": "address"
        }
      ],
      "name": "authorizedValidators",
      "outputs": [
        {
          "internalType": "bool",
          "name": "",
          "type": "bool"
        }
      ],
      "stateMutability": "view",
      "type": "function"
    },
    {
      "inputs": [
        {
          "internalType": "bytes32",
          "name": "runHash",
          "type": "bytes32"
        }
      ],
      "name": "calculateAverageQuality",
      "outputs": [
        {
          "internalType": "uint256",
          "name": "",
          "type": "uint256"
        }
      ],
      "stateMutability": "view",
      "type": "function"
    },
    {
      "inputs": [
        {
          "internalType": "bytes32",
          "name": "",
          "type": "bytes32"
        }
      ],
      "name": "experiences",
      "outputs": [
        {
          "internalType": "bytes32",
          "name": "runHash",
          "type": "bytes32"
        },
        {
          "internalType": "string",
          "name": "ipfsCid",
          "type": "string"
        },
        {
          "internalType": "bytes32",
          "name": "dataHash",
          "type": "bytes32"
        },
        {
          "internalType": "uint256",
          "name": "score",
          "type": "uint256"
        },
        {
          "internalType": "address",
          "name": "submitter",
          "type": "address"
        },
        {
          "internalType": "uint32",
          "name": "timestamp",
          "type": "uint32"
        },
        {
          "internalType": "uint16",
          "name": "attestations",
          "type": "uint16"
        },
        {
          "internalType": "bool",
          "name": "verified",
          "type": "bool"
        }
      ],
      "stateMutability": "view",
      "type": "function"
    },
    {
      "inputs": [
        {
          "internalType": "bytes32",
          "name": "runHash",
          "type": "bytes32"
        }
      ],
      "name": "getAttestations",
      "outputs": [
        {
          "components": [
            {
              "internalType": "address",
              "name": "validator",
              "type": "address"
            },
            {
              "internalType": "uint32",
              "name": "timestamp",
              "type": "uint32"
            },
            {
              "internalType": "uint8",
              "name": "quality",
              "type": "uint8"
            },
            {
              "internalType": "string",
              "name": "notes",
              "type": "string"
            }
          ],
          "internalType": "struct ExperienceRegistry.Attestation[]",
          "name": "",
          "type": "tuple[]"
        }
      ],
      "stateMutability": "view",
      "type": "function"
    },
    {
      "inputs": [
        {
          "internalType": "bytes32",
          "name": "runHash",
          "type": "bytes32"
        }
      ],
      "name": "getExperience",
      "outputs": [
        {
          "components": [
            {
              "internalType": "bytes32",
              "name": "runHash",
              "type": "bytes32"
            },
            {
              "internalType": "string",
              "name": "ipfsCid",
              "type": "string"
            },
            {
              "internalType": "bytes32",
              "name": "dataHash",
              "type": "bytes32"
            },
            {
              "internalType": "uint256",
              "name": "score",
              "type": "uint256"
            },
            {
              "internalType": "address",
              "name": "submitter",
              "type": "address"
            },
            {
              "internalType": "uint32",
              "name": "timestamp",
              "type": "uint32"
            },
            {
              "internalType": "uint16",
              "name": "attestations",
              "type": "uint16"
            },
            {
              "internalType": "bool",
              "name": "verified",
              "type": "bool"
            }
          ],
          "internalType": "struct ExperienceRegistry.Experience",
          "name": "exp",
          "type": "tuple"
        },
        {
          "components": [
            {
              "internalType": "string",
              "name": "strategyType",
              "type": "string"
            },
            {
              "internalType": "string",
              "name": "modelUsed",
              "type": "string"
            },
            {
              "internalType": "uint16",
              "name": "nanobotCount",
              "type": "uint16"
            },
            {
              "internalType": "uint16",
              "name": "tumorRadius",
              "type": "uint16"
            },
            {
              "internalType": "bytes32",
              "name": "datasetHash",
              "type": "bytes32"
            }
          ],
          "internalType": "struct ExperienceRegistry.StrategyMeta",
          "name": "strategy",
          "type": "tuple"
        },
        {
          "internalType": "uint256",
          "name": "avgQuality",
          "type": "uint256"
        }
      ],
      "stateMutability": "view",
      "type": "function"
    },
    {
      "inputs": [
        {
          "internalType": "bytes32",
          "name": "runHash",
          "type": "bytes32"
        }
      ],
      "name": "isVerified",
      "outputs": [
        {
          "internalType": "bool",
          "name": "",
          "type": "bool"
        }
      ],
      "stateMutability": "view",
      "type": "function"
    },
    {
      "inputs": [],
      "name": "minAttestations",
      "outputs": [
        {
          "internalType": "uint8",
          "name": "",
          "type": "uint8"
        }
      ],
      "stateMutability": "view",
      "type": "function"
    },
    {
      "inputs": [],
      "name": "owner",
      "outputs": [
        {
          "internalType": "address",
          "name": "",
          "type": "address"
        }
      ],
      "stateMutability": "view",
      "type": "function"
    },
    {
      "inputs": [
        {
          "internalType": "address",
          "name": "validator",
          "type": "address"
        }
      ],
      "name": "removeValidator",
      "outputs": [],
      "stateMutability": "nonpayable",
      "type": "function"
    },
    {
      "inputs": [
        {
          "internalType": "uint8",
          "name": "min",
          "type": "uint8"
        }
      ],
      "name": "setMinAttestations",
      "outputs": [],
      "stateMutability": "nonpayable",
      "type": "function"
    },
    {
      "inputs": [
        {
          "internalType": "bytes32",
          "name": "",
          "type": "bytes32"
        }
      ],
      "name": "strategies",
      "outputs": [
        {
          "internalType": "string",
          "name": "strategyType",
          "type": "string"
        },
        {
          "internalType": "string",
          "name": "modelUsed",
          "type": "string"
        },
        {
          "internalType": "uint16",
          "name": "nanobotCount",
          "type": "uint16"
        },
        {
          "internalType": "uint16",
          "name": "tumorRadius",
          "type": "uint16"
        },
        {
          "internalType": "bytes32",
          "name": "datasetHash",
          "type": "bytes32"
        }
      ],
      "stateMutability": "view",
      "type": "function"
    },
    {
      "inputs": [
        {
          "internalType": "bytes32",
          "name": "runHash",
          "type": "bytes32"
        },
        {
          "internalType": "string",
          "name": "ipfsCid",
          "type": "string"
        },
        {
          "internalType": "bytes32",
          "name": "dataHash",
          "type": "bytes32"
        },
        {
          "internalType": "uint256",
          "name": "score",
          "type": "uint256"
        },
        {
          "internalType": "string",
          "name": "strategyType",
          "type": "string"
        },
        {
          "internalType": "string",
          "name": "modelUsed",
          "type": "string"
        },
        {
          "internalType": "uint16",
          "name": "nanobotCount",
          "type": "uint16"
        },
        {
          "internalType": "uint16",
          "name": "tumorRadius",
          "type": "uint16"
        },
        {
          "internalType": "bytes32",
          "name": "datasetHash",
          "type": "bytes32"
        }
      ],
      "name": "submitExperience",
      "outputs": [],
      "stateMutability": "nonpayable",
      "type": "function"
    }
  ],
  "bytecode": "0x6080806040523461004a57600480546001600160a81b03191633908117600160a11b179091556000908152600360205260409020805460ff1916600117905561161a90816100508239f35b600080fdfe608080604052600436101561001357600080fd5b60003560e01c90816313f269dd146112e65750806327dee37c1461129557806334f01811146111f157806337e59e36146110a35780633ff34eb91461101a57806340a141ff14610fcc5780634d238c8e14610f7b5780635871416314610f385780637b77044d146108d65780638da5cb5b146108ad578063a78c52bb14610824578063b144d4a31461035f578063bb66dab214610339578063c181b273146103025763ebee03bb146100c457600080fd5b346102fd5760203660031901126102fd57600060e06040516100e58161135c565b828152606060208201528260408201528260608201528260808201528260a08201528260c082015201526000608060405161011f81611378565b606081526060602082015282604082015282606082015201526004356000526000602052604060002060ff6004604051926101598461135c565b80548452610169600182016113b4565b60208501526002810154604085015260038101546060850152015460018060a01b038116608084015263ffffffff8160a01c1660a084015261ffff8160c01c1660c084015260d01c16151560e082015260043560005260016020526040600020906003604051926101d984611378565b6101e2816113b4565b84526101f0600182016113b4565b602085015261ffff6002820154818116604087015260101c16606085015201546080830152610220600435611577565b91604051928392606084528051606085015260e061024f60208301516101006080880152610160870190611459565b91604081015160a0870152606081015160c087015260018060a01b036080820151168287015263ffffffff60a08201511661010087015261ffff60c0820151166101208701520151151561014085015283810360208501526080806102d26102c0865160a0865260a0860190611459565b60208701518582036020870152611459565b9461ffff604082015116604085015261ffff6060820151166060850152015191015260408301520390f35b600080fd5b346102fd5760203660031901126102fd576004356000526000602052602060ff60046040600020015460d01c166040519015158152f35b346102fd5760203660031901126102fd576020610357600435611577565b604051908152f35b346102fd5760603660031901126102fd5760043560249081359160ff83168093036102fd576044906001600160401b0382358181116102fd576103a6903690600401611499565b91336000526020946003865260ff60406000205416156107e057866000526000865263ffffffff908160046040600020015460a01c161561079c5760649060648a116107605760008981526002895260408120805492915b83811061070857505050505086600052600286526040600020936040519161042583611341565b33835261044388840195824216875260408501938c85523691611531565b94606084019586528654680100000000000000008110156106f35761046f9060019889820181556114c6565b9490946106de575184549151935160ff60c01b60c09190911b169290931660a01b63ffffffff60a01b166001600160a01b039093166001600160c81b0319909116179190911717815591518051928401929182116106c95781906104d38454611307565b601f8111610676575b508690601f831160011461061357600092610608575b5050600019600383901b1c191690831b1790555b836000526000835260046040600020019061ffff9283835460c01c16908482146105f45750825461ffff60c01b1916910160c01b61ffff60c01b161790557f9a3f0c0b287bde0ebea0be11740769eca2fea70883ef1bd79eab05f21c062c6a9190836000526000825260046040600020015460c01c1660ff60045460a01c161115610597575b6040519384523393a3005b60466105a284611577565b1061058c57600083815280825260408120600401805460ff60d01b1916600160d01b179055339084907fcd88bd92cbb653cb16eea4a15037ddc18c0b33cf33cb092a44aa993b0684b5a59080a361058c565b634e487b7160e01b60009081526011600452fd5b0151905088806104f2565b90859350601f1983169185600052886000209260005b8a8282106106605750508411610647575b505050811b019055610506565b015160001960f88460031b161c1916905588808061063a565b8385015186558997909501949384019301610629565b9091508360005286600020601f840160051c8101918885106106bf575b84939291601f88920160051c01915b8281106106b05750506104dc565b600081558594508791016106a2565b9091508190610693565b84634e487b7160e01b60005260416004526000fd5b88634e487b7160e01b60005260006004526000fd5b88634e487b7160e01b60005260416004526000fd5b61071281836114c6565b50546001600160a01b0316331461072b576001016103fe565b60405162461bcd60e51b8152600481018c90526010818c01526f105b1c9958591e48185d1d195cdd195960821b818501528590fd5b60405162461bcd60e51b8152600481018990526015818901527405175616c697479206d75737420626520302d31303605c1b6044820152606490fd5b60405162461bcd60e51b8152600481018890526019818801527f457870657269656e636520646f6573206e6f74206578697374000000000000006044820152606490fd5b60405162461bcd60e51b8152600481018790526018818701527f4e6f7420617574686f72697a65642076616c696461746f7200000000000000006044820152606490fd5b346102fd5760403660031901126102fd576024356004356000526002602052604060002080548210156102fd5760ff9161085d916114c6565b506108a961086f6001835493016113b4565b60405193849360018060a01b038116855263ffffffff8160a01c16602086015260c01c166040840152608060608401526080830190611459565b0390f35b346102fd5760003660031901126102fd576004546040516001600160a01b039091168152602090f35b346102fd576101203660031901126102fd576024356001600160401b0381116102fd57610907903690600401611499565b6084356001600160401b0381116102fd57610926903690600401611499565b9060a4356001600160401b0381116102fd57610946903690600401611499565b9060c4359161ffff831683036102fd5760e4359361ffff851685036102fd57600435600052600060205263ffffffff60046040600020015460a01c16610ef3576040516109928161135c565b60043581526109a236898b611531565b60208201526044356040820152606435606082015233608082015263ffffffff421660a0820152600060c0820152600060e0820152600435600052600060205260406000208151815560208201518051906001600160401b038211610d3f57610a0e6001840154611307565b601f8111610eac575b50602090601f8311600114610e27579360e0600461ffff9b9a989585610afa96610b039a968f9d9a600092610e1c575b50508160011b916000199060031b1c19161760018201555b604084015160028201556060840151600382015560808401519101805460a08086015163ffffffff60a01b911b166001600160a01b039093166001600160c01b0319909116179190911781559160c081810151845461ffff60c01b1916908c1690911b61ffff60c01b161783550151815460ff60d01b191690151560d01b60ff60d01b1617905560405199610af38b611378565b3691611531565b88523691611531565b6020860152166040840152166060820152610104356080820152600435600052600160205260406000209080518051906001600160401b038211610d3f578190610b4d8554611307565b601f8111610dcc575b50602090601f8311600114610d6057600092610d55575b50508160011b916000199060031b1c19161782555b60208101518051906001600160401b038211610d3f57610ba56001850154611307565b601f8111610cf8575b50602090601f8311600114610c8457918060039492608094600092610c79575b505060001982861b1c1916600191821b17908501555b6002840161ffff60408301511681549063ffff0000606085015160101b169163ffffffff19161717905501519101558060405192606084528160608501526080840137600060808284010152604435602083015260643560408301527fc8643348aec2503f08aa01288744bb383830b348039b88a434ae1d5278ddc696339260808160043594601f80199101168101030190a3005b015190508880610bce565b906001850160005260206000209160005b601f1985168110610ce05750926003949260019260809583601f19811610610cc8575b505050811b016001850155610be4565b015160001983881b60f8161c19169055888080610cb8565b91926020600181928685015181550194019201610c95565b600185016000526020600020601f840160051c810160208510610d38575b601f830160051c82018110610d2c575050610bae565b60008155600101610d16565b5080610d16565b634e487b7160e01b600052604160045260246000fd5b015190508680610b6d565b9250846000526020600020906000935b601f1984168510610db1576001945083601f19811610610d98575b505050811b018255610b82565b015160001960f88460031b161c19169055868080610d8b565b81810151835560209485019460019093019290910190610d70565b909150846000526020600020601f840160051c810160208510610e15575b90849392915b601f830160051c82018110610e06575050610b56565b60008155859450600101610df0565b5080610dea565b015190503880610a47565b906001840160005260206000209160005b601f1985168110610e945750600461ffff9b9a9895600186610b039a968f9d9a9660e096610afa9a601f19811610610e7b575b505050811b016001820155610a5f565b015160001960f88460031b161c19169055388080610e6b565b91926020600181928685015181550194019201610e38565b600184016000526020600020601f840160051c810160208510610eec575b601f830160051c82018110610ee0575050610a17565b60008155600101610eca565b5080610eca565b60405162461bcd60e51b815260206004820152601960248201527f457870657269656e636520616c726561647920657869737473000000000000006044820152606490fd5b346102fd5760203660031901126102fd576004356001600160a01b038116908190036102fd576000526003602052602060ff604060002054166040519015158152f35b346102fd5760203660031901126102fd576004356001600160a01b03818116918290036102fd57610fb1906004541633146114f8565b6000908152600360205260409020805460ff19166001179055005b346102fd5760203660031901126102fd576004356001600160a01b03818116918290036102fd57611002906004541633146114f8565b6000908152600360205260409020805460ff19169055005b346102fd5760203660031901126102fd57600435600052600160205261107a6040600020611047816113b4565b90611054600182016113b4565b600282015491611088600361ffff9201549260405196879660a0885260a0880190611459565b908682036020880152611459565b92818116604086015260101c16606084015260808301520390f35b346102fd576020806003193601126102fd576004356000526002808252604060002080546001600160401b038111610d3f5760405193926110ea600583901b850186611393565b8185528385018093600052846000206000915b84831061119757604080518881528951818a01819052600092600582901b83018101918a918c9085015b8287106111345785850386f35b909192938280611187600193603f198a8203018652885190608090868060a01b03835116815263ffffffff85840151168582015260ff604084015116604082015281606080940151938201520190611459565b9601920196019592919092611127565b838760019260409a999a516111ab81611341565b60ff8654868060a01b038116835263ffffffff8160a01c168584015260c01c1660408201526111db8587016113b4565b60608201528152019201920191909695966110fd565b346102fd5760203660031901126102fd57600435600052600060205260406000208054611220600183016113b4565b9160ff6002820154916004600382015491015490611251604051968796610100908852806020890152870190611459565b936040860152606085015260018060a01b038116608085015263ffffffff8160a01c1660a085015261ffff8160c01c1660c085015260d01c16151560e08301520390f35b346102fd5760203660031901126102fd5760043560ff811681036102fd57600454906112cb336001600160a01b038416146114f8565b60ff60a01b1990911660a09190911b60ff60a01b1617600455005b346102fd5760003660031901126102fd5760209060ff60045460a01c168152f35b90600182811c92168015611337575b602083101461132157565b634e487b7160e01b600052602260045260246000fd5b91607f1691611316565b608081019081106001600160401b03821117610d3f57604052565b61010081019081106001600160401b03821117610d3f57604052565b60a081019081106001600160401b03821117610d3f57604052565b90601f801991011681019081106001600160401b03821117610d3f57604052565b906040519182600082546113c781611307565b9081845260209460019160018116908160001461143757506001146113f8575b5050506113f692500383611393565b565b600090815285812095935091905b81831061141f5750506113f693508201013880806113e7565b85548884018501529485019487945091830191611406565b925050506113f694925060ff191682840152151560051b8201013880806113e7565b919082519283825260005b848110611485575050826000602080949584010152601f8019910116010190565b602081830181015184830182015201611464565b9181601f840112156102fd578235916001600160401b0383116102fd57602083818601950101116102fd57565b80548210156114e25760005260206000209060011b0190600090565b634e487b7160e01b600052603260045260246000fd5b156114ff57565b60405162461bcd60e51b815260206004820152600a60248201526927b7363c9037bbb732b960b11b6044820152606490fd5b9291926001600160401b038211610d3f576040519161155a601f8201601f191660200184611393565b8294818452818301116102fd578281602093846000960137010152565b600090815260026020526040812080549182156115de57908180915b8483106115a1575050500490565b90919260ff6115b085846114c6565b505460c01c1681018091116115ca57926001019190611593565b634e487b7160e01b83526011600452602483fd5b9150509056fea2646970667358221220e3211e8a31279956d4658c13396624627fc138c3316483e4084c2eef86e943b764736f6c63430008180033",
  "linkReferences": {},
  "deployedLinkReferences": {}
}