{"contracts/ExperienceRegistry.sol":{"ExperienceRegistry":{"abi":[{"inputs":[],"stateMutability":"nonpayable","type":"constructor"},{"anonymous":false,"inputs":[{"indexed":true,"internalType":"bytes32","name":"runHash","type":"bytes32"},{"indexed":true,"internalType":"address","name":"validator","type":"address"},{"indexed":false,"internalType":"uint8","name":"quality","type":"uint8"}],"name":"ExperienceAttested","type":"event"},{"anonymous":false,"inputs":[{"indexed":true,"internalType":"bytes32","name":"runHash","type":"bytes32"},{"indexed":false,"internalType":"string","name":"ipfsCid","type":"string"},{"indexed":false,"internalType":"bytes32","name":"dataHash","type":"bytes32"},{"indexed":false,"internalType":"uint256","name":"score","type":"uint256"},{"indexed":true,"internalType":"address","name":"submitter","type":"address"}],"name":"ExperienceSubmitted","type":"event"},{"anonymous":false,"inputs":[{"indexed":true,"internalType":"bytes32","name":"runHash","type":"bytes32"},{"indexed":true,"internalType":"address","name":"verifier","type":"address"}],"name":"ExperienceVerified","type":"event"},{"inputs":[{"internalType":"address","name":"validator","type":"address"}],"name":"addValidator","outputs":[],"stateMutability":"nonpayable","type":"function"},{"inputs":[{"internalType":"bytes32","name":"runHash","type":"bytes32"},{"internalType":"uint8","name":"quality","type":"uint8"},{"internalType":"string","name":"notes","type":"string"}],"name":"attestExperience","outputs":[],"stateMutability":"nonpayable","type":"function"},{"inputs":[{"internalType":"bytes32","name":"","type":"bytes32"},{"internalType":"uint256","name":"","type":"uint256"}],"name":"attestations","outputs":[{"internalType":"address","name":"validator","type":"address"},{"internalType":"uint32","name":"timestamp","type":"uint32"},{"internalType":"uint8","name":"quality","type":"uint8"},{"internalType":"string","name":"notes","type":"string"}],"stateMutability":"view","type":"function"},{"inputs":[{"internalType":"address","name":"","type":"address"}],"name":"authorizedValidators","outputs":[{"internalType":"bool","name":"","type":"bool"}],"stateMutability":"view","type":"function"},{"inputs":[{"internalType":"bytes32","name":"runHash","type":"bytes32"}],"name":"calculateAverageQuality","outputs":[{"internalType":"uint256","name":"","type":"uint256"}],"stateMutability":"view","type":"function"},{"inputs":[{"internalType":"bytes32","name":"","type":"bytes32"}],"name":"experiences","outputs":[{"internalType":"bytes32","name":"runHash","type":"bytes32"},{"internalType":"string","name":"ipfsCid","type":"string"},{"internalType":"bytes32","name":"dataHash","type":"bytes32"},{"internalType":"uint256","name":"score","type":"uint256"},{"internalType":"address","name":"submitter","type":"address"},{"internalType":"uint32","name":"timestamp","type":"uint32"},{"internalType":"uint16","name":"attestations","type":"uint16"},{"internalType":"bool","name":"verified","type":"bool"}],"stateMutability":"view","type":"function"},{"inputs":[{"internalType":"bytes32","name":"runHash","type":"bytes32"}],"name":"getAttestations","outputs":[{"components":[{"internalType":"address","name":"validator","type":"address"},{"internalType":"uint32","name":"timestamp","type":"uint32"},{"internalType":"uint8","name":"quality","type":"uint8"},{"internalType":"string","name":"notes","type":"string"}],"internalType":"struct ExperienceRegistry.Attestation[]","name":"","type":"tuple[]"}],"stateMutability":"view","type":"function"},{"inputs":[{"internalType":"bytes32","name":"runHash","type":"bytes32"}],"name":"getExperience","outputs":[{"components":[{"internalType":"bytes32","name":"runHash","type":"bytes32"},{"internalType":"string","name":"ipfsCid","type":"string"},{"internalType":"bytes32","name":"dataHash","type":"bytes32"},{"internalType":"uint256","name":"score","type":"uint256"},{"internalType":"address","name":"submitter","type":"address"},{"internalType":"uint32","name":"timestamp","type":"uint32"},{"internalType":"uint16","name":"attestations","type":"uint16"},{"internalType":"bool","name":"verified","type":"bool"}],"internalType":"struct ExperienceRegistry.Experience","name":"exp","type":"tuple"},{"components":[{"internalType":"string","name":"strategyType","type":"string"},{"internalType":"string","name":"modelUsed","type":"string"},{"internalType":"uint16","name":"nanobotCount","type":"uint16"},{"internalType":"uint16","name":"tumorRadius","type":"uint16"},{"internalType":"bytes32","name":"datasetHash","type":"bytes32"}],"internalType":"struct ExperienceRegistry.StrategyMeta","name":"strategy","type":"tuple"},{"internalType":"uint256","name":"avgQuality","type":"uint256"}],"stateMutability":"view","type":"function"},{"inputs":[{"internalType":"bytes32","name":"runHash","type":"bytes32"}],"name":"isVerified","outputs":[{"internalType":"bool","name":"","type":"bool"}],"stateMutability":"view","type":"function"},{"inputs":[],"name":"minAttestations","outputs":[{"internalType":"uint8","name":"","type":"uint8"}],"stateMutability":"view","type":"function"},{"inputs":[],"name":"owner","outputs":[{"internalType":"address","name":"","type":"address"}],"stateMutability":"view","type":"function"},{"inputs":[{"internalType":"address","name":"validator","type":"address"}],"name":"removeValidator","outputs":[],"stateMutability":"nonpayable","type":"function"},{"inputs":[{"internalType":"uint8","name":"min","type":"uint8"}],"name":"setMinAttestations","outputs":[],"stateMutability":"nonpayable","type":"function"},{"inputs":[{"internalType":"bytes32","name":"","type":"bytes32"}],"name":"strategies","outputs":[{"internalType":"string","name":"strategyType","type":"string"},{"internalType":"string","name":"modelUsed","type":"string"},{"internalType":"uint16","name":"nanobotCount","type":"uint16"},{"internalType":"uint16","name":"tumorRadius","type":"uint16"},{"internalType":"bytes32","name":"datasetHash","type":"bytes32"}],"stateMutability":"view","type":"function"},{"inputs":[{"internalType":"bytes32","name":"runHash","type":"bytes32"},{"internalType":"string","name":"ipfsCid","type":"string"},{"internalType":"bytes32","name":"dataHash","type":"bytes32"},{"internalType":"uint256","name":"score","type":"uint256"},{"internalType":"string","name":"strategyType","type":"string"},{"internalType":"string","name":"modelUsed","type":"string"},{"internalType":"uint16","name":"nanobotCount","type":"uint16"},{"internalType":"uint16","name":"tumorRadius","type":"uint16"},{"internalType":"bytes32","name":"datasetHash","type":"bytes32"}],"name":"submitExperience","outputs":[],"stateMutability":"nonpayable","type":"function"}],"evm":{"bytecode":{"linkReferences":{},"object":"6080806040523461004a57600480546001600160a81b03191633908117600160a11b179091556000908152600360205260409020805460ff1916600117905561161a90816100508239f35b600080fdfe608080604052600436101561001357600080fd5b60003560e01c90816313f269dd146112e65750806327dee37c1461129557806334f01811146111f157806337e59e36146110a35780633ff34eb91461101a57806340a141ff14610fcc5780634d238c8e14610f7b5780635871416314610f385780637b77044d146108d65780638da5cb5b146108ad578063a78c52bb14610824578063b144d4a31461035f578063bb66dab214610339578063c181b273146103025763ebee03bb146100c457600080fd5b346102fd5760203660031901126102fd57600060e06040516100e58161135c565b828152606060208201528260408201528260608201528260808201528260a08201528260c082015201526000608060405161011f81611378565b606081526060602082015282604082015282606082015201526004356000526000602052604060002060ff6004604051926101598461135c565b80548452610169600182016113b4565b60208501526002810154604085015260038101546060850152015460018060a01b038116608084015263ffffffff8160a01c1660a084015261ffff8160c01c1660c084015260d01c16151560e082015260043560005260016020526040600020906003604051926101d984611378565b6101e2816113b4565b84526101f0600182016113b4565b602085015261ffff6002820154818116604087015260101c16606085015201546080830152610220600435611577565b91604051928392606084528051606085015260e061024f60208301516101006080880152610160870190611459565b91604081015160a0870152606081015160c087015260018060a01b036080820151168287015263ffffffff60a08201511661010087015261ffff60c0820151166101208701520151151561014085015283810360208501526080806102d26102c0865160a0865260a0860190611459565b60208701518582036020870152611459565b9461ffff604082015116604085015261ffff6060820151166060850152015191015260408301520390f35b600080fd5b346102fd5760203660031901126102fd576004356000526000602052602060ff60046040600020015460d01c166040519015158152f35b346102fd5760203660031901126102fd576020610357600435611577565b604051908152f35b346102fd5760603660031901126102fd5760043560249081359160ff83168093036102fd576044906001600160401b0382358181116102fd576103a6903690600401611499565b91336000526020946003865260ff60406000205416156107e057866000526000865263ffffffff908160046040600020015460a01c161561079c5760649060648a116107605760008981526002895260408120805492915b83811061070857505050505086600052600286526040600020936040519161042583611341565b33835261044388840195824216875260408501938c85523691611531565b94606084019586528654680100000000000000008110156106f35761046f9060019889820181556114c6565b9490946106de575184549151935160ff60c01b60c09190911b169290931660a01b63ffffffff60a01b166001600160a01b039093166001600160c81b0319909116179190911717815591518051928401929182116106c95781906104d38454611307565b601f8111610676575b508690601f831160011461061357600092610608575b5050600019600383901b1c191690831b1790555b836000526000835260046040600020019061ffff9283835460c01c16908482146105f45750825461ffff60c01b1916910160c01b61ffff60c01b161790557f9a3f0c0b287bde0ebea0be11740769eca2fea70883ef1bd79eab05f21c062c6a9190836000526000825260046040600020015460c01c1660ff60045460a01c161115610597575b6040519384523393a3005b60466105a284611577565b1061058c57600083815280825260408120600401805460ff60d01b1916600160d01b179055339084907fcd88bd92cbb653cb16eea4a15037ddc18c0b33cf33cb092a44aa993b0684b5a59080a361058c565b634e487b7160e01b60009081526011600452fd5b0151905088806104f2565b90859350601f1983169185600052886000209260005b8a8282106106605750508411610647575b505050811b019055610506565b015160001960f88460031b161c1916905588808061063a565b8385015186558997909501949384019301610629565b9091508360005286600020601f840160051c8101918885106106bf575b84939291601f88920160051c01915b8281106106b05750506104dc565b600081558594508791016106a2565b9091508190610693565b84634e487b7160e01b60005260416004526000fd5b88634e487b7160e01b60005260006004526000fd5b88634e487b7160e01b60005260416004526000fd5b61071281836114c6565b50546001600160a01b0316331461072b576001016103fe565b60405162461bcd60e51b8152600481018c90526010818c01526f105b1c9958591e48185d1d195cdd195960821b818501528590fd5b60405162461bcd60e51b8152600481018990526015818901527405175616c697479206d75737420626520302d31303605c1b6044820152606490fd5b60405162461bcd60e51b8152600481018890526019818801527f457870657269656e636520646f6573206e6f74206578697374000000000000006044820152606490fd5b60405162461bcd60e51b8152600481018790526018818701527f4e6f7420617574686f72697a65642076616c696461746f7200000000000000006044820152606490fd5b346102fd5760403660031901126102fd576024356004356000526002602052604060002080548210156102fd5760ff9161085d916114c6565b506108a961086f6001835493016113b4565b60405193849360018060a01b038116855263ffffffff8160a01c16602086015260c01c166040840152608060608401526080830190611459565b0390f35b346102fd5760003660031901126102fd576004546040516001600160a01b039091168152602090f35b346102fd576101203660031901126102fd576024356001600160401b0381116102fd57610907903690600401611499565b6084356001600160401b0381116102fd57610926903690600401611499565b9060a4356001600160401b0381116102fd57610946903690600401611499565b9060c4359161ffff831683036102fd5760e4359361ffff851685036102fd57600435600052600060205263ffffffff60046040600020015460a01c16610ef3576040516109928161135c565b60043581526109a236898b611531565b60208201526044356040820152606435606082015233608082015263ffffffff421660a0820152600060c0820152600060e0820152600435600052600060205260406000208151815560208201518051906001600160401b038211610d3f57610a0e6001840154611307565b601f8111610eac575b50602090601f8311600114610e27579360e0600461ffff9b9a989585610afa96610b039a968f9d9a600092610e1c575b50508160011b916000199060031b1c19161760018201555b604084015160028201556060840151600382015560808401519101805460a08086015163ffffffff60a01b911b166001600160a01b039093166001600160c01b0319909116179190911781559160c081810151845461ffff60c01b1916908c1690911b61ffff60c01b161783550151815460ff60d01b191690151560d01b60ff60d01b1617905560405199610af38b611378565b3691611531565b88523691611531565b6020860152166040840152166060820152610104356080820152600435600052600160205260406000209080518051906001600160401b038211610d3f578190610b4d8554611307565b601f8111610dcc575b50602090601f8311600114610d6057600092610d55575b50508160011b916000199060031b1c19161782555b60208101518051906001600160401b038211610d3f57610ba56001850154611307565b601f8111610cf8575b50602090601f8311600114610c8457918060039492608094600092610c79575b505060001982861b1c1916600191821b17908501555b6002840161ffff60408301511681549063ffff0000606085015160101b169163ffffffff19161717905501519101558060405192606084528160608501526080840137600060808284010152604435602083015260643560408301527fc8643348aec2503f08aa01288744bb383830b348039b88a434ae1d5278ddc696339260808160043594601f80199101168101030190a3005b015190508880610bce565b906001850160005260206000209160005b601f1985168110610ce05750926003949260019260809583601f19811610610cc8575b505050811b016001850155610be4565b015160001983881b60f8161c19169055888080610cb8565b91926020600181928685015181550194019201610c95565b600185016000526020600020601f840160051c810160208510610d38575b601f830160051c82018110610d2c575050610bae565b60008155600101610d16565b5080610d16565b634e487b7160e01b600052604160045260246000fd5b015190508680610b6d565b9250846000526020600020906000935b601f1984168510610db1576001945083601f19811610610d98575b505050811b018255610b82565b015160001960f88460031b161c19169055868080610d8b565b81810151835560209485019460019093019290910190610d70565b909150846000526020600020601f840160051c810160208510610e15575b90849392915b601f830160051c82018110610e06575050610b56565b60008155859450600101610df0565b5080610dea565b015190503880610a47565b906001840160005260206000209160005b601f1985168110610e945750600461ffff9b9a9895600186610b039a968f9d9a9660e096610afa9a601f19811610610e7b575b505050811b016001820155610a5f565b015160001960f88460031b161c19169055388080610e6b565b91926020600181928685015181550194019201610e38565b600184016000526020600020601f840160051c810160208510610eec575b601f830160051c82018110610ee0575050610a17565b60008155600101610eca565b5080610eca565b60405162461bcd60e51b815260206004820152601960248201527f457870657269656e636520616c726561647920657869737473000000000000006044820152606490fd5b346102fd5760203660031901126102fd576004356001600160a01b038116908190036102fd576000526003602052602060ff604060002054166040519015158152f35b346102fd5760203660031901126102fd576004356001600160a01b03818116918290036102fd57610fb1906004541633146114f8565b6000908152600360205260409020805460ff19166001179055005b346102fd5760203660031901126102fd576004356001600160a01b03818116918290036102fd57611002906004541633146114f8565b6000908152600360205260409020805460ff19169055005b346102fd5760203660031901126102fd57600435600052600160205261107a6040600020611047816113b4565b90611054600182016113b4565b600282015491611088600361ffff9201549260405196879660a0885260a0880190611459565b908682036020880152611459565b92818116604086015260101c16606084015260808301520390f35b346102fd576020806003193601126102fd576004356000526002808252604060002080546001600160401b038111610d3f5760405193926110ea600583901b850186611393565b8185528385018093600052846000206000915b84831061119757604080518881528951818a01819052600092600582901b83018101918a918c9085015b8287106111345785850386f35b909192938280611187600193603f198a8203018652885190608090868060a01b03835116815263ffffffff85840151168582015260ff604084015116604082015281606080940151938201520190611459565b9601920196019592919092611127565b838760019260409a999a516111ab81611341565b60ff8654868060a01b038116835263ffffffff8160a01c168584015260c01c1660408201526111db8587016113b4565b60608201528152019201920191909695966110fd565b346102fd5760203660031901126102fd57600435600052600060205260406000208054611220600183016113b4565b9160ff6002820154916004600382015491015490611251604051968796610100908852806020890152870190611459565b936040860152606085015260018060a01b038116608085015263ffffffff8160a01c1660a085015261ffff8160c01c1660c085015260d01c16151560e08301520390f35b346102fd5760203660031901126102fd5760043560ff811681036102fd57600454906112cb336001600160a01b038416146114f8565b60ff60a01b1990911660a09190911b60ff60a01b1617600455005b346102fd5760003660031901126102fd5760209060ff60045460a01c168152f35b90600182811c92168015611337575b602083101461132157565b634e487b7160e01b600052602260045260246000fd5b91607f1691611316565b608081019081106001600160401b03821117610d3f57604052565b61010081019081106001600160401b03821117610d3f57604052565b60a081019081106001600160401b03821117610d3f57604052565b90601f801991011681019081106001600160401b03821117610d3f57604052565b906040519182600082546113c781611307565b9081845260209460019160018116908160001461143757506001146113f8575b5050506113f692500383611393565b565b600090815285812095935091905b81831061141f5750506113f693508201013880806113e7565b85548884018501529485019487945091830191611406565b925050506113f694925060ff191682840152151560051b8201013880806113e7565b919082519283825260005b848110611485575050826000602080949584010152601f8019910116010190565b602081830181015184830182015201611464565b9181601f840112156102fd578235916001600160401b0383116102fd57602083818601950101116102fd57565b80548210156114e25760005260206000209060011b0190600090565b634e487b7160e01b600052603260045260246000fd5b156114ff57565b60405162461bcd60e51b815260206004820152600a60248201526927b7363c9037bbb732b960b11b6044820152606490fd5b9291926001600160401b038211610d3f576040519161155a601f8201601f191660200184611393565b8294818452818301116102fd578281602093846000960137010152565b600090815260026020526040812080549182156115de57908180915b8483106115a1575050500490565b90919260ff6115b085846114c6565b505460c01c1681018091116115ca57926001019190611593565b634e487b7160e01b83526011600452602483fd5b9150509056fea2646970667358221220e3211e8a31279956d4658c13396624627fc138c3316483e4084c2eef86e943b764736f6c63430008180033","opcodes":"PUSH1 0x80 DUP1 PUSH1 0x40 MSTORE CALLVALUE PUSH2 0x4A JUMPI PUSH1 0x4 DUP1 SLOAD PUSH1 0x1 PUSH1 0x1 PUSH1 0xA8 SHL SUB NOT AND CALLER SWAP1 DUP2 OR PUSH1 0x1 PUSH1 0xA1 SHL OR SWAP1 SWAP2 SSTORE PUSH1 0x0 SWAP1 DUP2 MSTORE PUSH1 0x3 PUSH1 0x20 MSTORE PUSH1 0x40 SWAP1 KECCAK256 DUP1 SLOAD PUSH1 0xFF NOT AND PUSH1 0x1 OR SWAP1 SSTORE PUSH2 0x161A SWAP1 DUP2 PUSH2 0x50 DUP3 CODECOPY RETURN JUMPDEST PUSH1 0x0 DUP1 REVERT INVALID PUSH1 0x80 DUP1 PUSH1 0x40 MSTORE PUSH1 0x4 CALLDATASIZE LT ISZERO PUSH2 0x13 JUMPI PUSH1 0x0 DUP1 REVERT JUMPDEST PUSH1 0x0 CALLDATALOAD PUSH1 0xE0 SHR SWAP1 DUP2 PUSH4 0x13F269DD EQ PUSH2 0x12E6 JUMPI POP DUP1 PUSH4 0x27DEE37C EQ PUSH2 0x1295 JUMPI DUP1 PUSH4 0x34F01811 EQ PUSH2 0x11F1 JUMPI DUP1 PUSH4 0x37E59E36 EQ PUSH2 0x10A3 JUMPI DUP1 PUSH4 0x3FF34EB9 EQ PUSH2 0x101A JUMPI DUP1 PUSH4 0x40A141FF EQ PUSH2 0xFCC JUMPI DUP1 PUSH4 0x4D238C8E EQ PUSH2 0xF7B JUMPI DUP1 PUSH4 0x58714163 EQ PUSH2 0xF38 JUMPI DUP1 PUSH4 0x7B77044D EQ PUSH2 0x8D6 JUMPI DUP1 PUSH4 0x8DA5CB5B EQ PUSH2 0x8AD JUMPI DUP1 PUSH4 0xA78C52BB EQ PUSH2 0x824 JUMPI DUP1 PUSH4 0xB144D4A3 EQ PUSH2 0x35F JUMPI DUP1 PUSH4 0xBB66DAB2 EQ PUSH2 0x339 JUMPI DUP1 PUSH4 0xC181B273 EQ PUSH2 0x302 JUMPI PUSH4 0xEBEE03BB EQ PUSH2 0xC4 JUMPI PUSH1 0x0 DUP1 REVERT JUMPDEST CALLVALUE PUSH2 0x2FD JUMPI PUSH1 0x20 CALLDATASIZE PUSH1 0x3 NOT ADD SLT PUSH2 0x2FD JUMPI PUSH1 0x0 PUSH1 0xE0 PUSH1 0x40 MLOAD PUSH2 0xE5 DUP2 PUSH2 0x135C JUMP JUMPDEST DUP3 DUP2 MSTORE PUSH1 0x60 PUSH1 0x20 DUP3 ADD MSTORE DUP3 PUSH1 0x40 DUP3 ADD MSTORE DUP3 PUSH1 0x60 DUP3 ADD MSTORE DUP3 PUSH1 0x80 DUP3 ADD MSTORE DUP3 PUSH1 0xA0 DUP3 ADD MSTORE DUP3 PUSH1 0xC0 DUP3 ADD MSTORE ADD MSTORE PUSH1 0x0 PUSH1 0x80 PUSH1 0x40 MLOAD PUSH2 0x11F DUP2 PUSH2 0x1378 JUMP JUMPDEST PUSH1 0x60 DUP2 MSTORE PUSH1 0x60 PUSH1 0x20 DUP3 ADD MSTORE DUP3 PUSH1 0x40 DUP3 ADD MSTORE DUP3 PUSH1 0x60 DUP3 ADD MSTORE ADD MSTORE PUSH1 0x4 CALLDATALOAD PUSH1 0x0 MSTORE PUSH1 0x0 PUSH1 0x20 MSTORE PUSH1 0x40 PUSH1 0x0 KECCAK256 PUSH1 0xFF PUSH1 0x4 PUSH1 0x40 MLOAD SWAP3 PUSH2 0x159 DUP5 PUSH2 0x135C JUMP JUMPDEST DUP1 SLOAD DUP5 MSTORE PUSH2 0x169 PUSH1 0x1 DUP3 ADD PUSH2 0x13B4 JUMP JUMPDEST PUSH1 0x20 DUP6 ADD MSTORE PUSH1 0x2 DUP2 ADD SLOAD PUSH1 0x40 DUP6 ADD MSTORE PUSH1 0x3 DUP2 ADD SLOAD PUSH1 0x60 DUP6 ADD MSTORE ADD SLOAD PUSH1 0x1 DUP1 PUSH1 0xA0 SHL SUB DUP2 AND PUSH1 0x80 DUP5 ADD MSTORE PUSH4 0xFFFFFFFF DUP2 PUSH1 0xA0 SHR AND PUSH1 0xA0 DUP5 ADD MSTORE PUSH2 0xFFFF DUP2 PUSH1 0xC0 SHR AND PUSH1 0xC0 DUP5 ADD MSTORE PUSH1 0xD0 SHR AND ISZERO ISZERO PUSH1 0xE0 DUP3 ADD MSTORE PUSH1 0x4 CALLDATALOAD PUSH1 0x0 MSTORE PUSH1 0x1 PUSH1 0x20 MSTORE PUSH1 0x40 PUSH1 0x0 KECCAK256 SWAP1 PUSH1 0x3 PUSH1 0x40 MLOAD SWAP3 PUSH2 0x1D9 DUP5 PUSH2 0x1378 JUMP JUMPDEST PUSH2 0x1E2 DUP2 PUSH2 0x13B4 JUMP JUMPDEST DUP5 MSTORE PUSH2 0x1F0 PUSH1 0x1 DUP3 ADD PUSH2 0x13B4 JUMP JUMPDEST PUSH1 0x20 DUP6 ADD MSTORE PUSH2 0xFFFF PUSH1 0x2 DUP3 ADD SLOAD DUP2 DUP2 AND PUSH1 0x40 DUP8 ADD MSTORE PUSH1 0x10 SHR AND PUSH1 0x60 DUP6 ADD MSTORE ADD SLOAD PUSH1 0x80 DUP4 ADD MSTORE PUSH2 0x220 PUSH1 0x4 CALLDATALOAD PUSH2 0x1577 JUMP JUMPDEST SWAP2 PUSH1 0x40 MLOAD SWAP3 DUP4 SWAP3 PUSH1 0x60 DUP5 MSTORE DUP1 MLOAD PUSH1 0x60 DUP6 ADD MSTORE PUSH1 0xE0 PUSH2 0x24F PUSH1 0x20 DUP4 ADD MLOAD PUSH2 0x100 PUSH1 0x80 DUP9 ADD MSTORE PUSH2 0x160 DUP8 ADD SWAP1 PUSH2 0x1459 JUMP JUMPDEST SWAP2 PUSH1 0x40 DUP2 ADD MLOAD PUSH1 0xA0 DUP8 ADD MSTORE PUSH1 0x60 DUP2 ADD MLOAD PUSH1 0xC0 DUP8 ADD MSTORE PUSH1 0x1 DUP1 PUSH1 0xA0 SHL SUB PUSH1 0x80 DUP3 ADD MLOAD AND DUP3 DUP8 ADD MSTORE PUSH4 0xFFFFFFFF PUSH1 0xA0 DUP3 ADD MLOAD AND PUSH2 0x100 DUP8 ADD MSTORE PUSH2 0xFFFF PUSH1 0xC0 DUP3 ADD MLOAD AND PUSH2 0x120 DUP8 ADD MSTORE ADD MLOAD ISZERO ISZERO PUSH2 0x140 DUP6 ADD MSTORE DUP4 DUP2 SUB PUSH1 0x20 DUP6 ADD MSTORE PUSH1 0x80 DUP1 PUSH2 0x2D2 PUSH2 0x2C0 DUP7 MLOAD PUSH1 0xA0 DUP7 MSTORE PUSH1 0xA0 DUP7 ADD SWAP1 PUSH2 0x1459 JUMP JUMPDEST PUSH1 0x20 DUP8 ADD MLOAD DUP6 DUP3 SUB PUSH1 0x20 DUP8 ADD MSTORE PUSH2 0x1459 JUMP JUMPDEST SWAP5 PUSH2 0xFFFF PUSH1 0x40 DUP3 ADD MLOAD AND PUSH1 0x40 DUP6 ADD MSTORE PUSH2 0xFFFF PUSH1 0x60 DUP3 ADD MLOAD AND PUSH1 0x60 DUP6 ADD MSTORE ADD MLOAD SWAP2 ADD MSTORE PUSH1 0x40 DUP4 ADD MSTORE SUB SWAP1 RETURN JUMPDEST PUSH1 0x0 DUP1 REVERT JUMPDEST CALLVALUE PUSH2 0x2FD JUMPI PUSH1 0x20 CALLDATASIZE PUSH1 0x3 NOT ADD SLT PUSH2 0x2FD JUMPI PUSH1 0x4 CALLDATALOAD PUSH1 0x0 MSTORE PUSH1 0x0 PUSH1 0x20 MSTORE PUSH1 0x20 PUSH1 0xFF PUSH1 0x4 PUSH1 0x40 PUSH1 0x0 KECCAK256 ADD SLOAD PUSH1 0xD0 SHR AND PUSH1 0x40 MLOAD SWAP1 ISZERO ISZERO DUP2 MSTORE RETURN JUMPDEST CALLVALUE PUSH2 0x2FD JUMPI PUSH1 0x20 CALLDATASIZE PUSH1 0x3 NOT ADD SLT PUSH2 0x2FD JUMPI PUSH1 0x20 PUSH2 0x357 PUSH1 0x4 CALLDATALOAD PUSH2 0x1577 JUMP JUMPDEST PUSH1 0x40 MLOAD SWAP1 DUP2 MSTORE RETURN JUMPDEST CALLVALUE PUSH2 0x2FD JUMPI PUSH1 0x60 CALLDATASIZE PUSH1 0x3 NOT ADD SLT PUSH2 0x2FD JUMPI PUSH1 0x4 CALLDATALOAD PUSH1 0x24 SWAP1 DUP2 CALLDATALOAD SWAP2 PUSH1 0xFF DUP4 AND DUP1 SWAP4 SUB PUSH2 0x2FD JUMPI PUSH1 0x44 SWAP1 PUSH1 0x1 PUSH1 0x1 PUSH1 0x40 SHL SUB DUP3 CALLDATALOAD DUP2 DUP2 GT PUSH2 0x2FD JUMPI PUSH2 0x3A6 SWAP1 CALLDATASIZE SWAP1 PUSH1 0x4 ADD PUSH2 0x1499 JUMP JUMPDEST SWAP2 CALLER PUSH1 0x0 MSTORE PUSH1 0x20 SWAP5 PUSH1 0x3 DUP7 MSTORE PUSH1 0xFF PUSH1 0x40 PUSH1 0x0 KECCAK256 SLOAD AND ISZERO PUSH2 0x7E0 JUMPI DUP7 PUSH1 0x0 MSTORE PUSH1 0x0 DUP7 MSTORE PUSH4 0xFFFFFFFF SWAP1 DUP2 PUSH1 0x4 PUSH1 0x40 PUSH1 0x0 KECCAK256 ADD SLOAD PUSH1 0xA0 SHR AND ISZERO PUSH2 0x79C JUMPI PUSH1 0x64 SWAP1 PUSH1 0x64 DUP11 GT PUSH2 0x760 JUMPI PUSH1 0x0 DUP10 DUP2 MSTORE PUSH1 0x2 DUP10 MSTORE PUSH1 0x40 DUP2 KECCAK256 DUP1 SLOAD SWAP3 SWAP2 JUMPDEST DUP4 DUP2 LT PUSH2 0x708 JUMPI POP POP POP POP POP DUP7 PUSH1 0x0 MSTORE PUSH1 0x2 DUP7 MSTORE PUSH1 0x40 PUSH1 0x0 KECCAK256 SWAP4 PUSH1 0x40 MLOAD SWAP2 PUSH2 0x425 DUP4 PUSH2 0x1341 JUMP JUMPDEST CALLER DUP4 MSTORE PUSH2 0x443 DUP9 DUP5 ADD SWAP6 DUP3 TIMESTAMP AND DUP8 MSTORE PUSH1 0x40 DUP6 ADD SWAP4 DUP13 DUP6 MSTORE CALLDATASIZE SWAP2 PUSH2 0x1531 JUMP JUMPDEST SWAP5 PUSH1 0x60 DUP5 ADD SWAP6 DUP7 MSTORE DUP7 SLOAD PUSH9 0x10000000000000000 DUP2 LT ISZERO PUSH2 0x6F3 JUMPI PUSH2 0x46F SWAP1 PUSH1 0x1 SWAP9 DUP10 DUP3 ADD DUP2 SSTORE PUSH2 0x14C6 JUMP JUMPDEST SWAP5 SWAP1 SWAP5 PUSH2 0x6DE JUMPI MLOAD DUP5 SLOAD SWAP2 MLOAD SWAP4 MLOAD PUSH1 0xFF PUSH1 0xC0 SHL PUSH1 0xC0 SWAP2 SWAP1 SWAP2 SHL AND SWAP3 SWAP1 SWAP4 AND PUSH1 0xA0 SHL PUSH4 0xFFFFFFFF PUSH1 0xA0 SHL AND PUSH1 0x1 PUSH1 0x1 PUSH1 0xA0 SHL SUB SWAP1 SWAP4 AND PUSH1 0x1 PUSH1 0x1 PUSH1 0xC8 SHL SUB NOT SWAP1 SWAP2 AND OR SWAP2 SWAP1 SWAP2 OR OR DUP2 SSTORE SWAP2 MLOAD DUP1 MLOAD SWAP3 DUP5 ADD SWAP3 SWAP2 DUP3 GT PUSH2 0x6C9 JUMPI DUP2 SWAP1 PUSH2 0x4D3 DUP5 SLOAD PUSH2 0x1307 JUMP JUMPDEST PUSH1 0x1F DUP2 GT PUSH2 0x676 JUMPI JUMPDEST POP DUP7 SWAP1 PUSH1 0x1F DUP4 GT PUSH1 0x1 EQ PUSH2 0x613 JUMPI PUSH1 0x0 SWAP3 PUSH2 0x608 JUMPI JUMPDEST POP POP PUSH1 0x0 NOT PUSH1 0x3 DUP4 SWAP1 SHL SHR NOT AND SWAP1 DUP4 SHL OR SWAP1 SSTORE JUMPDEST DUP4 PUSH1 0x0 MSTORE PUSH1 0x0 DUP4 MSTORE PUSH1 0x4 PUSH1 0x40 PUSH1 0x0 KECCAK256 ADD SWAP1 PUSH2 0xFFFF SWAP3 DUP4 DUP4 SLOAD PUSH1 0xC0 SHR AND SWAP1 DUP5 DUP3 EQ PUSH2 0x5F4 JUMPI POP DUP3 SLOAD PUSH2 0xFFFF PUSH1 0xC0 SHL NOT AND SWAP2 ADD PUSH1 0xC0 SHL PUSH2 0xFFFF PUSH1 0xC0 SHL AND OR SWAP1 SSTORE PUSH32 0x9A3F0C0B287BDE0EBEA0BE11740769ECA2FEA70883EF1BD79EAB05F21C062C6A SWAP2 SWAP1 DUP4 PUSH1 0x0 MSTORE PUSH1 0x0 DUP3 MSTORE PUSH1 0x4 PUSH1 0x40 PUSH1 0x0 KECCAK256 ADD SLOAD PUSH1 0xC0 SHR AND PUSH1 0xFF PUSH1 0x4 SLOAD PUSH1 0xA0 SHR AND GT ISZERO PUSH2 0x597 JUMPI JUMPDEST PUSH1 0x40 MLOAD SWAP4 DUP5 MSTORE CALLER SWAP4 LOG3 STOP JUMPDEST PUSH1 0x46 PUSH2 0x5A2 DUP5 PUSH2 0x1577 JUMP JUMPDEST LT PUSH2 0x58C JUMPI PUSH1 0x0 DUP4 DUP2 MSTORE DUP1 DUP3 MSTORE PUSH1 0x40 DUP2 KECCAK256 PUSH1 0x4 ADD DUP1 SLOAD PUSH1 0xFF PUSH1 0xD0 SHL NOT AND PUSH1 0x1 PUSH1 0xD0 SHL OR SWAP1 SSTORE CALLER SWAP1 DUP5 SWAP1 PUSH32 0xCD88BD92CBB653CB16EEA4A15037DDC18C0B33CF33CB092A44AA993B0684B5A5 SWAP1 DUP1 LOG3 PUSH2 0x58C JUMP JUMPDEST PUSH4 0x4E487B71 PUSH1 0xE0 SHL PUSH1 0x0 SWAP1 DUP2 MSTORE PUSH1 0x11 PUSH1 0x4 MSTORE REVERT JUMPDEST ADD MLOAD SWAP1 POP DUP9 DUP1 PUSH2 0x4F2 JUMP JUMPDEST SWAP1 DUP6 SWAP4 POP PUSH1 0x1F NOT DUP4 AND SWAP2 DUP6 PUSH1 0x0 MSTORE DUP9 PUSH1 0x0 KECCAK256 SWAP3 PUSH1 0x0 JUMPDEST DUP11 DUP3 DUP3 LT PUSH2 0x660 JUMPI POP POP DUP5 GT PUSH2 0x647 JUMPI JUMPDEST POP POP POP DUP2 SHL ADD SWAP1 SSTORE PUSH2 0x506 JUMP JUMPDEST ADD MLOAD PUSH1 0x0 NOT PUSH1 0xF8 DUP5 PUSH1 0x3 SHL AND SHR NOT AND SWAP1 SSTORE DUP9 DUP1 DUP1 PUSH2 0x63A JUMP JUMPDEST DUP4 DUP6 ADD MLOAD DUP7 SSTORE DUP10 SWAP8 SWAP1 SWAP6 ADD SWAP5 SWAP4 DUP5 ADD SWAP4 ADD PUSH2 0x629 JUMP JUMPDEST SWAP1 SWAP2 POP DUP4 PUSH1 0x0 MSTORE DUP7 PUSH1 0x0 KECCAK256 PUSH1 0x1F DUP5 ADD PUSH1 0x5 SHR DUP2 ADD SWAP2 DUP9 DUP6 LT PUSH2 0x6BF JUMPI JUMPDEST DUP5 SWAP4 SWAP3 SWAP2 PUSH1 0x1F DUP9 SWAP3 ADD PUSH1 0x5 SHR ADD SWAP2 JUMPDEST DUP3 DUP2 LT PUSH2 0x6B0 JUMPI POP POP PUSH2 0x4DC JUMP JUMPDEST PUSH1 0x0 DUP2 SSTORE DUP6 SWAP5 POP DUP8 SWAP2 ADD PUSH2 0x6A2 JUMP JUMPDEST SWAP1 SWAP2 POP DUP2 SWAP1 PUSH2 0x693 JUMP JUMPDEST DUP5 PUSH4 0x4E487B71 PUSH1 0xE0 SHL PUSH1 0x0 MSTORE PUSH1 0x41 PUSH1 0x4 MSTORE PUSH1 0x0 REVERT JUMPDEST DUP9 PUSH4 0x4E487B71 PUSH1 0xE0 SHL PUSH1 0x0 MSTORE PUSH1 0x0 PUSH1 0x4 MSTORE PUSH1 0x0 REVERT JUMPDEST DUP9 PUSH4 0x4E487B71 PUSH1 0xE0 SHL PUSH1 0x0 MSTORE PUSH1 0x41 PUSH1 0x4 MSTORE PUSH1 0x0 REVERT JUMPDEST PUSH2 0x712 DUP2 DUP4 PUSH2 0x14C6 JUMP JUMPDEST POP SLOAD PUSH1 0x1 PUSH1 0x1 PUSH1 0xA0 SHL SUB AND CALLER EQ PUSH2 0x72B JUMPI PUSH1 0x1 ADD PUSH2 0x3FE JUMP JUMPDEST PUSH1 0x40 MLOAD PUSH3 0x461BCD PUSH1 0xE5 SHL DUP2 MSTORE PUSH1 0x4 DUP2 ADD DUP13 SWAP1 MSTORE PUSH1 0x10 DUP2 DUP13 ADD MSTORE PUSH16 0x105B1C9958591E48185D1D195CDD1959 PUSH1 0x82 SHL DUP2 DUP6 ADD MSTORE DUP6 SWAP1 REVERT JUMPDEST PUSH1 0x40 MLOAD PUSH3 0x461BCD PUSH1 0xE5 SHL DUP2 MSTORE PUSH1 0x4 DUP2 ADD DUP10 SWAP1 MSTORE PUSH1 0x15 DUP2 DUP10 ADD MSTORE PUSH21 0x5175616C697479206D75737420626520302D31303 PUSH1 0x5C SHL PUSH1 0x44 DUP3 ADD MSTORE PUSH1 0x64 SWAP1 REVERT JUMPDEST PUSH1 0x40 MLOAD PUSH3 0x461BCD PUSH1 0xE5 SHL DUP2 MSTORE PUSH1 0x4 DUP2 ADD DUP9 SWAP1 MSTORE PUSH1 0x19 DUP2 DUP9 ADD MSTORE PUSH32 0x457870657269656E636520646F6573206E6F7420657869737400000000000000 PUSH1 0x44 DUP3 ADD MSTORE PUSH1 0x64 SWAP1 REVERT JUMPDEST PUSH1 0x40 MLOAD PUSH3 0x461BCD PUSH1 0xE5 SHL DUP2 MSTORE PUSH1 0x4 DUP2 ADD DUP8 SWAP1 MSTORE PUSH1 0x18 DUP2 DUP8 ADD MSTORE PUSH32 0x4E6F7420617574686F72697A65642076616C696461746F720000000000000000 PUSH1 0x44 DUP3 ADD MSTORE PUSH1 0x64 SWAP1 REVERT JUMPDEST CALLVALUE PUSH2 0x2FD JUMPI PUSH1 0x40 CALLDATASIZE PUSH1 0x3 NOT ADD SLT PUSH2 0x2FD JUMPI PUSH1 0x24 CALLDATALOAD PUSH1 0x4 CALLDATALOAD PUSH1 0x0 MSTORE PUSH1 0x2 PUSH1 0x20 MSTORE PUSH1 0x40 PUSH1 0x0 KECCAK256 DUP1 SLOAD DUP3 LT ISZERO PUSH2 0x2FD JUMPI PUSH1 0xFF SWAP2 PUSH2 0x85D SWAP2 PUSH2 0x14C6 JUMP JUMPDEST POP PUSH2 0x8A9 PUSH2 0x86F PUSH1 0x1 DUP4 SLOAD SWAP4 ADD PUSH2 0x13B4 JUMP JUMPDEST PUSH1 0x40 MLOAD SWAP4 DUP5 SWAP4 PUSH1 0x1 DUP1 PUSH1 0xA0 SHL SUB DUP2 AND DUP6 MSTORE PUSH4 0xFFFFFFFF DUP2 PUSH1 0xA0 SHR AND PUSH1 0x20 DUP7 ADD MSTORE PUSH1 0xC0 SHR AND PUSH1 0x40 DUP5 ADD MSTORE PUSH1 0x80 PUSH1 0x60 DUP5 ADD MSTORE PUSH1 0x80 DUP4 ADD SWAP1 PUSH2 0x1459 JUMP JUMPDEST SUB SWAP1 RETURN JUMPDEST CALLVALUE PUSH2 0x2FD JUMPI PUSH1 0x0 CALLDATASIZE PUSH1 0x3 NOT ADD SLT PUSH2 0x2FD JUMPI PUSH1 0x4 SLOAD PUSH1 0x40 MLOAD PUSH1 0x1 PUSH1 0x1 PUSH1 0xA0 SHL SUB SWAP1 SWAP2 AND DUP2 MSTORE PUSH1 0x20 SWAP1 RETURN JUMPDEST CALLVALUE PUSH2 0x2FD JUMPI PUSH2 0x120 CALLDATASIZE PUSH1 0x3 NOT ADD SLT PUSH2 0x2FD JUMPI PUSH1 0x24 CALLDATALOAD PUSH1 0x1 PUSH1 0x1 PUSH1 0x40 SHL SUB DUP2 GT PUSH2 0x2FD JUMPI PUSH2 0x907 SWAP1 CALLDATASIZE SWAP1 PUSH1 0x4 ADD PUSH2 0x1499 JUMP JUMPDEST PUSH1 0x84 CALLDATALOAD PUSH1 0x1 PUSH1 0x1 PUSH1 0x40 SHL SUB DUP2 GT PUSH2 0x2FD JUMPI PUSH2 0x926 SWAP1 CALLDATASIZE SWAP1 PUSH1 0x4 ADD PUSH2 0x1499 JUMP JUMPDEST SWAP1 PUSH1 0xA4 CALLDATALOAD PUSH1 0x1 PUSH1 0x1 PUSH1 0x40 SHL SUB DUP2 GT PUSH2 0x2FD JUMPI PUSH2 0x946 SWAP1 CALLDATASIZE SWAP1 PUSH1 0x4 ADD PUSH2 0x1499 JUMP JUMPDEST SWAP1 PUSH1 0xC4 CALLDATALOAD SWAP2 PUSH2 0xFFFF DUP4 AND DUP4 SUB PUSH2 0x2FD JUMPI PUSH1 0xE4 CALLDATALOAD SWAP4 PUSH2 0xFFFF DUP6 AND DUP6 SUB PUSH2 0x2FD JUMPI PUSH1 0x4 CALLDATALOAD PUSH1 0x0 MSTORE PUSH1 0x0 PUSH1 0x20 MSTORE PUSH4 0xFFFFFFFF PUSH1 0x4 PUSH1 0x40 PUSH1 0x0 KECCAK256 ADD SLOAD PUSH1 0xA0 SHR AND PUSH2 0xEF3 JUMPI PUSH1 0x40 MLOAD PUSH2 0x992 DUP2 PUSH2 0x135C JUMP JUMPDEST PUSH1 0x4 CALLDATALOAD DUP2 MSTORE PUSH2 0x9A2 CALLDATASIZE DUP10 DUP12 PUSH2 0x1531 JUMP JUMPDEST PUSH1 0x20 DUP3 ADD MSTORE PUSH1 0x44 CALLDATALOAD PUSH1 0x40 DUP3 ADD MSTORE PUSH1 0x64 CALLDATALOAD PUSH1 0x60 DUP3 ADD MSTORE CALLER PUSH1 0x80 DUP3 ADD MSTORE PUSH4 0xFFFFFFFF TIMESTAMP AND PUSH1 0xA0 DUP3 ADD MSTORE PUSH1 0x0 PUSH1 0xC0 DUP3 ADD MSTORE PUSH1 0x0 PUSH1 0xE0 DUP3 ADD MSTORE PUSH1 0x4 CALLDATALOAD PUSH1 0x0 MSTORE PUSH1 0x0 PUSH1 0x20 MSTORE PUSH1 0x40 PUSH1 0x0 KECCAK256 DUP2 MLOAD DUP2 SSTORE PUSH1 0x20 DUP3 ADD MLOAD DUP1 MLOAD SWAP1 PUSH1 0x1 PUSH1 0x1 PUSH1 0x40 SHL SUB DUP3 GT PUSH2 0xD3F JUMPI PUSH2 0xA0E PUSH1 0x1 DUP5 ADD SLOAD PUSH2 0x1307 JUMP JUMPDEST PUSH1 0x1F DUP2 GT PUSH2 0xEAC JUMPI JUMPDEST POP PUSH1 0x20 SWAP1 PUSH1 0x1F DUP4 GT PUSH1 0x1 EQ PUSH2 0xE27 JUMPI SWAP4 PUSH1 0xE0 PUSH1 0x4 PUSH2 0xFFFF SWAP12 SWAP11 SWAP9 SWAP6 DUP6 PUSH2 0xAFA SWAP7 PUSH2 0xB03 SWAP11 SWAP7 DUP16 SWAP14 SWAP11 PUSH1 0x0 SWAP3 PUSH2 0xE1C JUMPI JUMPDEST POP POP DUP2 PUSH1 0x1 SHL SWAP2 PUSH1 0x0 NOT SWAP1 PUSH1 0x3 SHL SHR NOT AND OR PUSH1 0x1 DUP3 ADD SSTORE JUMPDEST PUSH1 0x40 DUP5 ADD MLOAD PUSH1 0x2 DUP3 ADD SSTORE PUSH1 0x60 DUP5 ADD MLOAD PUSH1 0x3 DUP3 ADD SSTORE PUSH1 0x80 DUP5 ADD MLOAD SWAP2 ADD DUP1 SLOAD PUSH1 0xA0 DUP1 DUP7 ADD MLOAD PUSH4 0xFFFFFFFF PUSH1 0xA0 SHL SWAP2 SHL AND PUSH1 0x1 PUSH1 0x1 PUSH1 0xA0 SHL SUB SWAP1 SWAP4 AND PUSH1 0x1 PUSH1 0x1 PUSH1 0xC0 SHL SUB NOT SWAP1 SWAP2 AND OR SWAP2 SWAP1 SWAP2 OR DUP2 SSTORE SWAP2 PUSH1 0xC0 DUP2 DUP2 ADD MLOAD DUP5 SLOAD PUSH2 0xFFFF PUSH1 0xC0 SHL NOT AND SWAP1 DUP13 AND SWAP1 SWAP2 SHL PUSH2 0xFFFF PUSH1 0xC0 SHL AND OR DUP4 SSTORE ADD MLOAD DUP2 SLOAD PUSH1 0xFF PUSH1 0xD0 SHL NOT AND SWAP1 ISZERO ISZERO PUSH1 0xD0 SHL PUSH1 0xFF PUSH1 0xD0 SHL AND OR SWAP1 SSTORE PUSH1 0x40 MLOAD SWAP10 PUSH2 0xAF3 DUP12 PUSH2 0x1378 JUMP JUMPDEST CALLDATASIZE SWAP2 PUSH2 0x1531 JUMP JUMPDEST DUP9 MSTORE CALLDATASIZE SWAP2 PUSH2 0x1531 JUMP JUMPDEST PUSH1 0x20 DUP7 ADD MSTORE AND PUSH1 0x40 DUP5 ADD MSTORE AND PUSH1 0x60 DUP3 ADD MSTORE PUSH2 0x104 CALLDATALOAD PUSH1 0x80 DUP3 ADD MSTORE PUSH1 0x4 CALLDATALOAD PUSH1 0x0 MSTORE PUSH1 0x1 PUSH1 0x20 MSTORE PUSH1 0x40 PUSH1 0x0 KECCAK256 SWAP1 DUP1 MLOAD DUP1 MLOAD SWAP1 PUSH1 0x1 PUSH1 0x1 PUSH1 0x40 SHL SUB DUP3 GT PUSH2 0xD3F JUMPI DUP2 SWAP1 PUSH2 0xB4D DUP6 SLOAD PUSH2 0x1307 JUMP JUMPDEST PUSH1 0x1F DUP2 GT PUSH2 0xDCC JUMPI JUMPDEST POP PUSH1 0x20 SWAP1 PUSH1 0x1F DUP4 GT PUSH1 0x1 EQ PUSH2 0xD60 JUMPI PUSH1 0x0 SWAP3 PUSH2 0xD55 JUMPI JUMPDEST POP POP DUP2 PUSH1 0x1 SHL SWAP2 PUSH1 0x0 NOT SWAP1 PUSH1 0x3 SHL SHR NOT AND OR DUP3 SSTORE JUMPDEST PUSH1 0x20 DUP2 ADD MLOAD DUP1 MLOAD SWAP1 PUSH1 0x1 PUSH1 0x1 PUSH1 0x40 SHL SUB DUP3 GT PUSH2 0xD3F JUMPI PUSH2 0xBA5 PUSH1 0x1 DUP6 ADD SLOAD PUSH2 0x1307 JUMP JUMPDEST PUSH1 0x1F DUP2 GT PUSH2 0xCF8 JUMPI JUMPDEST POP PUSH1 0x20 SWAP1 PUSH1 0x1F DUP4 GT PUSH1 0x1 EQ PUSH2 0xC84 JUMPI SWAP2 DUP1 PUSH1 0x3 SWAP5 SWAP3 PUSH1 0x80 SWAP5 PUSH1 0x0 SWAP3 PUSH2 0xC79 JUMPI JUMPDEST POP POP PUSH1 0x0 NOT DUP3 DUP7 SHL SHR NOT AND PUSH1 0x1 SWAP2 DUP3 SHL OR SWAP1 DUP6 ADD SSTORE JUMPDEST PUSH1 0x2 DUP5 ADD PUSH2 0xFFFF PUSH1 0x40 DUP4 ADD MLOAD AND DUP2 SLOAD SWAP1 PUSH4 0xFFFF0000 PUSH1 0x60 DUP6 ADD MLOAD PUSH1 0x10 SHL AND SWAP2 PUSH4 0xFFFFFFFF NOT AND OR OR SWAP1 SSTORE ADD MLOAD SWAP2 ADD SSTORE DUP1 PUSH1 0x40 MLOAD SWAP3 PUSH1 0x60 DUP5 MSTORE DUP2 PUSH1 0x60 DUP6 ADD MSTORE PUSH1 0x80 DUP5 ADD CALLDATACOPY PUSH1 0x0 PUSH1 0x80 DUP3 DUP5 ADD ADD MSTORE PUSH1 0x44 CALLDATALOAD PUSH1 0x20 DUP4 ADD MSTORE PUSH1 0x64 CALLDATALOAD PUSH1 0x40 DUP4 ADD MSTORE PUSH32 0xC8643348AEC2503F08AA01288744BB383830B348039B88A434AE1D5278DDC696 CALLER SWAP3 PUSH1 0x80 DUP2 PUSH1 0x4 CALLDATALOAD SWAP5 PUSH1 0x1F DUP1 NOT SWAP2 ADD AND DUP2 ADD SUB ADD SWAP1 LOG3 STOP JUMPDEST ADD MLOAD SWAP1 POP DUP9 DUP1 PUSH2 0xBCE JUMP JUMPDEST SWAP1 PUSH1 0x1 DUP6 ADD PUSH1 0x0 MSTORE PUSH1 0x20 PUSH1 0x0 KECCAK256 SWAP2 PUSH1 0x0 JUMPDEST PUSH1 0x1F NOT DUP6 AND DUP2 LT PUSH2 0xCE0 JUMPI POP SWAP3 PUSH1 0x3 SWAP5 SWAP3 PUSH1 0x1 SWAP3 PUSH1 0x80 SWAP6 DUP4 PUSH1 0x1F NOT DUP2 AND LT PUSH2 0xCC8 JUMPI JUMPDEST POP POP POP DUP2 SHL ADD PUSH1 0x1 DUP6 ADD SSTORE PUSH2 0xBE4 JUMP JUMPDEST ADD MLOAD PUSH1 0x0 NOT DUP4 DUP9 SHL PUSH1 0xF8 AND SHR NOT AND SWAP1 SSTORE DUP9 DUP1 DUP1 PUSH2 0xCB8 JUMP JUMPDEST SWAP2 SWAP3 PUSH1 0x20 PUSH1 0x1 DUP2 SWAP3 DUP7 DUP6 ADD MLOAD DUP2 SSTORE ADD SWAP5 ADD SWAP3 ADD PUSH2 0xC95 JUMP JUMPDEST PUSH1 0x1 DUP6 ADD PUSH1 0x0 MSTORE PUSH1 0x20 PUSH1 0x0 KECCAK256 PUSH1 0x1F DUP5 ADD PUSH1 0x5 SHR DUP2 ADD PUSH1 0x20 DUP6 LT PUSH2 0xD38 JUMPI JUMPDEST PUSH1 0x1F DUP4 ADD PUSH1 0x5 SHR DUP3 ADD DUP2 LT PUSH2 0xD2C JUMPI POP POP PUSH2 0xBAE JUMP JUMPDEST PUSH1 0x0 DUP2 SSTORE PUSH1 0x1 ADD PUSH2 0xD16 JUMP JUMPDEST POP DUP1 PUSH2 0xD16 JUMP JUMPDEST PUSH4 0x4E487B71 PUSH1 0xE0 SHL PUSH1 0x0 MSTORE PUSH1 0x41 PUSH1 0x4 MSTORE PUSH1 0x24 PUSH1 0x0 REVERT JUMPDEST ADD MLOAD SWAP1 POP DUP7 DUP1 PUSH2 0xB6D JUMP JUMPDEST SWAP3 POP DUP5 PUSH1 0x0 MSTORE PUSH1 0x20 PUSH1 0x0 KECCAK256 SWAP1 PUSH1 0x0 SWAP4 JUMPDEST PUSH1 0x1F NOT DUP5 AND DUP6 LT PUSH2 0xDB1 JUMPI PUSH1 0x1 SWAP5 POP DUP4 PUSH1 0x1F NOT DUP2 AND LT PUSH2 0xD98 JUMPI JUMPDEST POP POP POP DUP2 SHL ADD DUP3 SSTORE PUSH2 0xB82 JUMP JUMPDEST ADD MLOAD PUSH1 0x0 NOT PUSH1 0xF8 DUP5 PUSH1 0x3 SHL AND SHR NOT AND SWAP1 SSTORE DUP7 DUP1 DUP1 PUSH2 0xD8B JUMP JUMPDEST DUP2 DUP2 ADD MLOAD DUP4 SSTORE PUSH1 0x20 SWAP5 DUP6 ADD SWAP5 PUSH1 0x1 SWAP1 SWAP4 ADD SWAP3 SWAP1 SWAP2 ADD SWAP1 PUSH2 0xD70 JUMP JUMPDEST SWAP1 SWAP2 POP DUP5 PUSH1 0x0 MSTORE PUSH1 0x20 PUSH1 0x0 KECCAK256 PUSH1 0x1F DUP5 ADD PUSH1 0x5 SHR DUP2 ADD PUSH1 0x20 DUP6 LT PUSH2 0xE15 JUMPI JUMPDEST SWAP1 DUP5 SWAP4 SWAP3 SWAP2 JUMPDEST PUSH1 0x1F DUP4 ADD PUSH1 0x5 SHR DUP3 ADD DUP2 LT PUSH2 0xE06 JUMPI POP POP PUSH2 0xB56 JUMP JUMPDEST PUSH1 0x0 DUP2 SSTORE DUP6 SWAP5 POP PUSH1 0x1 ADD PUSH2 0xDF0 JUMP JUMPDEST POP DUP1 PUSH2 0xDEA JUMP JUMPDEST ADD MLOAD SWAP1 POP CODESIZE DUP1 PUSH2 0xA47 JUMP JUMPDEST SWAP1 PUSH1 0x1 DUP5 ADD PUSH1 0x0 MSTORE PUSH1 0x20 PUSH1 0x0 KECCAK256 SWAP2 PUSH1 0x0 JUMPDEST PUSH1 0x1F NOT DUP6 AND DUP2 LT PUSH2 0xE94 JUMPI POP PUSH1 0x4 PUSH2 0xFFFF SWAP12 SWAP11 SWAP9 SWAP6 PUSH1 0x1 DUP7 PUSH2 0xB03 SWAP11 SWAP7 DUP16 SWAP14 SWAP11 SWAP7 PUSH1 0xE0 SWAP7 PUSH2 0xAFA SWAP11 PUSH1 0x1F NOT DUP2 AND LT PUSH2 0xE7B JUMPI JUMPDEST POP POP POP DUP2 SHL ADD PUSH1 0x1 DUP3 ADD SSTORE PUSH2 0xA5F JUMP JUMPDEST ADD MLOAD PUSH1 0x0 NOT PUSH1 0xF8 DUP5 PUSH1 0x3 SHL AND SHR NOT AND SWAP1 SSTORE CODESIZE DUP1 DUP1 PUSH2 0xE6B JUMP JUMPDEST SWAP2 SWAP3 PUSH1 0x20 PUSH1 0x1 DUP2 SWAP3 DUP7 DUP6 ADD MLOAD DUP2 SSTORE ADD SWAP5 ADD SWAP3 ADD PUSH2 0xE38 JUMP JUMPDEST PUSH1 0x1 DUP5 ADD PUSH1 0x0 MSTORE PUSH1 0x20 PUSH1 0x0 KECCAK256 PUSH1 0x1F DUP5 ADD PUSH1 0x5 SHR DUP2 ADD PUSH1 0x20 DUP6 LT PUSH2 0xEEC JUMPI JUMPDEST PUSH1 0x1F DUP4 ADD PUSH1 0x5 SHR DUP3 ADD DUP2 LT PUSH2 0xEE0 JUMPI POP POP PUSH2 0xA17 JUMP JUMPDEST PUSH1 0x0 DUP2 SSTORE PUSH1 0x1 ADD PUSH2 0xECA JUMP JUMPDEST POP DUP1 PUSH2 0xECA JUMP JUMPDEST PUSH1 0x40 MLOAD PUSH3 0x461BCD PUSH1 0xE5 SHL DUP2 MSTORE PUSH1 0x20 PUSH1 0x4 DUP3 ADD MSTORE PUSH1 0x19 PUSH1 0x24 DUP3 ADD MSTORE PUSH32 0x457870657269656E636520616C72656164792065786973747300000000000000 PUSH1 0x44 DUP3 ADD MSTORE PUSH1 0x64 SWAP1 REVERT JUMPDEST CALLVALUE PUSH2 0x2FD JUMPI PUSH1 0x20 CALLDATASIZE PUSH1 0x3 NOT ADD SLT PUSH2 0x2FD JUMPI PUSH1 0x4 CALLDATALOAD PUSH1 0x1 PUSH1 0x1 PUSH1 0xA0 SHL SUB DUP2 AND SWAP1 DUP2 SWAP1 SUB PUSH2 0x2FD JUMPI PUSH1 0x0 MSTORE PUSH1 0x3 PUSH1 0x20 MSTORE PUSH1 0x20 PUSH1 0xFF PUSH1 0x40 PUSH1 0x0 KECCAK256 SLOAD AND PUSH1 0x40 MLOAD SWAP1 ISZERO ISZERO DUP2 MSTORE RETURN JUMPDEST CALLVALUE PUSH2 0x2FD JUMPI PUSH1 0x20 CALLDATASIZE PUSH1 0x3 NOT ADD SLT PUSH2 0x2FD JUMPI PUSH1 0x4 CALLDATALOAD PUSH1 0x1 PUSH1 0x1 PUSH1 0xA0 SHL SUB DUP2 DUP2 AND SWAP2 DUP3 SWAP1 SUB PUSH2 0x2FD JUMPI PUSH2 0xFB1 SWAP1 PUSH1 0x4 SLOAD AND CALLER EQ PUSH2 0x14F8 JUMP JUMPDEST PUSH1 0x0 SWAP1 DUP2 MSTORE PUSH1 0x3 PUSH1 0x20 MSTORE PUSH1 0x40 SWAP1 KECCAK256 DUP1 SLOAD PUSH1 0xFF NOT AND PUSH1 0x1 OR SWAP1 SSTORE STOP JUMPDEST CALLVALUE PUSH2 0x2FD JUMPI PUSH1 0x20 CALLDATASIZE PUSH1 0x3 NOT ADD SLT PUSH2 0x2FD JUMPI PUSH1 0x4 CALLDATALOAD PUSH1 0x1 PUSH1 0x1 PUSH1 0xA0 SHL SUB DUP2 DUP2 AND SWAP2 DUP3 SWAP1 SUB PUSH2 0x2FD JUMPI PUSH2 0x1002 SWAP1 PUSH1 0x4 SLOAD AND CALLER EQ PUSH2 0x14F8 JUMP JUMPDEST PUSH1 0x0 SWAP1 DUP2 MSTORE PUSH1 0x3 PUSH1 0x20 MSTORE PUSH1 0x40 SWAP1 KECCAK256 DUP1 SLOAD PUSH1 0xFF NOT AND SWAP1 SSTORE STOP JUMPDEST CALLVALUE PUSH2 0x2FD JUMPI PUSH1 0x20 CALLDATASIZE PUSH1 0x3 NOT ADD SLT PUSH2 0x2FD JUMPI PUSH1 0x4 CALLDATALOAD PUSH1 0x0 MSTORE PUSH1 0x1 PUSH1 0x20 MSTORE PUSH2 0x107A PUSH1 0x40 PUSH1 0x0 KECCAK256 PUSH2 0x1047 DUP2 PUSH2 0x13B4 JUMP JUMPDEST SWAP1 PUSH2 0x1054 PUSH1 0x1 DUP3 ADD PUSH2 0x13B4 JUMP JUMPDEST PUSH1 0x2 DUP3 ADD SLOAD SWAP2 PUSH2 0x1088 PUSH1 0x3 PUSH2 0xFFFF SWAP3 ADD SLOAD SWAP3 PUSH1 0x40 MLOAD SWAP7 DUP8 SWAP7 PUSH1 0xA0 DUP9 MSTORE PUSH1 0xA0 DUP9 ADD SWAP1 PUSH2 0x1459 JUMP JUMPDEST SWAP1 DUP7 DUP3 SUB PUSH1 0x20 DUP9 ADD MSTORE PUSH2 0x1459 JUMP JUMPDEST SWAP3 DUP2 DUP2 AND PUSH1 0x40 DUP7 ADD MSTORE PUSH1 0x10 SHR AND PUSH1 0x60 DUP5 ADD MSTORE PUSH1 0x80 DUP4 ADD MSTORE SUB SWAP1 RETURN JUMPDEST CALLVALUE PUSH2 0x2FD JUMPI PUSH1 0x20 DUP1 PUSH1 0x3 NOT CALLDATASIZE ADD SLT PUSH2 0x2FD JUMPI PUSH1 0x4 CALLDATALOAD PUSH1 0x0 MSTORE PUSH1 0x2 DUP1 DUP3 MSTORE PUSH1 0x40 PUSH1 0x0 KECCAK256 DUP1 SLOAD PUSH1 0x1 PUSH1 0x1 PUSH1 0x40 SHL SUB DUP2 GT PUSH2 0xD3F JUMPI PUSH1 0x40 MLOAD SWAP4 SWAP3 PUSH2 0x10EA PUSH1 0x5 DUP4 SWAP1 SHL DUP6 ADD DUP7 PUSH2 0x1393 JUMP JUMPDEST DUP2 DUP6 MSTORE DUP4 DUP6 ADD DUP1 SWAP4 PUSH1 0x0 MSTORE DUP5 PUSH1 0x0 KECCAK256 PUSH1 0x0 SWAP2 JUMPDEST DUP5 DUP4 LT PUSH2 0x1197 JUMPI PUSH1 0x40 DUP1 MLOAD DUP9 DUP2 MSTORE DUP10 MLOAD DUP2 DUP11 ADD DUP2 SWAP1 MSTORE PUSH1 0x0 SWAP3 PUSH1 0x5 DUP3 SWAP1 SHL DUP4 ADD DUP2 ADD SWAP2 DUP11 SWAP2 DUP13 SWAP1 DUP6 ADD JUMPDEST DUP3 DUP8 LT PUSH2 0x1134 JUMPI DUP6 DUP6 SUB DUP7 RETURN JUMPDEST SWAP1 SWAP2 SWAP3 SWAP4 DUP3 DUP1 PUSH2 0x1187 PUSH1 0x1 SWAP4 PUSH1 0x3F NOT DUP11 DUP3 SUB ADD DUP7 MSTORE DUP9 MLOAD SWAP1 PUSH1 0x80 SWAP1 DUP7 DUP1 PUSH1 0xA0 SHL SUB DUP4 MLOAD AND DUP2 MSTORE PUSH4 0xFFFFFFFF DUP6 DUP5 ADD MLOAD AND DUP6 DUP3 ADD MSTORE PUSH1 0xFF PUSH1 0x40 DUP5 ADD MLOAD AND PUSH1 0x40 DUP3 ADD MSTORE DUP2 PUSH1 0x60 DUP1 SWAP5 ADD MLOAD SWAP4 DUP3 ADD MSTORE ADD SWAP1 PUSH2 0x1459 JUMP JUMPDEST SWAP7 ADD SWAP3 ADD SWAP7 ADD SWAP6 SWAP3 SWAP2 SWAP1 SWAP3 PUSH2 0x1127 JUMP JUMPDEST DUP4 DUP8 PUSH1 0x1 SWAP3 PUSH1 0x40 SWAP11 SWAP10 SWAP11 MLOAD PUSH2 0x11AB DUP2 PUSH2 0x1341 JUMP JUMPDEST PUSH1 0xFF DUP7 SLOAD DUP7 DUP1 PUSH1 0xA0 SHL SUB DUP2 AND DUP4 MSTORE PUSH4 0xFFFFFFFF DUP2 PUSH1 0xA0 SHR AND DUP6 DUP5 ADD MSTORE PUSH1 0xC0 SHR AND PUSH1 0x40 DUP3 ADD MSTORE PUSH2 0x11DB DUP6 DUP8 ADD PUSH2 0x13B4 JUMP JUMPDEST PUSH1 0x60 DUP3 ADD MSTORE DUP2 MSTORE ADD SWAP3 ADD SWAP3 ADD SWAP2 SWAP1 SWAP7 SWAP6 SWAP7 PUSH2 0x10FD JUMP JUMPDEST CALLVALUE PUSH2 0x2FD JUMPI PUSH1 0x20 CALLDATASIZE PUSH1 0x3 NOT ADD SLT PUSH2 0x2FD JUMPI PUSH1 0x4 CALLDATALOAD PUSH1 0x0 MSTORE PUSH1 0x0 PUSH1 0x20 MSTORE PUSH1 0x40 PUSH1 0x0 KECCAK256 DUP1 SLOAD PUSH2 0x1220 PUSH1 0x1 DUP4 ADD PUSH2 0x13B4 JUMP JUMPDEST SWAP2 PUSH1 0xFF PUSH1 0x2 DUP3 ADD SLOAD SWAP2 PUSH1 0x4 PUSH1 0x3 DUP3 ADD SLOAD SWAP2 ADD SLOAD SWAP1 PUSH2 0x1251 PUSH1 0x40 MLOAD SWAP7 DUP8 SWAP7 PUSH2 0x100 SWAP1 DUP9 MSTORE DUP1 PUSH1 0x20 DUP10 ADD MSTORE DUP8 ADD SWAP1 PUSH2 0x1459 JUMP JUMPDEST SWAP4 PUSH1 0x40 DUP7 ADD MSTORE PUSH1 0x60 DUP6 ADD MSTORE PUSH1 0x1 DUP1 PUSH1 0xA0 SHL SUB DUP2 AND PUSH1 0x80 DUP6 ADD MSTORE PUSH4 0xFFFFFFFF DUP2 PUSH1 0xA0 SHR AND PUSH1 0xA0 DUP6 ADD MSTORE PUSH2 0xFFFF DUP2 PUSH1 0xC0 SHR AND PUSH1 0xC0 DUP6 ADD MSTORE PUSH1 0xD0 SHR AND ISZERO ISZERO PUSH1 0xE0 DUP4 ADD MSTORE SUB SWAP1 RETURN JUMPDEST CALLVALUE PUSH2 0x2FD JUMPI PUSH1 0x20 CALLDATASIZE PUSH1 0x3 NOT ADD SLT PUSH2 0x2FD JUMPI PUSH1 0x4 CALLDATALOAD PUSH1 0xFF DUP2 AND DUP2 SUB PUSH2 0x2FD JUMPI PUSH1 0x4 SLOAD SWAP1 PUSH2 0x12CB CALLER PUSH1 0x1 PUSH1 0x1 PUSH1 0xA0 SHL SUB DUP5 AND EQ PUSH2 0x14F8 JUMP JUMPDEST PUSH1 0xFF PUSH1 0xA0 SHL NOT SWAP1 SWAP2 AND PUSH1 0xA0 SWAP2 SWAP1 SWAP2 SHL PUSH1 0xFF PUSH1 0xA0 SHL AND OR PUSH1 0x4 SSTORE STOP JUMPDEST CALLVALUE PUSH2 0x2FD JUMPI PUSH1 0x0 CALLDATASIZE PUSH1 0x3 NOT ADD SLT PUSH2 0x2FD JUMPI PUSH1 0x20 SWAP1 PUSH1 0xFF PUSH1 0x4 SLOAD PUSH1 0xA0 SHR AND DUP2 MSTORE RETURN JUMPDEST SWAP1 PUSH1 0x1 DUP3 DUP2 SHR SWAP3 AND DUP1 ISZERO PUSH2 0x1337 JUMPI JUMPDEST PUSH1 0x20 DUP4 LT EQ PUSH2 0x1321 JUMPI JUMP JUMPDEST PUSH4 0x4E487B71 PUSH1 0xE0 SHL PUSH1 0x0 MSTORE PUSH1 0x22 PUSH1 0x4 MSTORE PUSH1 0x24 PUSH1 0x0 REVERT JUMPDEST SWAP2 PUSH1 0x7F AND SWAP2 PUSH2 0x1316 JUMP JUMPDEST PUSH1 0x80 DUP2 ADD SWAP1 DUP2 LT PUSH1 0x1 PUSH1 0x1 PUSH1 0x40 SHL SUB DUP3 GT OR PUSH2 0xD3F JUMPI PUSH1 0x40 MSTORE JUMP JUMPDEST PUSH2 0x100 DUP2 ADD SWAP1 DUP2 LT PUSH1 0x1 PUSH1 0x1 PUSH1 0x40 SHL SUB DUP3 GT OR PUSH2 0xD3F JUMPI PUSH1 0x40 MSTORE JUMP JUMPDEST PUSH1 0xA0 DUP2 ADD SWAP1 DUP2 LT PUSH1 0x1 PUSH1 0x1 PUSH1 0x40 SHL SUB DUP3 GT OR PUSH2 0xD3F JUMPI PUSH1 0x40 MSTORE JUMP JUMPDEST SWAP1 PUSH1 0x1F DUP1 NOT SWAP2 ADD AND DUP2 ADD SWAP1 DUP2 LT PUSH1 0x1 PUSH1 0x1 PUSH1 0x40 SHL SUB DUP3 GT OR PUSH2 0xD3F JUMPI PUSH1 0x40 MSTORE JUMP JUMPDEST SWAP1 PUSH1 0x40 MLOAD SWAP2 DUP3 PUSH1 0x0 DUP3 SLOAD PUSH2 0x13C7 DUP2 PUSH2 0x1307 JUMP JUMPDEST SWAP1 DUP2 DUP5 MSTORE PUSH1 0x20 SWAP5 PUSH1 0x1 SWAP2 PUSH1 0x1 DUP2 AND SWAP1 DUP2 PUSH1 0x0 EQ PUSH2 0x1437 JUMPI POP PUSH1 0x1 EQ PUSH2 0x13F8 JUMPI JUMPDEST POP POP POP PUSH2 0x13F6 SWAP3 POP SUB DUP4 PUSH2 0x1393 JUMP JUMPDEST JUMP JUMPDEST PUSH1 0x0 SWAP1 DUP2 MSTORE DUP6 DUP2 KECCAK256 SWAP6 SWAP4 POP SWAP2 SWAP1 JUMPDEST DUP2 DUP4 LT PUSH2 0x141F JUMPI POP POP PUSH2 0x13F6 SWAP4 POP DUP3 ADD ADD CODESIZE DUP1 DUP1 PUSH2 0x13E7 JUMP JUMPDEST DUP6 SLOAD DUP9 DUP5 ADD DUP6 ADD MSTORE SWAP5 DUP6 ADD SWAP5 DUP8 SWAP5 POP SWAP2 DUP4 ADD SWAP2 PUSH2 0x1406 JUMP JUMPDEST SWAP3 POP POP POP PUSH2 0x13F6 SWAP5 SWAP3 POP PUSH1 0xFF NOT AND DUP3 DUP5 ADD MSTORE ISZERO ISZERO PUSH1 0x5 SHL DUP3 ADD ADD CODESIZE DUP1 DUP1 PUSH2 0x13E7 JUMP JUMPDEST SWAP2 SWAP1 DUP3 MLOAD SWAP3 DUP4 DUP3 MSTORE PUSH1 0x0 JUMPDEST DUP5 DUP2 LT PUSH2 0x1485 JUMPI POP POP DUP3 PUSH1 0x0 PUSH1 0x20 DUP1 SWAP5 SWAP6 DUP5 ADD ADD MSTORE PUSH1 0x1F DUP1 NOT SWAP2 ADD AND ADD ADD SWAP1 JUMP JUMPDEST PUSH1 0x20 DUP2 DUP4 ADD DUP2 ADD MLOAD DUP5 DUP4 ADD DUP3 ADD MSTORE ADD PUSH2 0x1464 JUMP JUMPDEST SWAP2 DUP2 PUSH1 0x1F DUP5 ADD SLT ISZERO PUSH2 0x2FD JUMPI DUP3 CALLDATALOAD SWAP2 PUSH1 0x1 PUSH1 0x1 PUSH1 0x40 SHL SUB DUP4 GT PUSH2 0x2FD JUMPI PUSH1 0x20 DUP4 DUP2 DUP7 ADD SWAP6 ADD ADD GT PUSH2 0x2FD JUMPI JUMP JUMPDEST DUP1 SLOAD DUP3 LT ISZERO PUSH2 0x14E2 JUMPI PUSH1 0x0 MSTORE PUSH1 0x20 PUSH1 0x0 KECCAK256 SWAP1 PUSH1 0x1 SHL ADD SWAP1 PUSH1 0x0 SWAP1 JUMP JUMPDEST PUSH4 0x4E487B71 PUSH1 0xE0 SHL PUSH1 0x0 MSTORE PUSH1 0x32 PUSH1 0x4 MSTORE PUSH1 0x24 PUSH1 0x0 REVERT JUMPDEST ISZERO PUSH2 0x14FF JUMPI JUMP JUMPDEST PUSH1 0x40 MLOAD PUSH3 0x461BCD PUSH1 0xE5 SHL DUP2 MSTORE PUSH1 0x20 PUSH1 0x4 DUP3 ADD MSTORE PUSH1 0xA PUSH1 0x24 DUP3 ADD MSTORE PUSH10 0x27B7363C9037BBB732B9 PUSH1 0xB1 SHL PUSH1 0x44 DUP3 ADD MSTORE PUSH1 0x64 SWAP1 REVERT JUMPDEST SWAP3 SWAP2 SWAP3 PUSH1 0x1 PUSH1 0x1 PUSH1 0x40 SHL SUB DUP3 GT PUSH2 0xD3F JUMPI PUSH1 0x40 MLOAD SWAP2 PUSH2 0x155A PUSH1 0x1F DUP3 ADD PUSH1 0x1F NOT AND PUSH1 0x20 ADD DUP5 PUSH2 0x1393 JUMP JUMPDEST DUP3 SWAP5 DUP2 DUP5 MSTORE DUP2 DUP4 ADD GT PUSH2 0x2FD JUMPI DUP3 DUP2 PUSH1 0x20 SWAP4 DUP5 PUSH1 0x0 SWAP7 ADD CALLDATACOPY ADD ADD MSTORE JUMP JUMPDEST PUSH1 0x0 SWAP1 DUP2 MSTORE PUSH1 0x2 PUSH1 0x20 MSTORE PUSH1 0x40 DUP2 KECCAK256 DUP1 SLOAD SWAP2 DUP3 ISZERO PUSH2 0x15DE JUMPI SWAP1 DUP2 DUP1 SWAP2 JUMPDEST DUP5 DUP4 LT PUSH2 0x15A1 JUMPI POP POP POP DIV SWAP1 JUMP JUMPDEST SWAP1 SWAP2 SWAP3 PUSH1 0xFF PUSH2 0x15B0 DUP6 DUP5 PUSH2 0x14C6 JUMP JUMPDEST POP SLOAD PUSH1 0xC0 SHR AND DUP2 ADD DUP1 SWAP2 GT PUSH2 0x15CA JUMPI SWAP3 PUSH1 0x1 ADD SWAP2 SWAP1 PUSH2 0x1593 JUMP JUMPDEST PUSH4 0x4E487B71 PUSH1 0xE0 SHL DUP4 MSTORE PUSH1 0x11 PUSH1 0x4 MSTORE PUSH1 0x24 DUP4 REVERT JUMPDEST SWAP2 POP POP SWAP1 JUMP INVALID LOG2 PUSH5 0x6970667358 0x22 SLT KECCAK256 0xE3 0x21 0x1E DUP11 BALANCE 0x27 SWAP10 JUMP 0xD4 PUSH6 0x8C1339662462 PUSH32 0xC138C3316483E4084C2EEF86E943B764736F6C63430008180033000000000000 "},"methodIdentifiers":{"addValidator(address)":"4d238c8e","attestExperience(bytes32,uint8,string)":"b144d4a3","attestations(bytes32,uint256)":"a78c52bb","authorizedValidators(address)":"58714163","calculateAverageQuality(bytes32)":"bb66dab2","experiences(bytes32)":"34f01811","getAttestations(bytes32)":"37e59e36","getExperience(bytes32)":"ebee03bb","isVerified(bytes32)":"c181b273","minAttestations()":"13f269dd","owner()":"8da5cb5b","removeValidator(address)":"40a141ff","setMinAttestations(uint8)":"27dee37c","strategies(bytes32)":"3ff34eb9","submitExperience(bytes32,string,bytes32,uint256,string,string,uint16,uint16,bytes32)":"7b77044d"}}}}}