{"contracts/ColonyMemory.sol":{"ColonyMemory":{"abi":[{"anonymous":false,"inputs":[{"components":[{"internalType":"uint32","name":"x","type":"uint32"},{"internalType":"uint32","name":"y","type":"uint32"},{"internalType":"address","name":"ant","type":"address"}],"indexed":false,"internalType":"struct ColonyMemory.Visit","name":"v","type":"tuple"}],"name":"CellVisited","type":"event"},{"anonymous":false,"inputs":[{"indexed":true,"internalType":"bytes32","name":"runHash","type":"bytes32"},{"indexed":false,"internalType":"uint32","name":"x","type":"uint32"},{"indexed":false,"internalType":"uint32","name":"y","type":"uint32"},{"indexed":false,"internalType":"uint32","name":"z","type":"uint32"},{"indexed":false,"internalType":"uint32","name":"timestamp","type":"uint32"},{"indexed":true,"internalType":"address","name":"nanobot","type":"address"},{"indexed":false,"internalType":"uint16","name":"payloadAmount","type":"uint16"}],"name":"DrugDelivered","type":"event"},{"anonymous":false,"inputs":[{"indexed":false,"internalType":"uint256","name":"tokenId","type":"uint256"},{"indexed":false,"internalType":"uint32","name":"x","type":"uint32"},{"indexed":false,"internalType":"uint32","name":"y","type":"uint32"},{"indexed":false,"internalType":"address","name":"ant","type":"address"}],"name":"FoodCollected","type":"event"},{"anonymous":false,"inputs":[{"indexed":true,"internalType":"bytes32","name":"runHash","type":"bytes32"},{"indexed":false,"internalType":"uint32","name":"totalSteps","type":"uint32"},{"indexed":false,"internalType":"uint16","name":"cellsKilled","type":"uint16"},{"indexed":false,"internalType":"uint16","name":"drugDeliveries","type":"uint16"},{"indexed":true,"internalType":"address","name":"submitter","type":"address"}],"name":"SimulationCompleted","type":"event"},{"anonymous":false,"inputs":[{"indexed":true,"internalType":"bytes32","name":"runHash","type":"bytes32"},{"indexed":true,"internalType":"uint256","name":"cellId","type":"uint256"},{"indexed":false,"internalType":"uint32","name":"x","type":"uint32"},{"indexed":false,"internalType":"uint32","name":"y","type":"uint32"},{"indexed":false,"internalType":"uint32","name":"z","type":"uint32"},{"indexed":false,"internalType":"uint32","name":"timestamp","type":"uint32"},{"indexed":true,"internalType":"address","name":"nanobot","type":"address"}],"name":"TumorCellKilled","type":"event"},{"inputs":[{"internalType":"bytes32","name":"runHash","type":"bytes32"},{"internalType":"uint32","name":"totalSteps","type":"uint32"},{"internalType":"uint16","name":"cellsKilled","type":"uint16"},{"internalType":"uint16","name":"drugDeliveries","type":"uint16"}],"name":"completeSimulation","outputs":[],"stateMutability":"nonpayable","type":"function"},{"inputs":[{"internalType":"bytes32","name":"","type":"bytes32"},{"internalType":"uint256","name":"","type":"uint256"}],"name":"deliveriesByRun","outputs":[{"internalType":"uint32","name":"x","type":"uint32"},{"internalType":"uint32","name":"y","type":"uint32"},{"internalType":"uint32","name":"z","type":"uint32"},{"internalType":"uint32","name":"timestamp","type":"uint32"},{"internalType":"address","name":"nanobot","type":"address"},{"internalType":"uint16","name":"payloadAmount","type":"uint16"}],"stateMutability":"view","type":"function"},{"inputs":[{"internalType":"bytes32","name":"runHash","type":"bytes32"}],"name":"getDeliveryCount","outputs":[{"internalType":"uint256","name":"","type":"uint256"}],"stateMutability":"view","type":"function"},{"inputs":[{"internalType":"bytes32","name":"runHash","type":"bytes32"}],"name":"getKillCount","outputs":[{"internalType":"uint256","name":"","type":"uint256"}],"stateMutability":"view","type":"function"},{"inputs":[{"internalType":"bytes32","name":"runHash","type":"bytes32"}],"name":"getSimulationRun","outputs":[{"components":[{"internalType":"bytes32","name":"runHash","type":"bytes32"},{"internalType":"uint32","name":"startTime","type":"uint32"},{"internalType":"uint32","name":"totalSteps","type":"uint32"},{"internalType":"uint16","name":"cellsKilled","type":"uint16"},{"internalType":"uint16","name":"drugDeliveries","type":"uint16"},{"internalType":"address","name":"submitter","type":"address"},{"internalType":"bool","name":"completed","type":"bool"}],"internalType":"struct ColonyMemory.SimulationRun","name":"","type":"tuple"}],"stateMutability":"view","type":"function"},{"inputs":[{"internalType":"uint32","name":"x","type":"uint32"},{"internalType":"uint32","name":"y","type":"uint32"}],"name":"hasVisited","outputs":[{"internalType":"bool","name":"","type":"bool"}],"stateMutability":"view","type":"function"},{"inputs":[{"internalType":"bytes32","name":"runHash","type":"bytes32"}],"name":"initializeSimulation","outputs":[],"stateMutability":"nonpayable","type":"function"},{"inputs":[{"internalType":"bytes32","name":"","type":"bytes32"},{"internalType":"uint256","name":"","type":"uint256"}],"name":"killsByRun","outputs":[{"internalType":"uint256","name":"cellId","type":"uint256"},{"internalType":"uint32","name":"x","type":"uint32"},{"internalType":"uint32","name":"y","type":"uint32"},{"internalType":"uint32","name":"z","type":"uint32"},{"internalType":"uint32","name":"timestamp","type":"uint32"},{"internalType":"address","name":"nanobot","type":"address"}],"stateMutability":"view","type":"function"},{"inputs":[{"internalType":"uint32","name":"x","type":"uint32"},{"internalType":"uint32","name":"y","type":"uint32"}],"name":"markVisited","outputs":[],"stateMutability":"nonpayable","type":"function"},{"inputs":[{"internalType":"bytes32","name":"runHash","type":"bytes32"},{"internalType":"uint32","name":"x","type":"uint32"},{"internalType":"uint32","name":"y","type":"uint32"},{"internalType":"uint32","name":"z","type":"uint32"},{"internalType":"uint32","name":"timestamp","type":"uint32"},{"internalType":"uint16","name":"payloadAmount","type":"uint16"}],"name":"recordDrugDelivery","outputs":[],"stateMutability":"nonpayable","type":"function"},{"inputs":[{"internalType":"uint256","name":"id","type":"uint256"},{"internalType":"uint32","name":"x","type":"uint32"},{"internalType":"uint32","name":"y","type":"uint32"}],"name":"recordFood","outputs":[],"stateMutability":"nonpayable","type":"function"},{"inputs":[{"internalType":"bytes32","name":"runHash","type":"bytes32"},{"internalType":"uint256","name":"cellId","type":"uint256"},{"internalType":"uint32","name":"x","type":"uint32"},{"internalType":"uint32","name":"y","type":"uint32"},{"internalType":"uint32","name":"z","type":"uint32"},{"internalType":"uint32","name":"timestamp","type":"uint32"}],"name":"recordTumorKill","outputs":[],"stateMutability":"nonpayable","type":"function"},{"inputs":[{"internalType":"bytes32","name":"","type":"bytes32"}],"name":"simulations","outputs":[{"internalType":"bytes32","name":"runHash","type":"bytes32"},{"internalType":"uint32","name":"startTime","type":"uint32"},{"internalType":"uint32","name":"totalSteps","type":"uint32"},{"internalType":"uint16","name":"cellsKilled","type":"uint16"},{"internalType":"uint16","name":"drugDeliveries","type":"uint16"},{"internalType":"address","name":"submitter","type":"address"},{"internalType":"bool","name":"completed","type":"bool"}],"stateMutability":"view","type":"function"},{"inputs":[{"internalType":"bytes32","name":"","type":"bytes32"}],"name":"visited","outputs":[{"internalType":"bool","name":"","type":"bool"}],"stateMutability":"view","type":"function"}],"evm":{"bytecode":{"linkReferences":{},"object":"6080806040523461001657610de5908161001c8239f35b600080fdfe60806040908082526004918236101561001757600080fd5b600091823560e01c90816306d9e4b514610c0c575080631075652414610b9457806313615122146109d557806315f769b01461096a5780631eb674811461087157806325c3dc2e146108495780632b500d92146106eb57806344d93dd4146106bf57806351f408501461063d57806372c9c94b1461047e5780637adb273a14610456578063999a6ff214610265578063c86374df146101e05763f40022a6146100bf57600080fd5b346101dc57806003193601126101dc576100d7610c77565b906100e0610c8f565b815160e084811b6001600160e01b0319908116602084019081529184901b1660248301529061011c81602881015b03601f198101835282610d8d565b519020845283602052818420805460ff811615610137578580f35b60ff191660011790558151926060840167ffffffffffffffff8111858210176101c957835263ffffffff908116808552918116602080860191825233958501958652845193845290519091169082015291516001600160a01b0316908201529091507f1217636b53a0c3ef6fe9a2141bfd53cdf9d646e203bc257c1588a8ce653f07e990606090a18038808080808580f35b634e487b7160e01b865260418752602486fd5b5080fd5b50346101dc576101ef36610cdb565b929081526003602052818120908154841015610262575060c09261021291610d23565b50908154916001810154809163ffffffff928391600260018060a01b03910154169480519687528282166020880152828260201c16818801521c16606085015260601c16608083015260a0820152f35b80fd5b5082346104525760c03660031901126104525780359083610284610c8f565b9161028d610ca2565b94610296610cb5565b9561029f610cc8565b9260a4359561ffff871680970361044e57879187918551966102c088610d71565b63ffffffff8092169b8c89528260208a0197169687815283898b019216998a835289856060830195169c8d86526080830199338b5260a08401998a528152600260205220805490600160401b821015610438579061032391600182018155610cf1565b96909661041f5750848093610370826103b0979560019a9961039096511663ffffffff198b5416178a555116889063ffffffff60201b82549160201b169063ffffffff60201b1916179055565b51865463ffffffff60401b1916911660401b63ffffffff60401b16178555565b51835463ffffffff60601b1916911660601b63ffffffff60601b16178255565b019160018060a01b0390511682549161ffff60a01b905160a01b169169ffffffffffffffffffff60b01b161717905581519687526020870152850152606084015260808301527f0c591fc8d9121ee406f82b19ea6d42a63a55a45e0ff89b44679a059325a9e88f60a03393a380f35b90508f925060249350829150634e487b7160e01b825252fd5b50505060248f604187634e487b7160e01b835252fd5b8580fd5b8280fd5b5082346104525760203660031901126104525760209282913581526002845220549051908152f35b5082346104525760c03660031901126104525780356024359161049f610ca2565b906104a8610cb5565b946104b1610cc8565b9560a4359363ffffffff938486168096036106395786918451956104d487610d71565b8987528b816020890193169b8c845282888a019716968781528360608b019216998a83528960808201948d865260a0830199338b528152600360205220805490600160401b821015610623579061053091600182018155610d23565b97909761041f57508480936105866105c69760029a9997956105a695518b558160018c0199511663ffffffff198a54161789555116879063ffffffff60201b82549160201b169063ffffffff60201b1916179055565b51855463ffffffff60401b1916911660401b63ffffffff60401b16178455565b51825463ffffffff60601b1916911660601b63ffffffff60601b16179055565b019060018060a01b039051166bffffffffffffffffffffffff60a01b8254161790558151968752602087015285015260608401527fe8c635839f4de7f9d0f38caa555296d8429b545b346a980fbe98de2bb6ed9d9160803394a480f35b50505060248f604188634e487b7160e01b835252fd5b8980fd5b50346101dc5761064c36610cdb565b929081526002602052818120908154841015610262575061067260c09361ffff92610cf1565b50805490600163ffffffff910154918451948282168652828260201c1660208701528282821c169086015260601c16606084015260018060a01b038116608084015260a01c1660a0820152f35b508234610452576020366003190112610452578160209360ff9235815280855220541690519015158152f35b5082903461045257602036600319011261045257813591828452600160205263ffffffff9081600184872001541661081157509060029181519161072e83610d3f565b8483526107e0602084019280421684528285018881526107ab60608701928a845260808801928b845260a089019633885260c08a019b8d8d528d5260016020528c20985189558160018a0198511663ffffffff198954161788555116869063ffffffff60201b82549160201b169063ffffffff60201b1916179055565b90518454915161ffff60501b60509190911b1663ffffffff60401b1990921661ffff60401b60409290921b9190911617178355565b516bffffffffffffffffffffffff82549181199060601b169116179055019051151560ff8019835416911617905580f35b606490602084519162461bcd60e51b8352820152601260248201527152756e20616c72656164792065786973747360701b6044820152fd5b5082346104525760203660031901126104525760209282913581526003845220549051908152f35b50903461026257602092836003193601126101dc5790829181835161089581610d3f565b818152818782015281858201528160608201528160808201528160a082015260c001523581526001845220918151916108cd83610d3f565b83549384845260018101549263ffffffff92818601908486168252808701948087851c16865261ffff9586948260608b0195878b871c16875260808c0198888c60501c168a5260a08d019b60601c8c526002015460ff169b60c0019b15158c5285519c8d525116908b01525116908801525116606086015251166080840152600160a01b6001900390511660a083015251151560c082015260e090f35b50829034610452576060366003190112610452577fa96ae3077d483c4b54a8d717a6b5f64cd935e7d7c38bedb4f8f7aeca073a30de916080916109ab610c8f565b6109b3610ca2565b82519335845263ffffffff80921660208501521690820152336060820152a180f35b508234610452576080366003190112610452578035906109f3610c8f565b9261ffff9160443583811691828203610b905760643594851694858103610b8c57868952600160205284892092600184019081549363ffffffff9586861615610b53576002019460ff865416610b185760601c3303610ad55750815460409190911b61ffff60401b1660208b901b63ffffffff60201b166bffffffffffffffff0000000019909216919091171760509290921b61ffff60501b16919091179055600160ff1982541617905582519516855260208501528301527fedacaa8e2a0034e7170a0aa44490014012724dfa25d7002a7fc867aa075bcead60603393a380f35b606490602089519162461bcd60e51b8352820152601b60248201527f4f6e6c79207375626d69747465722063616e20636f6d706c65746500000000006044820152fd5b885162461bcd60e51b81526020818401526015602482015274149d5b88185b1c9958591e4818dbdb5c1b195d1959605a1b6044820152606490fd5b885162461bcd60e51b81526020818401526013602482015272149d5b881b9bdd081a5b9a5d1a585b1a5e9959606a1b6044820152606490fd5b8880fd5b8780fd5b5082346104525760203660031901126104525760e09282913581526001602052209081549160026001820154918263ffffffff9460ff61ffff94859401541695815197885280831660208901528260201c16818801521c1660608501528160501c16608084015260601c60a0830152151560c0820152f35b9050346104525781600319360112610452578160209360ff92610c2d610c77565b90610c638161010e610c3d610c8f565b8a830195869060089263ffffffff60e01b809260e01b16835260e01b1660048201520190565b519020815280855220541690519015158152f35b6004359063ffffffff82168203610c8a57565b600080fd5b6024359063ffffffff82168203610c8a57565b6044359063ffffffff82168203610c8a57565b6064359063ffffffff82168203610c8a57565b6084359063ffffffff82168203610c8a57565b6040906003190112610c8a576004359060243590565b8054821015610d0d5760005260206000209060011b0190600090565b634e487b7160e01b600052603260045260246000fd5b8054821015610d0d576000526003602060002091020190600090565b60e0810190811067ffffffffffffffff821117610d5b57604052565b634e487b7160e01b600052604160045260246000fd5b60c0810190811067ffffffffffffffff821117610d5b57604052565b90601f8019910116810190811067ffffffffffffffff821117610d5b5760405256fea26469706673582212201fb16e38ae24beff95293dc74f7fa0ed163cdad561bc822215e8c49cf09f478c64736f6c63430008180033","opcodes":"PUSH1 0x80 DUP1 PUSH1 0x40 MSTORE CALLVALUE PUSH2 0x16 JUMPI PUSH2 0xDE5 SWAP1 DUP2 PUSH2 0x1C DUP3 CODECOPY RETURN JUMPDEST PUSH1 0x0 DUP1 REVERT INVALID PUSH1 0x80 PUSH1 0x40 SWAP1 DUP1 DUP3 MSTORE PUSH1 0x4 SWAP2 DUP3 CALLDATASIZE LT ISZERO PUSH2 0x17 JUMPI PUSH1 0x0 DUP1 REVERT JUMPDEST PUSH1 0x0 SWAP2 DUP3 CALLDATALOAD PUSH1 0xE0 SHR SWAP1 DUP2 PUSH4 0x6D9E4B5 EQ PUSH2 0xC0C JUMPI POP DUP1 PUSH4 0x10756524 EQ PUSH2 0xB94 JUMPI DUP1 PUSH4 0x13615122 EQ PUSH2 0x9D5 JUMPI DUP1 PUSH4 0x15F769B0 EQ PUSH2 0x96A JUMPI DUP1 PUSH4 0x1EB67481 EQ PUSH2 0x871 JUMPI DUP1 PUSH4 0x25C3DC2E EQ PUSH2 0x849 JUMPI DUP1 PUSH4 0x2B500D92 EQ PUSH2 0x6EB JUMPI DUP1 PUSH4 0x44D93DD4 EQ PUSH2 0x6BF JUMPI DUP1 PUSH4 0x51F40850 EQ PUSH2 0x63D JUMPI DUP1 PUSH4 0x72C9C94B EQ PUSH2 0x47E JUMPI DUP1 PUSH4 0x7ADB273A EQ PUSH2 0x456 JUMPI DUP1 PUSH4 0x999A6FF2 EQ PUSH2 0x265 JUMPI DUP1 PUSH4 0xC86374DF EQ PUSH2 0x1E0 JUMPI PUSH4 0xF40022A6 EQ PUSH2 0xBF JUMPI PUSH1 0x0 DUP1 REVERT JUMPDEST CALLVALUE PUSH2 0x1DC JUMPI DUP1 PUSH1 0x3 NOT CALLDATASIZE ADD SLT PUSH2 0x1DC JUMPI PUSH2 0xD7 PUSH2 0xC77 JUMP JUMPDEST SWAP1 PUSH2 0xE0 PUSH2 0xC8F JUMP JUMPDEST DUP2 MLOAD PUSH1 0xE0 DUP5 DUP2 SHL PUSH1 0x1 PUSH1 0x1 PUSH1 0xE0 SHL SUB NOT SWAP1 DUP2 AND PUSH1 0x20 DUP5 ADD SWAP1 DUP2 MSTORE SWAP2 DUP5 SWAP1 SHL AND PUSH1 0x24 DUP4 ADD MSTORE SWAP1 PUSH2 0x11C DUP2 PUSH1 0x28 DUP2 ADD JUMPDEST SUB PUSH1 0x1F NOT DUP2 ADD DUP4 MSTORE DUP3 PUSH2 0xD8D JUMP JUMPDEST MLOAD SWAP1 KECCAK256 DUP5 MSTORE DUP4 PUSH1 0x20 MSTORE DUP2 DUP5 KECCAK256 DUP1 SLOAD PUSH1 0xFF DUP2 AND ISZERO PUSH2 0x137 JUMPI DUP6 DUP1 RETURN JUMPDEST PUSH1 0xFF NOT AND PUSH1 0x1 OR SWAP1 SSTORE DUP2 MLOAD SWAP3 PUSH1 0x60 DUP5 ADD PUSH8 0xFFFFFFFFFFFFFFFF DUP2 GT DUP6 DUP3 LT OR PUSH2 0x1C9 JUMPI DUP4 MSTORE PUSH4 0xFFFFFFFF SWAP1 DUP2 AND DUP1 DUP6 MSTORE SWAP2 DUP2 AND PUSH1 0x20 DUP1 DUP7 ADD SWAP2 DUP3 MSTORE CALLER SWAP6 DUP6 ADD SWAP6 DUP7 MSTORE DUP5 MLOAD SWAP4 DUP5 MSTORE SWAP1 MLOAD SWAP1 SWAP2 AND SWAP1 DUP3 ADD MSTORE SWAP2 MLOAD PUSH1 0x1 PUSH1 0x1 PUSH1 0xA0 SHL SUB AND SWAP1 DUP3 ADD MSTORE SWAP1 SWAP2 POP PUSH32 0x1217636B53A0C3EF6FE9A2141BFD53CDF9D646E203BC257C1588A8CE653F07E9 SWAP1 PUSH1 0x60 SWAP1 LOG1 DUP1 CODESIZE DUP1 DUP1 DUP1 DUP1 DUP6 DUP1 RETURN JUMPDEST PUSH4 0x4E487B71 PUSH1 0xE0 SHL DUP7 MSTORE PUSH1 0x41 DUP8 MSTORE PUSH1 0x24 DUP7 REVERT JUMPDEST POP DUP1 REVERT JUMPDEST POP CALLVALUE PUSH2 0x1DC JUMPI PUSH2 0x1EF CALLDATASIZE PUSH2 0xCDB JUMP JUMPDEST SWAP3 SWAP1 DUP2 MSTORE PUSH1 0x3 PUSH1 0x20 MSTORE DUP2 DUP2 KECCAK256 SWAP1 DUP2 SLOAD DUP5 LT ISZERO PUSH2 0x262 JUMPI POP PUSH1 0xC0 SWAP3 PUSH2 0x212 SWAP2 PUSH2 0xD23 JUMP JUMPDEST POP SWAP1 DUP2 SLOAD SWAP2 PUSH1 0x1 DUP2 ADD SLOAD DUP1 SWAP2 PUSH4 0xFFFFFFFF SWAP3 DUP4 SWAP2 PUSH1 0x2 PUSH1 0x1 DUP1 PUSH1 0xA0 SHL SUB SWAP2 ADD SLOAD AND SWAP5 DUP1 MLOAD SWAP7 DUP8 MSTORE DUP3 DUP3 AND PUSH1 0x20 DUP9 ADD MSTORE DUP3 DUP3 PUSH1 0x20 SHR AND DUP2 DUP9 ADD MSTORE SHR AND PUSH1 0x60 DUP6 ADD MSTORE PUSH1 0x60 SHR AND PUSH1 0x80 DUP4 ADD MSTORE PUSH1 0xA0 DUP3 ADD MSTORE RETURN JUMPDEST DUP1 REVERT JUMPDEST POP DUP3 CALLVALUE PUSH2 0x452 JUMPI PUSH1 0xC0 CALLDATASIZE PUSH1 0x3 NOT ADD SLT PUSH2 0x452 JUMPI DUP1 CALLDATALOAD SWAP1 DUP4 PUSH2 0x284 PUSH2 0xC8F JUMP JUMPDEST SWAP2 PUSH2 0x28D PUSH2 0xCA2 JUMP JUMPDEST SWAP5 PUSH2 0x296 PUSH2 0xCB5 JUMP JUMPDEST SWAP6 PUSH2 0x29F PUSH2 0xCC8 JUMP JUMPDEST SWAP3 PUSH1 0xA4 CALLDATALOAD SWAP6 PUSH2 0xFFFF DUP8 AND DUP1 SWAP8 SUB PUSH2 0x44E JUMPI DUP8 SWAP2 DUP8 SWAP2 DUP6 MLOAD SWAP7 PUSH2 0x2C0 DUP9 PUSH2 0xD71 JUMP JUMPDEST PUSH4 0xFFFFFFFF DUP1 SWAP3 AND SWAP12 DUP13 DUP10 MSTORE DUP3 PUSH1 0x20 DUP11 ADD SWAP8 AND SWAP7 DUP8 DUP2 MSTORE DUP4 DUP10 DUP12 ADD SWAP3 AND SWAP10 DUP11 DUP4 MSTORE DUP10 DUP6 PUSH1 0x60 DUP4 ADD SWAP6 AND SWAP13 DUP14 DUP7 MSTORE PUSH1 0x80 DUP4 ADD SWAP10 CALLER DUP12 MSTORE PUSH1 0xA0 DUP5 ADD SWAP10 DUP11 MSTORE DUP2 MSTORE PUSH1 0x2 PUSH1 0x20 MSTORE KECCAK256 DUP1 SLOAD SWAP1 PUSH1 0x1 PUSH1 0x40 SHL DUP3 LT ISZERO PUSH2 0x438 JUMPI SWAP1 PUSH2 0x323 SWAP2 PUSH1 0x1 DUP3 ADD DUP2 SSTORE PUSH2 0xCF1 JUMP JUMPDEST SWAP7 SWAP1 SWAP7 PUSH2 0x41F JUMPI POP DUP5 DUP1 SWAP4 PUSH2 0x370 DUP3 PUSH2 0x3B0 SWAP8 SWAP6 PUSH1 0x1 SWAP11 SWAP10 PUSH2 0x390 SWAP7 MLOAD AND PUSH4 0xFFFFFFFF NOT DUP12 SLOAD AND OR DUP11 SSTORE MLOAD AND DUP9 SWAP1 PUSH4 0xFFFFFFFF PUSH1 0x20 SHL DUP3 SLOAD SWAP2 PUSH1 0x20 SHL AND SWAP1 PUSH4 0xFFFFFFFF PUSH1 0x20 SHL NOT AND OR SWAP1 SSTORE JUMP JUMPDEST MLOAD DUP7 SLOAD PUSH4 0xFFFFFFFF PUSH1 0x40 SHL NOT AND SWAP2 AND PUSH1 0x40 SHL PUSH4 0xFFFFFFFF PUSH1 0x40 SHL AND OR DUP6 SSTORE JUMP JUMPDEST MLOAD DUP4 SLOAD PUSH4 0xFFFFFFFF PUSH1 0x60 SHL NOT AND SWAP2 AND PUSH1 0x60 SHL PUSH4 0xFFFFFFFF PUSH1 0x60 SHL AND OR DUP3 SSTORE JUMP JUMPDEST ADD SWAP2 PUSH1 0x1 DUP1 PUSH1 0xA0 SHL SUB SWAP1 MLOAD AND DUP3 SLOAD SWAP2 PUSH2 0xFFFF PUSH1 0xA0 SHL SWAP1 MLOAD PUSH1 0xA0 SHL AND SWAP2 PUSH10 0xFFFFFFFFFFFFFFFFFFFF PUSH1 0xB0 SHL AND OR OR SWAP1 SSTORE DUP2 MLOAD SWAP7 DUP8 MSTORE PUSH1 0x20 DUP8 ADD MSTORE DUP6 ADD MSTORE PUSH1 0x60 DUP5 ADD MSTORE PUSH1 0x80 DUP4 ADD MSTORE PUSH32 0xC591FC8D9121EE406F82B19EA6D42A63A55A45E0FF89B44679A059325A9E88F PUSH1 0xA0 CALLER SWAP4 LOG3 DUP1 RETURN JUMPDEST SWAP1 POP DUP16 SWAP3 POP PUSH1 0x24 SWAP4 POP DUP3 SWAP2 POP PUSH4 0x4E487B71 PUSH1 0xE0 SHL DUP3 MSTORE MSTORE REVERT JUMPDEST POP POP POP PUSH1 0x24 DUP16 PUSH1 0x41 DUP8 PUSH4 0x4E487B71 PUSH1 0xE0 SHL DUP4 MSTORE MSTORE REVERT JUMPDEST DUP6 DUP1 REVERT JUMPDEST DUP3 DUP1 REVERT JUMPDEST POP DUP3 CALLVALUE PUSH2 0x452 JUMPI PUSH1 0x20 CALLDATASIZE PUSH1 0x3 NOT ADD SLT PUSH2 0x452 JUMPI PUSH1 0x20 SWAP3 DUP3 SWAP2 CALLDATALOAD DUP2 MSTORE PUSH1 0x2 DUP5 MSTORE KECCAK256 SLOAD SWAP1 MLOAD SWAP1 DUP2 MSTORE RETURN JUMPDEST POP DUP3 CALLVALUE PUSH2 0x452 JUMPI PUSH1 0xC0 CALLDATASIZE PUSH1 0x3 NOT ADD SLT PUSH2 0x452 JUMPI DUP1 CALLDATALOAD PUSH1 0x24 CALLDATALOAD SWAP2 PUSH2 0x49F PUSH2 0xCA2 JUMP JUMPDEST SWAP1 PUSH2 0x4A8 PUSH2 0xCB5 JUMP JUMPDEST SWAP5 PUSH2 0x4B1 PUSH2 0xCC8 JUMP JUMPDEST SWAP6 PUSH1 0xA4 CALLDATALOAD SWAP4 PUSH4 0xFFFFFFFF SWAP4 DUP5 DUP7 AND DUP1 SWAP7 SUB PUSH2 0x639 JUMPI DUP7 SWAP2 DUP5 MLOAD SWAP6 PUSH2 0x4D4 DUP8 PUSH2 0xD71 JUMP JUMPDEST DUP10 DUP8 MSTORE DUP12 DUP2 PUSH1 0x20 DUP10 ADD SWAP4 AND SWAP12 DUP13 DUP5 MSTORE DUP3 DUP9 DUP11 ADD SWAP8 AND SWAP7 DUP8 DUP2 MSTORE DUP4 PUSH1 0x60 DUP12 ADD SWAP3 AND SWAP10 DUP11 DUP4 MSTORE DUP10 PUSH1 0x80 DUP3 ADD SWAP5 DUP14 DUP7 MSTORE PUSH1 0xA0 DUP4 ADD SWAP10 CALLER DUP12 MSTORE DUP2 MSTORE PUSH1 0x3 PUSH1 0x20 MSTORE KECCAK256 DUP1 SLOAD SWAP1 PUSH1 0x1 PUSH1 0x40 SHL DUP3 LT ISZERO PUSH2 0x623 JUMPI SWAP1 PUSH2 0x530 SWAP2 PUSH1 0x1 DUP3 ADD DUP2 SSTORE PUSH2 0xD23 JUMP JUMPDEST SWAP8 SWAP1 SWAP8 PUSH2 0x41F JUMPI POP DUP5 DUP1 SWAP4 PUSH2 0x586 PUSH2 0x5C6 SWAP8 PUSH1 0x2 SWAP11 SWAP10 SWAP8 SWAP6 PUSH2 0x5A6 SWAP6 MLOAD DUP12 SSTORE DUP2 PUSH1 0x1 DUP13 ADD SWAP10 MLOAD AND PUSH4 0xFFFFFFFF NOT DUP11 SLOAD AND OR DUP10 SSTORE MLOAD AND DUP8 SWAP1 PUSH4 0xFFFFFFFF PUSH1 0x20 SHL DUP3 SLOAD SWAP2 PUSH1 0x20 SHL AND SWAP1 PUSH4 0xFFFFFFFF PUSH1 0x20 SHL NOT AND OR SWAP1 SSTORE JUMP JUMPDEST MLOAD DUP6 SLOAD PUSH4 0xFFFFFFFF PUSH1 0x40 SHL NOT AND SWAP2 AND PUSH1 0x40 SHL PUSH4 0xFFFFFFFF PUSH1 0x40 SHL AND OR DUP5 SSTORE JUMP JUMPDEST MLOAD DUP3 SLOAD PUSH4 0xFFFFFFFF PUSH1 0x60 SHL NOT AND SWAP2 AND PUSH1 0x60 SHL PUSH4 0xFFFFFFFF PUSH1 0x60 SHL AND OR SWAP1 SSTORE JUMP JUMPDEST ADD SWAP1 PUSH1 0x1 DUP1 PUSH1 0xA0 SHL SUB SWAP1 MLOAD AND PUSH12 0xFFFFFFFFFFFFFFFFFFFFFFFF PUSH1 0xA0 SHL DUP3 SLOAD AND OR SWAP1 SSTORE DUP2 MLOAD SWAP7 DUP8 MSTORE PUSH1 0x20 DUP8 ADD MSTORE DUP6 ADD MSTORE PUSH1 0x60 DUP5 ADD MSTORE PUSH32 0xE8C635839F4DE7F9D0F38CAA555296D8429B545B346A980FBE98DE2BB6ED9D91 PUSH1 0x80 CALLER SWAP5 LOG4 DUP1 RETURN JUMPDEST POP POP POP PUSH1 0x24 DUP16 PUSH1 0x41 DUP9 PUSH4 0x4E487B71 PUSH1 0xE0 SHL DUP4 MSTORE MSTORE REVERT JUMPDEST DUP10 DUP1 REVERT JUMPDEST POP CALLVALUE PUSH2 0x1DC JUMPI PUSH2 0x64C CALLDATASIZE PUSH2 0xCDB JUMP JUMPDEST SWAP3 SWAP1 DUP2 MSTORE PUSH1 0x2 PUSH1 0x20 MSTORE DUP2 DUP2 KECCAK256 SWAP1 DUP2 SLOAD DUP5 LT ISZERO PUSH2 0x262 JUMPI POP PUSH2 0x672 PUSH1 0xC0 SWAP4 PUSH2 0xFFFF SWAP3 PUSH2 0xCF1 JUMP JUMPDEST POP DUP1 SLOAD SWAP1 PUSH1 0x1 PUSH4 0xFFFFFFFF SWAP2 ADD SLOAD SWAP2 DUP5 MLOAD SWAP5 DUP3 DUP3 AND DUP7 MSTORE DUP3 DUP3 PUSH1 0x20 SHR AND PUSH1 0x20 DUP8 ADD MSTORE DUP3 DUP3 DUP3 SHR AND SWAP1 DUP7 ADD MSTORE PUSH1 0x60 SHR AND PUSH1 0x60 DUP5 ADD MSTORE PUSH1 0x1 DUP1 PUSH1 0xA0 SHL SUB DUP2 AND PUSH1 0x80 DUP5 ADD MSTORE PUSH1 0xA0 SHR AND PUSH1 0xA0 DUP3 ADD MSTORE RETURN JUMPDEST POP DUP3 CALLVALUE PUSH2 0x452 JUMPI PUSH1 0x20 CALLDATASIZE PUSH1 0x3 NOT ADD SLT PUSH2 0x452 JUMPI DUP2 PUSH1 0x20 SWAP4 PUSH1 0xFF SWAP3 CALLDATALOAD DUP2 MSTORE DUP1 DUP6 MSTORE KECCAK256 SLOAD AND SWAP1 MLOAD SWAP1 ISZERO ISZERO DUP2 MSTORE RETURN JUMPDEST POP DUP3 SWAP1 CALLVALUE PUSH2 0x452 JUMPI PUSH1 0x20 CALLDATASIZE PUSH1 0x3 NOT ADD SLT PUSH2 0x452 JUMPI DUP2 CALLDATALOAD SWAP2 DUP3 DUP5 MSTORE PUSH1 0x1 PUSH1 0x20 MSTORE PUSH4 0xFFFFFFFF SWAP1 DUP2 PUSH1 0x1 DUP5 DUP8 KECCAK256 ADD SLOAD AND PUSH2 0x811 JUMPI POP SWAP1 PUSH1 0x2 SWAP2 DUP2 MLOAD SWAP2 PUSH2 0x72E DUP4 PUSH2 0xD3F JUMP JUMPDEST DUP5 DUP4 MSTORE PUSH2 0x7E0 PUSH1 0x20 DUP5 ADD SWAP3 DUP1 TIMESTAMP AND DUP5 MSTORE DUP3 DUP6 ADD DUP9 DUP2 MSTORE PUSH2 0x7AB PUSH1 0x60 DUP8 ADD SWAP3 DUP11 DUP5 MSTORE PUSH1 0x80 DUP9 ADD SWAP3 DUP12 DUP5 MSTORE PUSH1 0xA0 DUP10 ADD SWAP7 CALLER DUP9 MSTORE PUSH1 0xC0 DUP11 ADD SWAP12 DUP14 DUP14 MSTORE DUP14 MSTORE PUSH1 0x1 PUSH1 0x20 MSTORE DUP13 KECCAK256 SWAP9 MLOAD DUP10 SSTORE DUP2 PUSH1 0x1 DUP11 ADD SWAP9 MLOAD AND PUSH4 0xFFFFFFFF NOT DUP10 SLOAD AND OR DUP9 SSTORE MLOAD AND DUP7 SWAP1 PUSH4 0xFFFFFFFF PUSH1 0x20 SHL DUP3 SLOAD SWAP2 PUSH1 0x20 SHL AND SWAP1 PUSH4 0xFFFFFFFF PUSH1 0x20 SHL NOT AND OR SWAP1 SSTORE JUMP JUMPDEST SWAP1 MLOAD DUP5 SLOAD SWAP2 MLOAD PUSH2 0xFFFF PUSH1 0x50 SHL PUSH1 0x50 SWAP2 SWAP1 SWAP2 SHL AND PUSH4 0xFFFFFFFF PUSH1 0x40 SHL NOT SWAP1 SWAP3 AND PUSH2 0xFFFF PUSH1 0x40 SHL PUSH1 0x40 SWAP3 SWAP1 SWAP3 SHL SWAP2 SWAP1 SWAP2 AND OR OR DUP4 SSTORE JUMP JUMPDEST MLOAD PUSH12 0xFFFFFFFFFFFFFFFFFFFFFFFF DUP3 SLOAD SWAP2 DUP2 NOT SWAP1 PUSH1 0x60 SHL AND SWAP2 AND OR SWAP1 SSTORE ADD SWAP1 MLOAD ISZERO ISZERO PUSH1 0xFF DUP1 NOT DUP4 SLOAD AND SWAP2 AND OR SWAP1 SSTORE DUP1 RETURN JUMPDEST PUSH1 0x64 SWAP1 PUSH1 0x20 DUP5 MLOAD SWAP2 PUSH3 0x461BCD PUSH1 0xE5 SHL DUP4 MSTORE DUP3 ADD MSTORE PUSH1 0x12 PUSH1 0x24 DUP3 ADD MSTORE PUSH18 0x52756E20616C726561647920657869737473 PUSH1 0x70 SHL PUSH1 0x44 DUP3 ADD MSTORE REVERT JUMPDEST POP DUP3 CALLVALUE PUSH2 0x452 JUMPI PUSH1 0x20 CALLDATASIZE PUSH1 0x3 NOT ADD SLT PUSH2 0x452 JUMPI PUSH1 0x20 SWAP3 DUP3 SWAP2 CALLDATALOAD DUP2 MSTORE PUSH1 0x3 DUP5 MSTORE KECCAK256 SLOAD SWAP1 MLOAD SWAP1 DUP2 MSTORE RETURN JUMPDEST POP SWAP1 CALLVALUE PUSH2 0x262 JUMPI PUSH1 0x20 SWAP3 DUP4 PUSH1 0x3 NOT CALLDATASIZE ADD SLT PUSH2 0x1DC JUMPI SWAP1 DUP3 SWAP2 DUP2 DUP4 MLOAD PUSH2 0x895 DUP2 PUSH2 0xD3F JUMP JUMPDEST DUP2 DUP2 MSTORE DUP2 DUP8 DUP3 ADD MSTORE DUP2 DUP6 DUP3 ADD MSTORE DUP2 PUSH1 0x60 DUP3 ADD MSTORE DUP2 PUSH1 0x80 DUP3 ADD MSTORE DUP2 PUSH1 0xA0 DUP3 ADD MSTORE PUSH1 0xC0 ADD MSTORE CALLDATALOAD DUP2 MSTORE PUSH1 0x1 DUP5 MSTORE KECCAK256 SWAP2 DUP2 MLOAD SWAP2 PUSH2 0x8CD DUP4 PUSH2 0xD3F JUMP JUMPDEST DUP4 SLOAD SWAP4 DUP5 DUP5 MSTORE PUSH1 0x1 DUP2 ADD SLOAD SWAP3 PUSH4 0xFFFFFFFF SWAP3 DUP2 DUP7 ADD SWAP1 DUP5 DUP7 AND DUP3 MSTORE DUP1 DUP8 ADD SWAP5 DUP1 DUP8 DUP6 SHR AND DUP7 MSTORE PUSH2 0xFFFF SWAP6 DUP7 SWAP5 DUP3 PUSH1 0x60 DUP12 ADD SWAP6 DUP8 DUP12 DUP8 SHR AND DUP8 MSTORE PUSH1 0x80 DUP13 ADD SWAP9 DUP9 DUP13 PUSH1 0x50 SHR AND DUP11 MSTORE PUSH1 0xA0 DUP14 ADD SWAP12 PUSH1 0x60 SHR DUP13 MSTORE PUSH1 0x2 ADD SLOAD PUSH1 0xFF AND SWAP12 PUSH1 0xC0 ADD SWAP12 ISZERO ISZERO DUP13 MSTORE DUP6 MLOAD SWAP13 DUP14 MSTORE MLOAD AND SWAP1 DUP12 ADD MSTORE MLOAD AND SWAP1 DUP9 ADD MSTORE MLOAD AND PUSH1 0x60 DUP7 ADD MSTORE MLOAD AND PUSH1 0x80 DUP5 ADD MSTORE PUSH1 0x1 PUSH1 0xA0 SHL PUSH1 0x1 SWAP1 SUB SWAP1 MLOAD AND PUSH1 0xA0 DUP4 ADD MSTORE MLOAD ISZERO ISZERO PUSH1 0xC0 DUP3 ADD MSTORE PUSH1 0xE0 SWAP1 RETURN JUMPDEST POP DUP3 SWAP1 CALLVALUE PUSH2 0x452 JUMPI PUSH1 0x60 CALLDATASIZE PUSH1 0x3 NOT ADD SLT PUSH2 0x452 JUMPI PUSH32 0xA96AE3077D483C4B54A8D717A6B5F64CD935E7D7C38BEDB4F8F7AECA073A30DE SWAP2 PUSH1 0x80 SWAP2 PUSH2 0x9AB PUSH2 0xC8F JUMP JUMPDEST PUSH2 0x9B3 PUSH2 0xCA2 JUMP JUMPDEST DUP3 MLOAD SWAP4 CALLDATALOAD DUP5 MSTORE PUSH4 0xFFFFFFFF DUP1 SWAP3 AND PUSH1 0x20 DUP6 ADD MSTORE AND SWAP1 DUP3 ADD MSTORE CALLER PUSH1 0x60 DUP3 ADD MSTORE LOG1 DUP1 RETURN JUMPDEST POP DUP3 CALLVALUE PUSH2 0x452 JUMPI PUSH1 0x80 CALLDATASIZE PUSH1 0x3 NOT ADD SLT PUSH2 0x452 JUMPI DUP1 CALLDATALOAD SWAP1 PUSH2 0x9F3 PUSH2 0xC8F JUMP JUMPDEST SWAP3 PUSH2 0xFFFF SWAP2 PUSH1 0x44 CALLDATALOAD DUP4 DUP2 AND SWAP2 DUP3 DUP3 SUB PUSH2 0xB90 JUMPI PUSH1 0x64 CALLDATALOAD SWAP5 DUP6 AND SWAP5 DUP6 DUP2 SUB PUSH2 0xB8C JUMPI DUP7 DUP10 MSTORE PUSH1 0x1 PUSH1 0x20 MSTORE DUP5 DUP10 KECCAK256 SWAP3 PUSH1 0x1 DUP5 ADD SWAP1 DUP2 SLOAD SWAP4 PUSH4 0xFFFFFFFF SWAP6 DUP7 DUP7 AND ISZERO PUSH2 0xB53 JUMPI PUSH1 0x2 ADD SWAP5 PUSH1 0xFF DUP7 SLOAD AND PUSH2 0xB18 JUMPI PUSH1 0x60 SHR CALLER SUB PUSH2 0xAD5 JUMPI POP DUP2 SLOAD PUSH1 0x40 SWAP2 SWAP1 SWAP2 SHL PUSH2 0xFFFF PUSH1 0x40 SHL AND PUSH1 0x20 DUP12 SWAP1 SHL PUSH4 0xFFFFFFFF PUSH1 0x20 SHL AND PUSH12 0xFFFFFFFFFFFFFFFF00000000 NOT SWAP1 SWAP3 AND SWAP2 SWAP1 SWAP2 OR OR PUSH1 0x50 SWAP3 SWAP1 SWAP3 SHL PUSH2 0xFFFF PUSH1 0x50 SHL AND SWAP2 SWAP1 SWAP2 OR SWAP1 SSTORE PUSH1 0x1 PUSH1 0xFF NOT DUP3 SLOAD AND OR SWAP1 SSTORE DUP3 MLOAD SWAP6 AND DUP6 MSTORE PUSH1 0x20 DUP6 ADD MSTORE DUP4 ADD MSTORE PUSH32 0xEDACAA8E2A0034E7170A0AA44490014012724DFA25D7002A7FC867AA075BCEAD PUSH1 0x60 CALLER SWAP4 LOG3 DUP1 RETURN JUMPDEST PUSH1 0x64 SWAP1 PUSH1 0x20 DUP10 MLOAD SWAP2 PUSH3 0x461BCD PUSH1 0xE5 SHL DUP4 MSTORE DUP3 ADD MSTORE PUSH1 0x1B PUSH1 0x24 DUP3 ADD MSTORE PUSH32 0x4F6E6C79207375626D69747465722063616E20636F6D706C6574650000000000 PUSH1 0x44 DUP3 ADD MSTORE REVERT JUMPDEST DUP9 MLOAD PUSH3 0x461BCD PUSH1 0xE5 SHL DUP2 MSTORE PUSH1 0x20 DUP2 DUP5 ADD MSTORE PUSH1 0x15 PUSH1 0x24 DUP3 ADD MSTORE PUSH21 0x149D5B88185B1C9958591E4818DBDB5C1B195D1959 PUSH1 0x5A SHL PUSH1 0x44 DUP3 ADD MSTORE PUSH1 0x64 SWAP1 REVERT JUMPDEST DUP9 MLOAD PUSH3 0x461BCD PUSH1 0xE5 SHL DUP2 MSTORE PUSH1 0x20 DUP2 DUP5 ADD MSTORE PUSH1 0x13 PUSH1 0x24 DUP3 ADD MSTORE PUSH19 0x149D5B881B9BDD081A5B9A5D1A585B1A5E9959 PUSH1 0x6A SHL PUSH1 0x44 DUP3 ADD MSTORE PUSH1 0x64 SWAP1 REVERT JUMPDEST DUP9 DUP1 REVERT JUMPDEST DUP8 DUP1 REVERT JUMPDEST POP DUP3 CALLVALUE PUSH2 0x452 JUMPI PUSH1 0x20 CALLDATASIZE PUSH1 0x3 NOT ADD SLT PUSH2 0x452 JUMPI PUSH1 0xE0 SWAP3 DUP3 SWAP2 CALLDATALOAD DUP2 MSTORE PUSH1 0x1 PUSH1 0x20 MSTORE KECCAK256 SWAP1 DUP2 SLOAD SWAP2 PUSH1 0x2 PUSH1 0x1 DUP3 ADD SLOAD SWAP2 DUP3 PUSH4 0xFFFFFFFF SWAP5 PUSH1 0xFF PUSH2 0xFFFF SWAP5 DUP6 SWAP5 ADD SLOAD AND SWAP6 DUP2 MLOAD SWAP8 DUP9 MSTORE DUP1 DUP4 AND PUSH1 0x20 DUP10 ADD MSTORE DUP3 PUSH1 0x20 SHR AND DUP2 DUP9 ADD MSTORE SHR AND PUSH1 0x60 DUP6 ADD MSTORE DUP2 PUSH1 0x50 SHR AND PUSH1 0x80 DUP5 ADD MSTORE PUSH1 0x60 SHR PUSH1 0xA0 DUP4 ADD MSTORE ISZERO ISZERO PUSH1 0xC0 DUP3 ADD MSTORE RETURN JUMPDEST SWAP1 POP CALLVALUE PUSH2 0x452 JUMPI DUP2 PUSH1 0x3 NOT CALLDATASIZE ADD SLT PUSH2 0x452 JUMPI DUP2 PUSH1 0x20 SWAP4 PUSH1 0xFF SWAP3 PUSH2 0xC2D PUSH2 0xC77 JUMP JUMPDEST SWAP1 PUSH2 0xC63 DUP2 PUSH2 0x10E PUSH2 0xC3D PUSH2 0xC8F JUMP JUMPDEST DUP11 DUP4 ADD SWAP6 DUP7 SWAP1 PUSH1 0x8 SWAP3 PUSH4 0xFFFFFFFF PUSH1 0xE0 SHL DUP1 SWAP3 PUSH1 0xE0 SHL AND DUP4 MSTORE PUSH1 0xE0 SHL AND PUSH1 0x4 DUP3 ADD MSTORE ADD SWAP1 JUMP JUMPDEST MLOAD SWAP1 KECCAK256 DUP2 MSTORE DUP1 DUP6 MSTORE KECCAK256 SLOAD AND SWAP1 MLOAD SWAP1 ISZERO ISZERO DUP2 MSTORE RETURN JUMPDEST PUSH1 0x4 CALLDATALOAD SWAP1 PUSH4 0xFFFFFFFF DUP3 AND DUP3 SUB PUSH2 0xC8A JUMPI JUMP JUMPDEST PUSH1 0x0 DUP1 REVERT JUMPDEST PUSH1 0x24 CALLDATALOAD SWAP1 PUSH4 0xFFFFFFFF DUP3 AND DUP3 SUB PUSH2 0xC8A JUMPI JUMP JUMPDEST PUSH1 0x44 CALLDATALOAD SWAP1 PUSH4 0xFFFFFFFF DUP3 AND DUP3 SUB PUSH2 0xC8A JUMPI JUMP JUMPDEST PUSH1 0x64 CALLDATALOAD SWAP1 PUSH4 0xFFFFFFFF DUP3 AND DUP3 SUB PUSH2 0xC8A JUMPI JUMP JUMPDEST PUSH1 0x84 CALLDATALOAD SWAP1 PUSH4 0xFFFFFFFF DUP3 AND DUP3 SUB PUSH2 0xC8A JUMPI JUMP JUMPDEST PUSH1 0x40 SWAP1 PUSH1 0x3 NOT ADD SLT PUSH2 0xC8A JUMPI PUSH1 0x4 CALLDATALOAD SWAP1 PUSH1 0x24 CALLDATALOAD SWAP1 JUMP JUMPDEST DUP1 SLOAD DUP3 LT ISZERO PUSH2 0xD0D JUMPI PUSH1 0x0 MSTORE PUSH1 0x20 PUSH1 0x0 KECCAK256 SWAP1 PUSH1 0x1 SHL ADD SWAP1 PUSH1 0x0 SWAP1 JUMP JUMPDEST PUSH4 0x4E487B71 PUSH1 0xE0 SHL PUSH1 0x0 MSTORE PUSH1 0x32 PUSH1 0x4 MSTORE PUSH1 0x24 PUSH1 0x0 REVERT JUMPDEST DUP1 SLOAD DUP3 LT ISZERO PUSH2 0xD0D JUMPI PUSH1 0x0 MSTORE PUSH1 0x3 PUSH1 0x20 PUSH1 0x0 KECCAK256 SWAP2 MUL ADD SWAP1 PUSH1 0x0 SWAP1 JUMP JUMPDEST PUSH1 0xE0 DUP2 ADD SWAP1 DUP2 LT PUSH8 0xFFFFFFFFFFFFFFFF DUP3 GT OR PUSH2 0xD5B JUMPI PUSH1 0x40 MSTORE JUMP JUMPDEST PUSH4 0x4E487B71 PUSH1 0xE0 SHL PUSH1 0x0 MSTORE PUSH1 0x41 PUSH1 0x4 MSTORE PUSH1 0x24 PUSH1 0x0 REVERT JUMPDEST PUSH1 0xC0 DUP2 ADD SWAP1 DUP2 LT PUSH8 0xFFFFFFFFFFFFFFFF DUP3 GT OR PUSH2 0xD5B JUMPI PUSH1 0x40 MSTORE JUMP JUMPDEST SWAP1 PUSH1 0x1F DUP1 NOT SWAP2 ADD AND DUP2 ADD SWAP1 DUP2 LT PUSH8 0xFFFFFFFFFFFFFFFF DUP3 GT OR PUSH2 0xD5B JUMPI PUSH1 0x40 MSTORE JUMP INVALID LOG2 PUSH5 0x6970667358 0x22 SLT KECCAK256 0x1F 0xB1 PUSH15 0x38AE24BEFF95293DC74F7FA0ED163C 0xDA 0xD5 PUSH2 0xBC82 0x22 ISZERO 0xE8 0xC4 SWAP13 CREATE SWAP16 SELFBALANCE DUP13 PUSH5 0x736F6C6343 STOP ADDMOD XOR STOP CALLER "},"methodIdentifiers":{"completeSimulation(bytes32,uint32,uint16,uint16)":"13615122","deliveriesByRun(bytes32,uint256)":"51f40850","getDeliveryCount(bytes32)":"7adb273a","getKillCount(bytes32)":"25c3dc2e","getSimulationRun(bytes32)":"1eb67481","hasVisited(uint32,uint32)":"06d9e4b5","initializeSimulation(bytes32)":"2b500d92","killsByRun(bytes32,uint256)":"c86374df","markVisited(uint32,uint32)":"f40022a6","recordDrugDelivery(bytes32,uint32,uint32,uint32,uint32,uint16)":"999a6ff2","recordFood(uint256,uint32,uint32)":"15f769b0","recordTumorKill(bytes32,uint256,uint32,uint32,uint32,uint32)":"72c9c94b","simulations(bytes32)":"10756524","visited(bytes32)":"44d93dd4"}}}}}