{"contracts/FoodToken.sol":{"FoodToken":{"abi":[{"inputs":[{"internalType":"address","name":"_colony","type":"address"}],"stateMutability":"nonpayable","type":"constructor"},{"inputs":[{"internalType":"address","name":"sender","type":"address"},{"internalType":"uint256","name":"tokenId","type":"uint256"},{"internalType":"address","name":"owner","type":"address"}],"name":"ERC721IncorrectOwner","type":"error"},{"inputs":[{"internalType":"address","name":"operator","type":"address"},{"internalType":"uint256","name":"tokenId","type":"uint256"}],"name":"ERC721InsufficientApproval","type":"error"},{"inputs":[{"internalType":"address","name":"approver","type":"address"}],"name":"ERC721InvalidApprover","type":"error"},{"inputs":[{"internalType":"address","name":"operator","type":"address"}],"name":"ERC721InvalidOperator","type":"error"},{"inputs":[{"internalType":"address","name":"owner","type":"address"}],"name":"ERC721InvalidOwner","type":"error"},{"inputs":[{"internalType":"address","name":"receiver","type":"address"}],"name":"ERC721InvalidReceiver","type":"error"},{"inputs":[{"internalType":"address","name":"sender","type":"address"}],"name":"ERC721InvalidSender","type":"error"},{"inputs":[{"internalType":"uint256","name":"tokenId","type":"uint256"}],"name":"ERC721NonexistentToken","type":"error"},{"anonymous":false,"inputs":[{"indexed":true,"internalType":"address","name":"owner","type":"address"},{"indexed":true,"internalType":"address","name":"approved","type":"address"},{"indexed":true,"internalType":"uint256","name":"tokenId","type":"uint256"}],"name":"Approval","type":"event"},{"anonymous":false,"inputs":[{"indexed":true,"internalType":"address","name":"owner","type":"address"},{"indexed":true,"internalType":"address","name":"operator","type":"address"},{"indexed":false,"internalType":"bool","name":"approved","type":"bool"}],"name":"ApprovalForAll","type":"event"},{"anonymous":false,"inputs":[{"indexed":true,"internalType":"address","name":"from","type":"address"},{"indexed":true,"internalType":"address","name":"to","type":"address"},{"indexed":true,"internalType":"uint256","name":"tokenId","type":"uint256"}],"name":"Transfer","type":"event"},{"inputs":[{"internalType":"address","name":"to","type":"address"},{"internalType":"uint256","name":"tokenId","type":"uint256"}],"name":"approve","outputs":[],"stateMutability":"nonpayable","type":"function"},{"inputs":[{"internalType":"address","name":"owner","type":"address"}],"name":"balanceOf","outputs":[{"internalType":"uint256","name":"","type":"uint256"}],"stateMutability":"view","type":"function"},{"inputs":[],"name":"colony","outputs":[{"internalType":"address","name":"","type":"address"}],"stateMutability":"view","type":"function"},{"inputs":[{"internalType":"uint256","name":"tokenId","type":"uint256"}],"name":"getApproved","outputs":[{"internalType":"address","name":"","type":"address"}],"stateMutability":"view","type":"function"},{"inputs":[{"internalType":"address","name":"owner","type":"address"},{"internalType":"address","name":"operator","type":"address"}],"name":"isApprovedForAll","outputs":[{"internalType":"bool","name":"","type":"bool"}],"stateMutability":"view","type":"function"},{"inputs":[{"internalType":"address","name":"to","type":"address"}],"name":"mint","outputs":[],"stateMutability":"nonpayable","type":"function"},{"inputs":[],"name":"name","outputs":[{"internalType":"string","name":"","type":"string"}],"stateMutability":"view","type":"function"},{"inputs":[],"name":"nextId","outputs":[{"internalType":"uint256","name":"","type":"uint256"}],"stateMutability":"view","type":"function"},{"inputs":[{"internalType":"uint256","name":"tokenId","type":"uint256"}],"name":"ownerOf","outputs":[{"internalType":"address","name":"","type":"address"}],"stateMutability":"view","type":"function"},{"inputs":[{"internalType":"address","name":"from","type":"address"},{"internalType":"address","name":"to","type":"address"},{"internalType":"uint256","name":"tokenId","type":"uint256"}],"name":"safeTransferFrom","outputs":[],"stateMutability":"nonpayable","type":"function"},{"inputs":[{"internalType":"address","name":"from","type":"address"},{"internalType":"address","name":"to","type":"address"},{"internalType":"uint256","name":"tokenId","type":"uint256"},{"internalType":"bytes","name":"data","type":"bytes"}],"name":"safeTransferFrom","outputs":[],"stateMutability":"nonpayable","type":"function"},{"inputs":[{"internalType":"address","name":"operator","type":"address"},{"internalType":"bool","name":"approved","type":"bool"}],"name":"setApprovalForAll","outputs":[],"stateMutability":"nonpayable","type":"function"},{"inputs":[{"internalType":"bytes4","name":"interfaceId","type":"bytes4"}],"name":"supportsInterface","outputs":[{"internalType":"bool","name":"","type":"bool"}],"stateMutability":"view","type":"function"},{"inputs":[],"name":"symbol","outputs":[{"internalType":"string","name":"","type":"string"}],"stateMutability":"view","type":"function"},{"inputs":[{"internalType":"uint256","name":"tokenId","type":"uint256"}],"name":"tokenURI","outputs":[{"internalType":"string","name":"","type":"string"}],"stateMutability":"view","type":"function"},{"inputs":[{"internalType":"address","name":"from","type":"address"},{"internalType":"address","name":"to","type":"address"},{"internalType":"uint256","name":"tokenId","type":"uint256"}],"name":"transferFrom","outputs":[],"stateMutability":"nonpayable","type":"function"}],"evm":{"bytecode":{"linkReferences":{},"object":"6080346200035f57601f601f196001600160401b03620011d238819003848101841686018381118782101762000349578692829160405283396020958691810103126200035f57516001600160a01b03811693908490036200035f576200006562000364565b92601084526f105b9d195b1b1a59d95b98d9519bdbd960821b868501526200008c62000364565b9060048252631193d3d160e21b8783015284519084821162000349576000918254966001978881811c911680156200033e575b8b8210146200032a57908187849311620002d7575b508a908783116001146200027457859262000268575b5050600019600383901b1c191690871b1782555b8251948511620002545785548681811c9116801562000249575b898210146200023557848111620001ed575b50879385116001146200018857508394959650926200017c575b5050600019600383901b1c191690821b1790555b600780546001600160a01b031916919091179055604051610e4d9081620003858239f35b01519050388062000144565b8493929193169685845280842093905b888210620001d55750508385969710620001bb575b505050811b01905562000158565b015160001960f88460031b161c19169055388080620001ad565b80878596829496860151815501950193019062000198565b8683528883208580880160051c8201928b89106200022b575b0160051c019087905b8281106200021f5750506200012a565b8481550187906200020f565b9250819262000206565b634e487b7160e01b83526022600452602483fd5b90607f169062000118565b634e487b7160e01b82526041600452602482fd5b015190503880620000ea565b90848a9416918680528c8720928d88905b828210620002bf5750508411620002a5575b505050811b018255620000fe565b015160001960f88460031b161c1916905538808062000297565b8385015186558d979095019493840193018e62000285565b9091508480528a85208780850160051c8201928d861062000320575b918b91869594930160051c01915b82811062000311575050620000d4565b8781558594508b910162000301565b92508192620002f3565b634e487b7160e01b85526022600452602485fd5b90607f1690620000bf565b634e487b7160e01b600052604160045260246000fd5b600080fd5b60408051919082016001600160401b03811183821017620003495760405256fe608060408181526004918236101561001657600080fd5b600092833560e01c91826301ffc9a71461096e5750816306fdde03146108a1578163081812fc14610865578163095ea7b31461078857816323b872dd14610770578163349ff7701461074757816342842e0e1461071857816361b8ce8c146106f95781636352211e146106c85781636a6278421461042557816370a08231146103d057816395d89b41146102b3578163a22cb46514610211578163b88d4fde14610177578163c87b56dd14610125575063e985e9c5146100d557600080fd5b3461012157806003193601126101215760ff816020936100f3610a19565b6100fb610a34565b6001600160a01b0391821683526005875283832091168252855220549151911615158152f35b5080fd5b838334610121576020366003190112610121576101456101739335610c8e565b5081815161015281610a7f565b5280519161015f83610a7f565b8252519182916020835260208301906109d9565b0390f35b9190503461020d57608036600319011261020d57610193610a19565b61019b610a34565b60443591856064359567ffffffffffffffff8711610121573660238801121561012157860135956101d76101ce88610ad3565b96519687610ab1565b8686523660248883010111610121578661020a976024602093018389013786010152610204838383610aef565b33610cc9565b80f35b8280fd5b9190503461020d578060031936011261020d5761022c610a19565b90602435918215158093036102af576001600160a01b031692831561029a5750338452600560205280842083855260205280842060ff1981541660ff8416179055519081527f17307eab39ab6107e8899845ad3d59bd9653f200f220920489ca2b5937696c3160203392a380f35b836024925191630b61174360e31b8352820152fd5b8480fd5b8284346103cd57806003193601126103cd5781519181600192600154938460011c91600186169586156103c3575b60209687851081146103b0578899509688969785829a52918260001461038957505060011461032d575b505050610173929161031e910385610ab1565b519282849384528301906109d9565b9190869350600183527fb10e2d527612073b26eecdfd717e6a320cf44b4afac2b0732d9fcbe2b7fa0cf65b828410610371575050508201018161031e61017361030b565b8054848a018601528895508794909301928101610358565b60ff19168782015293151560051b8601909301935084925061031e9150610173905061030b565b634e487b7160e01b835260228a52602483fd5b92607f16926102e1565b80fd5b8284346103cd5760203660031901126103cd576001600160a01b036103f3610a19565b169283156104105750806020938392526003845220549051908152f35b91516322718ad960e21b815291820152602490fd5b9190503461020d57602090816003193601126106c457610443610a19565b6007546001600160a01b039391908416330361068a576006549060001990818314610677576001830160065584519161047b83610a7f565b88835286821696871561066057878591828c5260028852888c205416801515938461062e575b50818c5260038852888c2080546001019055828c5260028852888c2080546001600160a01b031916831790557fddf252ad1be2c89b69c2b068fc378daa952ba7f163c4a11628f55a4df523b3ef8c80a4610617573b6104fe578680f35b8261053691855180938192630a85bd0160e11b96878452338c8501528c602485015260448401526080606484015260848301906109d9565b03818a895af18791816105d3575b506105a05750503d15610597573d61055b81610ad3565b9061056884519283610ab1565b81528095823d92013e5b8451948561059157505051633250574960e11b81529182015260249150fd5b85925001fd5b60609450610572565b6001600160e01b0319160390506105be575050503880808080808680f35b51633250574960e11b81529182015260249150fd5b9091508381813d8311610610575b6105eb8183610ab1565b8101031261060c57516001600160e01b03198116810361060c579038610544565b8780fd5b503d6105e1565b84516339e3563760e11b8152808801899052602490fd5b600084815260046020526040902080546001600160a01b0319169055818d5260038952898d20908154019055386104a1565b8651633250574960e11b8152808a018b9052602490fd5b634e487b7160e01b885260118752602488fd5b825162461bcd60e51b8152808601839052601460248201527313db9b1e4818dbdb1bdb9e481b585e481b5a5b9d60621b6044820152606490fd5b8380fd5b8284346103cd5760203660031901126103cd57506106e860209235610c8e565b90516001600160a01b039091168152f35b5050346101215781600319360112610121576020906006549051908152f35b5050346101215761020a9061072c36610a4a565b9192519261073984610a7f565b858452610204838383610aef565b50503461012157816003193601126101215760075490516001600160a01b039091168152602090f35b83346103cd5761020a61078236610a4a565b91610aef565b9190503461020d578060031936011261020d576107a3610a19565b916024356107b081610c8e565b33151580610852575b80610829575b610813576001600160a01b039485169482918691167f8c5be1e5ebec7d5bd14f71427d1e84f3dd0314c0f7b2291e5b200ac8c7c3b9258880a48452602052822080546001600160a01b031916909117905580f35b835163a9fbf51f60e01b81523381850152602490fd5b506001600160a01b03811686526005602090815284872033885290528386205460ff16156107bf565b506001600160a01b0381163314156107b9565b90503461020d57602036600319011261020d5791826020933561088781610c8e565b50825283528190205490516001600160a01b039091168152f35b8284346103cd57806003193601126103cd578151918182549260018460011c9160018616958615610964575b60209687851081146103b0578899509688969785829a52918260001461038957505060011461090957505050610173929161031e910385610ab1565b91908693508280527f290decd9548b62a8d60345a988386fc84ba6bc95484008f6362f93160ef3e5635b82841061094c575050508201018161031e61017361030b565b8054848a018601528895508794909301928101610933565b92607f16926108cd565b84913461020d57602036600319011261020d573563ffffffff60e01b811680910361020d57602092506380ac58cd60e01b81149081156109c8575b81156109b7575b5015158152f35b6301ffc9a760e01b149050836109b0565b635b5e139f60e01b811491506109a9565b919082519283825260005b848110610a05575050826000602080949584010152601f8019910116010190565b6020818301810151848301820152016109e4565b600435906001600160a01b0382168203610a2f57565b600080fd5b602435906001600160a01b0382168203610a2f57565b6060906003190112610a2f576001600160a01b03906004358281168103610a2f57916024359081168103610a2f579060443590565b6020810190811067ffffffffffffffff821117610a9b57604052565b634e487b7160e01b600052604160045260246000fd5b90601f8019910116810190811067ffffffffffffffff821117610a9b57604052565b67ffffffffffffffff8111610a9b57601f01601f191660200190565b6001600160a01b039182169290918315610c7557600092828452826020956002875260409684888820541696879133151580610bdf575b509060027fddf252ad1be2c89b69c2b068fc378daa952ba7f163c4a11628f55a4df523b3ef9284610bac575b858352600381528b8320805460010190558683525289812080546001600160a01b0319168517905580a41692838303610b8b5750505050565b6064945051926364283d7b60e01b8452600484015260248301526044820152fd5b600087815260046020526040902080546001600160a01b0319169055848352600381528b83208054600019019055610b52565b91939450915080610c34575b15610bfb57859291879138610b26565b878688610c18576024915190637e27328960e01b82526004820152fd5b604491519063177e802f60e01b82523360048301526024820152fd5b503387148015610c59575b80610beb5750858252600481523385898420541614610beb565b5086825260058152878220338352815260ff8883205416610c3f565b604051633250574960e11b815260006004820152602490fd5b6000818152600260205260409020546001600160a01b0316908115610cb1575090565b60249060405190637e27328960e01b82526004820152fd5b90939192833b610cdb575b5050505050565b604051630a85bd0160e11b8082526001600160a01b039384166004830152958316602482015260448101919091526080606482015294921692602092918590610d289060848301906109d9565b039483816000978189895af1869181610dd3575b50610d9d575050503d600014610d94573d610d5681610ad3565b90610d646040519283610ab1565b81528093823d92013e5b82519283610d8f57604051633250574960e11b815260048101849052602490fd5b019050fd5b60609250610d6e565b919450915063ffffffff60e01b1603610dbb57503880808080610cd4565b60249060405190633250574960e11b82526004820152fd5b9091508481813d8311610e10575b610deb8183610ab1565b81010312610e0c57516001600160e01b031981168103610e0c579038610d3c565b8680fd5b503d610de156fea2646970667358221220030bb0ab0cebcac86070c08722d292e566fdb848a8a44344a4059c57cb7e7cbb64736f6c63430008180033","opcodes":"PUSH1 0x80 CALLVALUE PUSH3 0x35F JUMPI PUSH1 0x1F PUSH1 0x1F NOT PUSH1 0x1 PUSH1 0x1 PUSH1 0x40 SHL SUB PUSH3 0x11D2 CODESIZE DUP2 SWAP1 SUB DUP5 DUP2 ADD DUP5 AND DUP7 ADD DUP4 DUP2 GT DUP8 DUP3 LT OR PUSH3 0x349 JUMPI DUP7 SWAP3 DUP3 SWAP2 PUSH1 0x40 MSTORE DUP4 CODECOPY PUSH1 0x20 SWAP6 DUP7 SWAP2 DUP2 ADD SUB SLT PUSH3 0x35F JUMPI MLOAD PUSH1 0x1 PUSH1 0x1 PUSH1 0xA0 SHL SUB DUP2 AND SWAP4 SWAP1 DUP5 SWAP1 SUB PUSH3 0x35F JUMPI PUSH3 0x65 PUSH3 0x364 JUMP JUMPDEST SWAP3 PUSH1 0x10 DUP5 MSTORE PUSH16 0x105B9D195B1B1A59D95B98D9519BDBD9 PUSH1 0x82 SHL DUP7 DUP6 ADD MSTORE PUSH3 0x8C PUSH3 0x364 JUMP JUMPDEST SWAP1 PUSH1 0x4 DUP3 MSTORE PUSH4 0x1193D3D1 PUSH1 0xE2 SHL DUP8 DUP4 ADD MSTORE DUP5 MLOAD SWAP1 DUP5 DUP3 GT PUSH3 0x349 JUMPI PUSH1 0x0 SWAP2 DUP3 SLOAD SWAP7 PUSH1 0x1 SWAP8 DUP9 DUP2 DUP2 SHR SWAP2 AND DUP1 ISZERO PUSH3 0x33E JUMPI JUMPDEST DUP12 DUP3 LT EQ PUSH3 0x32A JUMPI SWAP1 DUP2 DUP8 DUP5 SWAP4 GT PUSH3 0x2D7 JUMPI JUMPDEST POP DUP11 SWAP1 DUP8 DUP4 GT PUSH1 0x1 EQ PUSH3 0x274 JUMPI DUP6 SWAP3 PUSH3 0x268 JUMPI JUMPDEST POP POP PUSH1 0x0 NOT PUSH1 0x3 DUP4 SWAP1 SHL SHR NOT AND SWAP1 DUP8 SHL OR DUP3 SSTORE JUMPDEST DUP3 MLOAD SWAP5 DUP6 GT PUSH3 0x254 JUMPI DUP6 SLOAD DUP7 DUP2 DUP2 SHR SWAP2 AND DUP1 ISZERO PUSH3 0x249 JUMPI JUMPDEST DUP10 DUP3 LT EQ PUSH3 0x235 JUMPI DUP5 DUP2 GT PUSH3 0x1ED JUMPI JUMPDEST POP DUP8 SWAP4 DUP6 GT PUSH1 0x1 EQ PUSH3 0x188 JUMPI POP DUP4 SWAP5 SWAP6 SWAP7 POP SWAP3 PUSH3 0x17C JUMPI JUMPDEST POP POP PUSH1 0x0 NOT PUSH1 0x3 DUP4 SWAP1 SHL SHR NOT AND SWAP1 DUP3 SHL OR SWAP1 SSTORE JUMPDEST PUSH1 0x7 DUP1 SLOAD PUSH1 0x1 PUSH1 0x1 PUSH1 0xA0 SHL SUB NOT AND SWAP2 SWAP1 SWAP2 OR SWAP1 SSTORE PUSH1 0x40 MLOAD PUSH2 0xE4D SWAP1 DUP2 PUSH3 0x385 DUP3 CODECOPY RETURN JUMPDEST ADD MLOAD SWAP1 POP CODESIZE DUP1 PUSH3 0x144 JUMP JUMPDEST DUP5 SWAP4 SWAP3 SWAP2 SWAP4 AND SWAP7 DUP6 DUP5 MSTORE DUP1 DUP5 KECCAK256 SWAP4 SWAP1 JUMPDEST DUP9 DUP3 LT PUSH3 0x1D5 JUMPI POP POP DUP4 DUP6 SWAP7 SWAP8 LT PUSH3 0x1BB JUMPI JUMPDEST POP POP POP DUP2 SHL ADD SWAP1 SSTORE PUSH3 0x158 JUMP JUMPDEST ADD MLOAD PUSH1 0x0 NOT PUSH1 0xF8 DUP5 PUSH1 0x3 SHL AND SHR NOT AND SWAP1 SSTORE CODESIZE DUP1 DUP1 PUSH3 0x1AD JUMP JUMPDEST DUP1 DUP8 DUP6 SWAP7 DUP3 SWAP5 SWAP7 DUP7 ADD MLOAD DUP2 SSTORE ADD SWAP6 ADD SWAP4 ADD SWAP1 PUSH3 0x198 JUMP JUMPDEST DUP7 DUP4 MSTORE DUP9 DUP4 KECCAK256 DUP6 DUP1 DUP9 ADD PUSH1 0x5 SHR DUP3 ADD SWAP3 DUP12 DUP10 LT PUSH3 0x22B JUMPI JUMPDEST ADD PUSH1 0x5 SHR ADD SWAP1 DUP8 SWAP1 JUMPDEST DUP3 DUP2 LT PUSH3 0x21F JUMPI POP POP PUSH3 0x12A JUMP JUMPDEST DUP5 DUP2 SSTORE ADD DUP8 SWAP1 PUSH3 0x20F JUMP JUMPDEST SWAP3 POP DUP2 SWAP3 PUSH3 0x206 JUMP JUMPDEST PUSH4 0x4E487B71 PUSH1 0xE0 SHL DUP4 MSTORE PUSH1 0x22 PUSH1 0x4 MSTORE PUSH1 0x24 DUP4 REVERT JUMPDEST SWAP1 PUSH1 0x7F AND SWAP1 PUSH3 0x118 JUMP JUMPDEST PUSH4 0x4E487B71 PUSH1 0xE0 SHL DUP3 MSTORE PUSH1 0x41 PUSH1 0x4 MSTORE PUSH1 0x24 DUP3 REVERT JUMPDEST ADD MLOAD SWAP1 POP CODESIZE DUP1 PUSH3 0xEA JUMP JUMPDEST SWAP1 DUP5 DUP11 SWAP5 AND SWAP2 DUP7 DUP1 MSTORE DUP13 DUP8 KECCAK256 SWAP3 DUP14 DUP9 SWAP1 JUMPDEST DUP3 DUP3 LT PUSH3 0x2BF JUMPI POP POP DUP5 GT PUSH3 0x2A5 JUMPI JUMPDEST POP POP POP DUP2 SHL ADD DUP3 SSTORE PUSH3 0xFE JUMP JUMPDEST ADD MLOAD PUSH1 0x0 NOT PUSH1 0xF8 DUP5 PUSH1 0x3 SHL AND SHR NOT AND SWAP1 SSTORE CODESIZE DUP1 DUP1 PUSH3 0x297 JUMP JUMPDEST DUP4 DUP6 ADD MLOAD DUP7 SSTORE DUP14 SWAP8 SWAP1 SWAP6 ADD SWAP5 SWAP4 DUP5 ADD SWAP4 ADD DUP15 PUSH3 0x285 JUMP JUMPDEST SWAP1 SWAP2 POP DUP5 DUP1 MSTORE DUP11 DUP6 KECCAK256 DUP8 DUP1 DUP6 ADD PUSH1 0x5 SHR DUP3 ADD SWAP3 DUP14 DUP7 LT PUSH3 0x320 JUMPI JUMPDEST SWAP2 DUP12 SWAP2 DUP7 SWAP6 SWAP5 SWAP4 ADD PUSH1 0x5 SHR ADD SWAP2 JUMPDEST DUP3 DUP2 LT PUSH3 0x311 JUMPI POP POP PUSH3 0xD4 JUMP JUMPDEST DUP8 DUP2 SSTORE DUP6 SWAP5 POP DUP12 SWAP2 ADD PUSH3 0x301 JUMP JUMPDEST SWAP3 POP DUP2 SWAP3 PUSH3 0x2F3 JUMP JUMPDEST PUSH4 0x4E487B71 PUSH1 0xE0 SHL DUP6 MSTORE PUSH1 0x22 PUSH1 0x4 MSTORE PUSH1 0x24 DUP6 REVERT JUMPDEST SWAP1 PUSH1 0x7F AND SWAP1 PUSH3 0xBF JUMP JUMPDEST PUSH4 0x4E487B71 PUSH1 0xE0 SHL PUSH1 0x0 MSTORE PUSH1 0x41 PUSH1 0x4 MSTORE PUSH1 0x24 PUSH1 0x0 REVERT JUMPDEST PUSH1 0x0 DUP1 REVERT JUMPDEST PUSH1 0x40 DUP1 MLOAD SWAP2 SWAP1 DUP3 ADD PUSH1 0x1 PUSH1 0x1 PUSH1 0x40 SHL SUB DUP2 GT DUP4 DUP3 LT OR PUSH3 0x349 JUMPI PUSH1 0x40 MSTORE JUMP INVALID PUSH1 0x80 PUSH1 0x40 DUP2 DUP2 MSTORE PUSH1 0x4 SWAP2 DUP3 CALLDATASIZE LT ISZERO PUSH2 0x16 JUMPI PUSH1 0x0 DUP1 REVERT JUMPDEST PUSH1 0x0 SWAP3 DUP4 CALLDATALOAD PUSH1 0xE0 SHR SWAP2 DUP3 PUSH4 0x1FFC9A7 EQ PUSH2 0x96E JUMPI POP DUP2 PUSH4 0x6FDDE03 EQ PUSH2 0x8A1 JUMPI DUP2 PUSH4 0x81812FC EQ PUSH2 0x865 JUMPI DUP2 PUSH4 0x95EA7B3 EQ PUSH2 0x788 JUMPI DUP2 PUSH4 0x23B872DD EQ PUSH2 0x770 JUMPI DUP2 PUSH4 0x349FF770 EQ PUSH2 0x747 JUMPI DUP2 PUSH4 0x42842E0E EQ PUSH2 0x718 JUMPI DUP2 PUSH4 0x61B8CE8C EQ PUSH2 0x6F9 JUMPI DUP2 PUSH4 0x6352211E EQ PUSH2 0x6C8 JUMPI DUP2 PUSH4 0x6A627842 EQ PUSH2 0x425 JUMPI DUP2 PUSH4 0x70A08231 EQ PUSH2 0x3D0 JUMPI DUP2 PUSH4 0x95D89B41 EQ PUSH2 0x2B3 JUMPI DUP2 PUSH4 0xA22CB465 EQ PUSH2 0x211 JUMPI DUP2 PUSH4 0xB88D4FDE EQ PUSH2 0x177 JUMPI DUP2 PUSH4 0xC87B56DD EQ PUSH2 0x125 JUMPI POP PUSH4 0xE985E9C5 EQ PUSH2 0xD5 JUMPI PUSH1 0x0 DUP1 REVERT JUMPDEST CALLVALUE PUSH2 0x121 JUMPI DUP1 PUSH1 0x3 NOT CALLDATASIZE ADD SLT PUSH2 0x121 JUMPI PUSH1 0xFF DUP2 PUSH1 0x20 SWAP4 PUSH2 0xF3 PUSH2 0xA19 JUMP JUMPDEST PUSH2 0xFB PUSH2 0xA34 JUMP JUMPDEST PUSH1 0x1 PUSH1 0x1 PUSH1 0xA0 SHL SUB SWAP2 DUP3 AND DUP4 MSTORE PUSH1 0x5 DUP8 MSTORE DUP4 DUP4 KECCAK256 SWAP2 AND DUP3 MSTORE DUP6 MSTORE KECCAK256 SLOAD SWAP2 MLOAD SWAP2 AND ISZERO ISZERO DUP2 MSTORE RETURN JUMPDEST POP DUP1 REVERT JUMPDEST DUP4 DUP4 CALLVALUE PUSH2 0x121 JUMPI PUSH1 0x20 CALLDATASIZE PUSH1 0x3 NOT ADD SLT PUSH2 0x121 JUMPI PUSH2 0x145 PUSH2 0x173 SWAP4 CALLDATALOAD PUSH2 0xC8E JUMP JUMPDEST POP DUP2 DUP2 MLOAD PUSH2 0x152 DUP2 PUSH2 0xA7F JUMP JUMPDEST MSTORE DUP1 MLOAD SWAP2 PUSH2 0x15F DUP4 PUSH2 0xA7F JUMP JUMPDEST DUP3 MSTORE MLOAD SWAP2 DUP3 SWAP2 PUSH1 0x20 DUP4 MSTORE PUSH1 0x20 DUP4 ADD SWAP1 PUSH2 0x9D9 JUMP JUMPDEST SUB SWAP1 RETURN JUMPDEST SWAP2 SWAP1 POP CALLVALUE PUSH2 0x20D JUMPI PUSH1 0x80 CALLDATASIZE PUSH1 0x3 NOT ADD SLT PUSH2 0x20D JUMPI PUSH2 0x193 PUSH2 0xA19 JUMP JUMPDEST PUSH2 0x19B PUSH2 0xA34 JUMP JUMPDEST PUSH1 0x44 CALLDATALOAD SWAP2 DUP6 PUSH1 0x64 CALLDATALOAD SWAP6 PUSH8 0xFFFFFFFFFFFFFFFF DUP8 GT PUSH2 0x121 JUMPI CALLDATASIZE PUSH1 0x23 DUP9 ADD SLT ISZERO PUSH2 0x121 JUMPI DUP7 ADD CALLDATALOAD SWAP6 PUSH2 0x1D7 PUSH2 0x1CE DUP9 PUSH2 0xAD3 JUMP JUMPDEST SWAP7 MLOAD SWAP7 DUP8 PUSH2 0xAB1 JUMP JUMPDEST DUP7 DUP7 MSTORE CALLDATASIZE PUSH1 0x24 DUP9 DUP4 ADD ADD GT PUSH2 0x121 JUMPI DUP7 PUSH2 0x20A SWAP8 PUSH1 0x24 PUSH1 0x20 SWAP4 ADD DUP4 DUP10 ADD CALLDATACOPY DUP7 ADD ADD MSTORE PUSH2 0x204 DUP4 DUP4 DUP4 PUSH2 0xAEF JUMP JUMPDEST CALLER PUSH2 0xCC9 JUMP JUMPDEST DUP1 RETURN JUMPDEST DUP3 DUP1 REVERT JUMPDEST SWAP2 SWAP1 POP CALLVALUE PUSH2 0x20D JUMPI DUP1 PUSH1 0x3 NOT CALLDATASIZE ADD SLT PUSH2 0x20D JUMPI PUSH2 0x22C PUSH2 0xA19 JUMP JUMPDEST SWAP1 PUSH1 0x24 CALLDATALOAD SWAP2 DUP3 ISZERO ISZERO DUP1 SWAP4 SUB PUSH2 0x2AF JUMPI PUSH1 0x1 PUSH1 0x1 PUSH1 0xA0 SHL SUB AND SWAP3 DUP4 ISZERO PUSH2 0x29A JUMPI POP CALLER DUP5 MSTORE PUSH1 0x5 PUSH1 0x20 MSTORE DUP1 DUP5 KECCAK256 DUP4 DUP6 MSTORE PUSH1 0x20 MSTORE DUP1 DUP5 KECCAK256 PUSH1 0xFF NOT DUP2 SLOAD AND PUSH1 0xFF DUP5 AND OR SWAP1 SSTORE MLOAD SWAP1 DUP2 MSTORE PUSH32 0x17307EAB39AB6107E8899845AD3D59BD9653F200F220920489CA2B5937696C31 PUSH1 0x20 CALLER SWAP3 LOG3 DUP1 RETURN JUMPDEST DUP4 PUSH1 0x24 SWAP3 MLOAD SWAP2 PUSH4 0xB611743 PUSH1 0xE3 SHL DUP4 MSTORE DUP3 ADD MSTORE REVERT JUMPDEST DUP5 DUP1 REVERT JUMPDEST DUP3 DUP5 CALLVALUE PUSH2 0x3CD JUMPI DUP1 PUSH1 0x3 NOT CALLDATASIZE ADD SLT PUSH2 0x3CD JUMPI DUP2 MLOAD SWAP2 DUP2 PUSH1 0x1 SWAP3 PUSH1 0x1 SLOAD SWAP4 DUP5 PUSH1 0x1 SHR SWAP2 PUSH1 0x1 DUP7 AND SWAP6 DUP7 ISZERO PUSH2 0x3C3 JUMPI JUMPDEST PUSH1 0x20 SWAP7 DUP8 DUP6 LT DUP2 EQ PUSH2 0x3B0 JUMPI DUP9 SWAP10 POP SWAP7 DUP9 SWAP7 SWAP8 DUP6 DUP3 SWAP11 MSTORE SWAP2 DUP3 PUSH1 0x0 EQ PUSH2 0x389 JUMPI POP POP PUSH1 0x1 EQ PUSH2 0x32D JUMPI JUMPDEST POP POP POP PUSH2 0x173 SWAP3 SWAP2 PUSH2 0x31E SWAP2 SUB DUP6 PUSH2 0xAB1 JUMP JUMPDEST MLOAD SWAP3 DUP3 DUP5 SWAP4 DUP5 MSTORE DUP4 ADD SWAP1 PUSH2 0x9D9 JUMP JUMPDEST SWAP2 SWAP1 DUP7 SWAP4 POP PUSH1 0x1 DUP4 MSTORE PUSH32 0xB10E2D527612073B26EECDFD717E6A320CF44B4AFAC2B0732D9FCBE2B7FA0CF6 JUMPDEST DUP3 DUP5 LT PUSH2 0x371 JUMPI POP POP POP DUP3 ADD ADD DUP2 PUSH2 0x31E PUSH2 0x173 PUSH2 0x30B JUMP JUMPDEST DUP1 SLOAD DUP5 DUP11 ADD DUP7 ADD MSTORE DUP9 SWAP6 POP DUP8 SWAP5 SWAP1 SWAP4 ADD SWAP3 DUP2 ADD PUSH2 0x358 JUMP JUMPDEST PUSH1 0xFF NOT AND DUP8 DUP3 ADD MSTORE SWAP4 ISZERO ISZERO PUSH1 0x5 SHL DUP7 ADD SWAP1 SWAP4 ADD SWAP4 POP DUP5 SWAP3 POP PUSH2 0x31E SWAP2 POP PUSH2 0x173 SWAP1 POP PUSH2 0x30B JUMP JUMPDEST PUSH4 0x4E487B71 PUSH1 0xE0 SHL DUP4 MSTORE PUSH1 0x22 DUP11 MSTORE PUSH1 0x24 DUP4 REVERT JUMPDEST SWAP3 PUSH1 0x7F AND SWAP3 PUSH2 0x2E1 JUMP JUMPDEST DUP1 REVERT JUMPDEST DUP3 DUP5 CALLVALUE PUSH2 0x3CD JUMPI PUSH1 0x20 CALLDATASIZE PUSH1 0x3 NOT ADD SLT PUSH2 0x3CD JUMPI PUSH1 0x1 PUSH1 0x1 PUSH1 0xA0 SHL SUB PUSH2 0x3F3 PUSH2 0xA19 JUMP JUMPDEST AND SWAP3 DUP4 ISZERO PUSH2 0x410 JUMPI POP DUP1 PUSH1 0x20 SWAP4 DUP4 SWAP3 MSTORE PUSH1 0x3 DUP5 MSTORE KECCAK256 SLOAD SWAP1 MLOAD SWAP1 DUP2 MSTORE RETURN JUMPDEST SWAP2 MLOAD PUSH4 0x22718AD9 PUSH1 0xE2 SHL DUP2 MSTORE SWAP2 DUP3 ADD MSTORE PUSH1 0x24 SWAP1 REVERT JUMPDEST SWAP2 SWAP1 POP CALLVALUE PUSH2 0x20D JUMPI PUSH1 0x20 SWAP1 DUP2 PUSH1 0x3 NOT CALLDATASIZE ADD SLT PUSH2 0x6C4 JUMPI PUSH2 0x443 PUSH2 0xA19 JUMP JUMPDEST PUSH1 0x7 SLOAD PUSH1 0x1 PUSH1 0x1 PUSH1 0xA0 SHL SUB SWAP4 SWAP2 SWAP1 DUP5 AND CALLER SUB PUSH2 0x68A JUMPI PUSH1 0x6 SLOAD SWAP1 PUSH1 0x0 NOT SWAP1 DUP2 DUP4 EQ PUSH2 0x677 JUMPI PUSH1 0x1 DUP4 ADD PUSH1 0x6 SSTORE DUP5 MLOAD SWAP2 PUSH2 0x47B DUP4 PUSH2 0xA7F JUMP JUMPDEST DUP9 DUP4 MSTORE DUP7 DUP3 AND SWAP7 DUP8 ISZERO PUSH2 0x660 JUMPI DUP8 DUP6 SWAP2 DUP3 DUP13 MSTORE PUSH1 0x2 DUP9 MSTORE DUP9 DUP13 KECCAK256 SLOAD AND DUP1 ISZERO ISZERO SWAP4 DUP5 PUSH2 0x62E JUMPI JUMPDEST POP DUP2 DUP13 MSTORE PUSH1 0x3 DUP9 MSTORE DUP9 DUP13 KECCAK256 DUP1 SLOAD PUSH1 0x1 ADD SWAP1 SSTORE DUP3 DUP13 MSTORE PUSH1 0x2 DUP9 MSTORE DUP9 DUP13 KECCAK256 DUP1 SLOAD PUSH1 0x1 PUSH1 0x1 PUSH1 0xA0 SHL SUB NOT AND DUP4 OR SWAP1 SSTORE PUSH32 0xDDF252AD1BE2C89B69C2B068FC378DAA952BA7F163C4A11628F55A4DF523B3EF DUP13 DUP1 LOG4 PUSH2 0x617 JUMPI EXTCODESIZE PUSH2 0x4FE JUMPI DUP7 DUP1 RETURN JUMPDEST DUP3 PUSH2 0x536 SWAP2 DUP6 MLOAD DUP1 SWAP4 DUP2 SWAP3 PUSH4 0xA85BD01 PUSH1 0xE1 SHL SWAP7 DUP8 DUP5 MSTORE CALLER DUP13 DUP6 ADD MSTORE DUP13 PUSH1 0x24 DUP6 ADD MSTORE PUSH1 0x44 DUP5 ADD MSTORE PUSH1 0x80 PUSH1 0x64 DUP5 ADD MSTORE PUSH1 0x84 DUP4 ADD SWAP1 PUSH2 0x9D9 JUMP JUMPDEST SUB DUP2 DUP11 DUP10 GAS CALL DUP8 SWAP2 DUP2 PUSH2 0x5D3 JUMPI JUMPDEST POP PUSH2 0x5A0 JUMPI POP POP RETURNDATASIZE ISZERO PUSH2 0x597 JUMPI RETURNDATASIZE PUSH2 0x55B DUP2 PUSH2 0xAD3 JUMP JUMPDEST SWAP1 PUSH2 0x568 DUP5 MLOAD SWAP3 DUP4 PUSH2 0xAB1 JUMP JUMPDEST DUP2 MSTORE DUP1 SWAP6 DUP3 RETURNDATASIZE SWAP3 ADD RETURNDATACOPY JUMPDEST DUP5 MLOAD SWAP5 DUP6 PUSH2 0x591 JUMPI POP POP MLOAD PUSH4 0x32505749 PUSH1 0xE1 SHL DUP2 MSTORE SWAP2 DUP3 ADD MSTORE PUSH1 0x24 SWAP2 POP REVERT JUMPDEST DUP6 SWAP3 POP ADD REVERT JUMPDEST PUSH1 0x60 SWAP5 POP PUSH2 0x572 JUMP JUMPDEST PUSH1 0x1 PUSH1 0x1 PUSH1 0xE0 SHL SUB NOT AND SUB SWAP1 POP PUSH2 0x5BE JUMPI POP POP POP CODESIZE DUP1 DUP1 DUP1 DUP1 DUP1 DUP7 DUP1 RETURN JUMPDEST MLOAD PUSH4 0x32505749 PUSH1 0xE1 SHL DUP2 MSTORE SWAP2 DUP3 ADD MSTORE PUSH1 0x24 SWAP2 POP REVERT JUMPDEST SWAP1 SWAP2 POP DUP4 DUP2 DUP2 RETURNDATASIZE DUP4 GT PUSH2 0x610 JUMPI JUMPDEST PUSH2 0x5EB DUP2 DUP4 PUSH2 0xAB1 JUMP JUMPDEST DUP2 ADD SUB SLT PUSH2 0x60C JUMPI MLOAD PUSH1 0x1 PUSH1 0x1 PUSH1 0xE0 SHL SUB NOT DUP2 AND DUP2 SUB PUSH2 0x60C JUMPI SWAP1 CODESIZE PUSH2 0x544 JUMP JUMPDEST DUP8 DUP1 REVERT JUMPDEST POP RETURNDATASIZE PUSH2 0x5E1 JUMP JUMPDEST DUP5 MLOAD PUSH4 0x39E35637 PUSH1 0xE1 SHL DUP2 MSTORE DUP1 DUP9 ADD DUP10 SWAP1 MSTORE PUSH1 0x24 SWAP1 REVERT JUMPDEST PUSH1 0x0 DUP5 DUP2 MSTORE PUSH1 0x4 PUSH1 0x20 MSTORE PUSH1 0x40 SWAP1 KECCAK256 DUP1 SLOAD PUSH1 0x1 PUSH1 0x1 PUSH1 0xA0 SHL SUB NOT AND SWAP1 SSTORE DUP2 DUP14 MSTORE PUSH1 0x3 DUP10 MSTORE DUP10 DUP14 KECCAK256 SWAP1 DUP2 SLOAD ADD SWAP1 SSTORE CODESIZE PUSH2 0x4A1 JUMP JUMPDEST DUP7 MLOAD PUSH4 0x32505749 PUSH1 0xE1 SHL DUP2 MSTORE DUP1 DUP11 ADD DUP12 SWAP1 MSTORE PUSH1 0x24 SWAP1 REVERT JUMPDEST PUSH4 0x4E487B71 PUSH1 0xE0 SHL DUP9 MSTORE PUSH1 0x11 DUP8 MSTORE PUSH1 0x24 DUP9 REVERT JUMPDEST DUP3 MLOAD PUSH3 0x461BCD PUSH1 0xE5 SHL DUP2 MSTORE DUP1 DUP7 ADD DUP4 SWAP1 MSTORE PUSH1 0x14 PUSH1 0x24 DUP3 ADD MSTORE PUSH20 0x13DB9B1E4818DBDB1BDB9E481B585E481B5A5B9D PUSH1 0x62 SHL PUSH1 0x44 DUP3 ADD MSTORE PUSH1 0x64 SWAP1 REVERT JUMPDEST DUP4 DUP1 REVERT JUMPDEST DUP3 DUP5 CALLVALUE PUSH2 0x3CD JUMPI PUSH1 0x20 CALLDATASIZE PUSH1 0x3 NOT ADD SLT PUSH2 0x3CD JUMPI POP PUSH2 0x6E8 PUSH1 0x20 SWAP3 CALLDATALOAD PUSH2 0xC8E JUMP JUMPDEST SWAP1 MLOAD PUSH1 0x1 PUSH1 0x1 PUSH1 0xA0 SHL SUB SWAP1 SWAP2 AND DUP2 MSTORE RETURN JUMPDEST POP POP CALLVALUE PUSH2 0x121 JUMPI DUP2 PUSH1 0x3 NOT CALLDATASIZE ADD SLT PUSH2 0x121 JUMPI PUSH1 0x20 SWAP1 PUSH1 0x6 SLOAD SWAP1 MLOAD SWAP1 DUP2 MSTORE RETURN JUMPDEST POP POP CALLVALUE PUSH2 0x121 JUMPI PUSH2 0x20A SWAP1 PUSH2 0x72C CALLDATASIZE PUSH2 0xA4A JUMP JUMPDEST SWAP2 SWAP3 MLOAD SWAP3 PUSH2 0x739 DUP5 PUSH2 0xA7F JUMP JUMPDEST DUP6 DUP5 MSTORE PUSH2 0x204 DUP4 DUP4 DUP4 PUSH2 0xAEF JUMP JUMPDEST POP POP CALLVALUE PUSH2 0x121 JUMPI DUP2 PUSH1 0x3 NOT CALLDATASIZE ADD SLT PUSH2 0x121 JUMPI PUSH1 0x7 SLOAD SWAP1 MLOAD PUSH1 0x1 PUSH1 0x1 PUSH1 0xA0 SHL SUB SWAP1 SWAP2 AND DUP2 MSTORE PUSH1 0x20 SWAP1 RETURN JUMPDEST DUP4 CALLVALUE PUSH2 0x3CD JUMPI PUSH2 0x20A PUSH2 0x782 CALLDATASIZE PUSH2 0xA4A JUMP JUMPDEST SWAP2 PUSH2 0xAEF JUMP JUMPDEST SWAP2 SWAP1 POP CALLVALUE PUSH2 0x20D JUMPI DUP1 PUSH1 0x3 NOT CALLDATASIZE ADD SLT PUSH2 0x20D JUMPI PUSH2 0x7A3 PUSH2 0xA19 JUMP JUMPDEST SWAP2 PUSH1 0x24 CALLDATALOAD PUSH2 0x7B0 DUP2 PUSH2 0xC8E JUMP JUMPDEST CALLER ISZERO ISZERO DUP1 PUSH2 0x852 JUMPI JUMPDEST DUP1 PUSH2 0x829 JUMPI JUMPDEST PUSH2 0x813 JUMPI PUSH1 0x1 PUSH1 0x1 PUSH1 0xA0 SHL SUB SWAP5 DUP6 AND SWAP5 DUP3 SWAP2 DUP7 SWAP2 AND PUSH32 0x8C5BE1E5EBEC7D5BD14F71427D1E84F3DD0314C0F7B2291E5B200AC8C7C3B925 DUP9 DUP1 LOG4 DUP5 MSTORE PUSH1 0x20 MSTORE DUP3 KECCAK256 DUP1 SLOAD PUSH1 0x1 PUSH1 0x1 PUSH1 0xA0 SHL SUB NOT AND SWAP1 SWAP2 OR SWAP1 SSTORE DUP1 RETURN JUMPDEST DUP4 MLOAD PUSH4 0xA9FBF51F PUSH1 0xE0 SHL DUP2 MSTORE CALLER DUP2 DUP6 ADD MSTORE PUSH1 0x24 SWAP1 REVERT JUMPDEST POP PUSH1 0x1 PUSH1 0x1 PUSH1 0xA0 SHL SUB DUP2 AND DUP7 MSTORE PUSH1 0x5 PUSH1 0x20 SWAP1 DUP2 MSTORE DUP5 DUP8 KECCAK256 CALLER DUP9 MSTORE SWAP1 MSTORE DUP4 DUP7 KECCAK256 SLOAD PUSH1 0xFF AND ISZERO PUSH2 0x7BF JUMP JUMPDEST POP PUSH1 0x1 PUSH1 0x1 PUSH1 0xA0 SHL SUB DUP2 AND CALLER EQ ISZERO PUSH2 0x7B9 JUMP JUMPDEST SWAP1 POP CALLVALUE PUSH2 0x20D JUMPI PUSH1 0x20 CALLDATASIZE PUSH1 0x3 NOT ADD SLT PUSH2 0x20D JUMPI SWAP2 DUP3 PUSH1 0x20 SWAP4 CALLDATALOAD PUSH2 0x887 DUP2 PUSH2 0xC8E JUMP JUMPDEST POP DUP3 MSTORE DUP4 MSTORE DUP2 SWAP1 KECCAK256 SLOAD SWAP1 MLOAD PUSH1 0x1 PUSH1 0x1 PUSH1 0xA0 SHL SUB SWAP1 SWAP2 AND DUP2 MSTORE RETURN JUMPDEST DUP3 DUP5 CALLVALUE PUSH2 0x3CD JUMPI DUP1 PUSH1 0x3 NOT CALLDATASIZE ADD SLT PUSH2 0x3CD JUMPI DUP2 MLOAD SWAP2 DUP2 DUP3 SLOAD SWAP3 PUSH1 0x1 DUP5 PUSH1 0x1 SHR SWAP2 PUSH1 0x1 DUP7 AND SWAP6 DUP7 ISZERO PUSH2 0x964 JUMPI JUMPDEST PUSH1 0x20 SWAP7 DUP8 DUP6 LT DUP2 EQ PUSH2 0x3B0 JUMPI DUP9 SWAP10 POP SWAP7 DUP9 SWAP7 SWAP8 DUP6 DUP3 SWAP11 MSTORE SWAP2 DUP3 PUSH1 0x0 EQ PUSH2 0x389 JUMPI POP POP PUSH1 0x1 EQ PUSH2 0x909 JUMPI POP POP POP PUSH2 0x173 SWAP3 SWAP2 PUSH2 0x31E SWAP2 SUB DUP6 PUSH2 0xAB1 JUMP JUMPDEST SWAP2 SWAP1 DUP7 SWAP4 POP DUP3 DUP1 MSTORE PUSH32 0x290DECD9548B62A8D60345A988386FC84BA6BC95484008F6362F93160EF3E563 JUMPDEST DUP3 DUP5 LT PUSH2 0x94C JUMPI POP POP POP DUP3 ADD ADD DUP2 PUSH2 0x31E PUSH2 0x173 PUSH2 0x30B JUMP JUMPDEST DUP1 SLOAD DUP5 DUP11 ADD DUP7 ADD MSTORE DUP9 SWAP6 POP DUP8 SWAP5 SWAP1 SWAP4 ADD SWAP3 DUP2 ADD PUSH2 0x933 JUMP JUMPDEST SWAP3 PUSH1 0x7F AND SWAP3 PUSH2 0x8CD JUMP JUMPDEST DUP5 SWAP2 CALLVALUE PUSH2 0x20D JUMPI PUSH1 0x20 CALLDATASIZE PUSH1 0x3 NOT ADD SLT PUSH2 0x20D JUMPI CALLDATALOAD PUSH4 0xFFFFFFFF PUSH1 0xE0 SHL DUP2 AND DUP1 SWAP2 SUB PUSH2 0x20D JUMPI PUSH1 0x20 SWAP3 POP PUSH4 0x80AC58CD PUSH1 0xE0 SHL DUP2 EQ SWAP1 DUP2 ISZERO PUSH2 0x9C8 JUMPI JUMPDEST DUP2 ISZERO PUSH2 0x9B7 JUMPI JUMPDEST POP ISZERO ISZERO DUP2 MSTORE RETURN JUMPDEST PUSH4 0x1FFC9A7 PUSH1 0xE0 SHL EQ SWAP1 POP DUP4 PUSH2 0x9B0 JUMP JUMPDEST PUSH4 0x5B5E139F PUSH1 0xE0 SHL DUP2 EQ SWAP2 POP PUSH2 0x9A9 JUMP JUMPDEST SWAP2 SWAP1 DUP3 MLOAD SWAP3 DUP4 DUP3 MSTORE PUSH1 0x0 JUMPDEST DUP5 DUP2 LT PUSH2 0xA05 JUMPI POP POP DUP3 PUSH1 0x0 PUSH1 0x20 DUP1 SWAP5 SWAP6 DUP5 ADD ADD MSTORE PUSH1 0x1F DUP1 NOT SWAP2 ADD AND ADD ADD SWAP1 JUMP JUMPDEST PUSH1 0x20 DUP2 DUP4 ADD DUP2 ADD MLOAD DUP5 DUP4 ADD DUP3 ADD MSTORE ADD PUSH2 0x9E4 JUMP JUMPDEST PUSH1 0x4 CALLDATALOAD SWAP1 PUSH1 0x1 PUSH1 0x1 PUSH1 0xA0 SHL SUB DUP3 AND DUP3 SUB PUSH2 0xA2F JUMPI JUMP JUMPDEST PUSH1 0x0 DUP1 REVERT JUMPDEST PUSH1 0x24 CALLDATALOAD SWAP1 PUSH1 0x1 PUSH1 0x1 PUSH1 0xA0 SHL SUB DUP3 AND DUP3 SUB PUSH2 0xA2F JUMPI JUMP JUMPDEST PUSH1 0x60 SWAP1 PUSH1 0x3 NOT ADD SLT PUSH2 0xA2F JUMPI PUSH1 0x1 PUSH1 0x1 PUSH1 0xA0 SHL SUB SWAP1 PUSH1 0x4 CALLDATALOAD DUP3 DUP2 AND DUP2 SUB PUSH2 0xA2F JUMPI SWAP2 PUSH1 0x24 CALLDATALOAD SWAP1 DUP2 AND DUP2 SUB PUSH2 0xA2F JUMPI SWAP1 PUSH1 0x44 CALLDATALOAD SWAP1 JUMP JUMPDEST PUSH1 0x20 DUP2 ADD SWAP1 DUP2 LT PUSH8 0xFFFFFFFFFFFFFFFF DUP3 GT OR PUSH2 0xA9B JUMPI PUSH1 0x40 MSTORE JUMP JUMPDEST PUSH4 0x4E487B71 PUSH1 0xE0 SHL PUSH1 0x0 MSTORE PUSH1 0x41 PUSH1 0x4 MSTORE PUSH1 0x24 PUSH1 0x0 REVERT JUMPDEST SWAP1 PUSH1 0x1F DUP1 NOT SWAP2 ADD AND DUP2 ADD SWAP1 DUP2 LT PUSH8 0xFFFFFFFFFFFFFFFF DUP3 GT OR PUSH2 0xA9B JUMPI PUSH1 0x40 MSTORE JUMP JUMPDEST PUSH8 0xFFFFFFFFFFFFFFFF DUP2 GT PUSH2 0xA9B JUMPI PUSH1 0x1F ADD PUSH1 0x1F NOT AND PUSH1 0x20 ADD SWAP1 JUMP JUMPDEST PUSH1 0x1 PUSH1 0x1 PUSH1 0xA0 SHL SUB SWAP2 DUP3 AND SWAP3 SWAP1 SWAP2 DUP4 ISZERO PUSH2 0xC75 JUMPI PUSH1 0x0 SWAP3 DUP3 DUP5 MSTORE DUP3 PUSH1 0x20 SWAP6 PUSH1 0x2 DUP8 MSTORE PUSH1 0x40 SWAP7 DUP5 DUP9 DUP9 KECCAK256 SLOAD AND SWAP7 DUP8 SWAP2 CALLER ISZERO ISZERO DUP1 PUSH2 0xBDF JUMPI JUMPDEST POP SWAP1 PUSH1 0x2 PUSH32 0xDDF252AD1BE2C89B69C2B068FC378DAA952BA7F163C4A11628F55A4DF523B3EF SWAP3 DUP5 PUSH2 0xBAC JUMPI JUMPDEST DUP6 DUP4 MSTORE PUSH1 0x3 DUP2 MSTORE DUP12 DUP4 KECCAK256 DUP1 SLOAD PUSH1 0x1 ADD SWAP1 SSTORE DUP7 DUP4 MSTORE MSTORE DUP10 DUP2 KECCAK256 DUP1 SLOAD PUSH1 0x1 PUSH1 0x1 PUSH1 0xA0 SHL SUB NOT AND DUP6 OR SWAP1 SSTORE DUP1 LOG4 AND SWAP3 DUP4 DUP4 SUB PUSH2 0xB8B JUMPI POP POP POP POP JUMP JUMPDEST PUSH1 0x64 SWAP5 POP MLOAD SWAP3 PUSH4 0x64283D7B PUSH1 0xE0 SHL DUP5 MSTORE PUSH1 0x4 DUP5 ADD MSTORE PUSH1 0x24 DUP4 ADD MSTORE PUSH1 0x44 DUP3 ADD MSTORE REVERT JUMPDEST PUSH1 0x0 DUP8 DUP2 MSTORE PUSH1 0x4 PUSH1 0x20 MSTORE PUSH1 0x40 SWAP1 KECCAK256 DUP1 SLOAD PUSH1 0x1 PUSH1 0x1 PUSH1 0xA0 SHL SUB NOT AND SWAP1 SSTORE DUP5 DUP4 MSTORE PUSH1 0x3 DUP2 MSTORE DUP12 DUP4 KECCAK256 DUP1 SLOAD PUSH1 0x0 NOT ADD SWAP1 SSTORE PUSH2 0xB52 JUMP JUMPDEST SWAP2 SWAP4 SWAP5 POP SWAP2 POP DUP1 PUSH2 0xC34 JUMPI JUMPDEST ISZERO PUSH2 0xBFB JUMPI DUP6 SWAP3 SWAP2 DUP8 SWAP2 CODESIZE PUSH2 0xB26 JUMP JUMPDEST DUP8 DUP7 DUP9 PUSH2 0xC18 JUMPI PUSH1 0x24 SWAP2 MLOAD SWAP1 PUSH4 0x7E273289 PUSH1 0xE0 SHL DUP3 MSTORE PUSH1 0x4 DUP3 ADD MSTORE REVERT JUMPDEST PUSH1 0x44 SWAP2 MLOAD SWAP1 PUSH4 0x177E802F PUSH1 0xE0 SHL DUP3 MSTORE CALLER PUSH1 0x4 DUP4 ADD MSTORE PUSH1 0x24 DUP3 ADD MSTORE REVERT JUMPDEST POP CALLER DUP8 EQ DUP1 ISZERO PUSH2 0xC59 JUMPI JUMPDEST DUP1 PUSH2 0xBEB JUMPI POP DUP6 DUP3 MSTORE PUSH1 0x4 DUP2 MSTORE CALLER DUP6 DUP10 DUP5 KECCAK256 SLOAD AND EQ PUSH2 0xBEB JUMP JUMPDEST POP DUP7 DUP3 MSTORE PUSH1 0x5 DUP2 MSTORE DUP8 DUP3 KECCAK256 CALLER DUP4 MSTORE DUP2 MSTORE PUSH1 0xFF DUP9 DUP4 KECCAK256 SLOAD AND PUSH2 0xC3F JUMP JUMPDEST PUSH1 0x40 MLOAD PUSH4 0x32505749 PUSH1 0xE1 SHL DUP2 MSTORE PUSH1 0x0 PUSH1 0x4 DUP3 ADD MSTORE PUSH1 0x24 SWAP1 REVERT JUMPDEST PUSH1 0x0 DUP2 DUP2 MSTORE PUSH1 0x2 PUSH1 0x20 MSTORE PUSH1 0x40 SWAP1 KECCAK256 SLOAD PUSH1 0x1 PUSH1 0x1 PUSH1 0xA0 SHL SUB AND SWAP1 DUP2 ISZERO PUSH2 0xCB1 JUMPI POP SWAP1 JUMP JUMPDEST PUSH1 0x24 SWAP1 PUSH1 0x40 MLOAD SWAP1 PUSH4 0x7E273289 PUSH1 0xE0 SHL DUP3 MSTORE PUSH1 0x4 DUP3 ADD MSTORE REVERT JUMPDEST SWAP1 SWAP4 SWAP2 SWAP3 DUP4 EXTCODESIZE PUSH2 0xCDB JUMPI JUMPDEST POP POP POP POP POP JUMP JUMPDEST PUSH1 0x40 MLOAD PUSH4 0xA85BD01 PUSH1 0xE1 SHL DUP1 DUP3 MSTORE PUSH1 0x1 PUSH1 0x1 PUSH1 0xA0 SHL SUB SWAP4 DUP5 AND PUSH1 0x4 DUP4 ADD MSTORE SWAP6 DUP4 AND PUSH1 0x24 DUP3 ADD MSTORE PUSH1 0x44 DUP2 ADD SWAP2 SWAP1 SWAP2 MSTORE PUSH1 0x80 PUSH1 0x64 DUP3 ADD MSTORE SWAP5 SWAP3 AND SWAP3 PUSH1 0x20 SWAP3 SWAP2 DUP6 SWAP1 PUSH2 0xD28 SWAP1 PUSH1 0x84 DUP4 ADD SWAP1 PUSH2 0x9D9 JUMP JUMPDEST SUB SWAP5 DUP4 DUP2 PUSH1 0x0 SWAP8 DUP2 DUP10 DUP10 GAS CALL DUP7 SWAP2 DUP2 PUSH2 0xDD3 JUMPI JUMPDEST POP PUSH2 0xD9D JUMPI POP POP POP RETURNDATASIZE PUSH1 0x0 EQ PUSH2 0xD94 JUMPI RETURNDATASIZE PUSH2 0xD56 DUP2 PUSH2 0xAD3 JUMP JUMPDEST SWAP1 PUSH2 0xD64 PUSH1 0x40 MLOAD SWAP3 DUP4 PUSH2 0xAB1 JUMP JUMPDEST DUP2 MSTORE DUP1 SWAP4 DUP3 RETURNDATASIZE SWAP3 ADD RETURNDATACOPY JUMPDEST DUP3 MLOAD SWAP3 DUP4 PUSH2 0xD8F JUMPI PUSH1 0x40 MLOAD PUSH4 0x32505749 PUSH1 0xE1 SHL DUP2 MSTORE PUSH1 0x4 DUP2 ADD DUP5 SWAP1 MSTORE PUSH1 0x24 SWAP1 REVERT JUMPDEST ADD SWAP1 POP REVERT JUMPDEST PUSH1 0x60 SWAP3 POP PUSH2 0xD6E JUMP JUMPDEST SWAP2 SWAP5 POP SWAP2 POP PUSH4 0xFFFFFFFF PUSH1 0xE0 SHL AND SUB PUSH2 0xDBB JUMPI POP CODESIZE DUP1 DUP1 DUP1 DUP1 PUSH2 0xCD4 JUMP JUMPDEST PUSH1 0x24 SWAP1 PUSH1 0x40 MLOAD SWAP1 PUSH4 0x32505749 PUSH1 0xE1 SHL DUP3 MSTORE PUSH1 0x4 DUP3 ADD MSTORE REVERT JUMPDEST SWAP1 SWAP2 POP DUP5 DUP2 DUP2 RETURNDATASIZE DUP4 GT PUSH2 0xE10 JUMPI JUMPDEST PUSH2 0xDEB DUP2 DUP4 PUSH2 0xAB1 JUMP JUMPDEST DUP2 ADD SUB SLT PUSH2 0xE0C JUMPI MLOAD PUSH1 0x1 PUSH1 0x1 PUSH1 0xE0 SHL SUB NOT DUP2 AND DUP2 SUB PUSH2 0xE0C JUMPI SWAP1 CODESIZE PUSH2 0xD3C JUMP JUMPDEST DUP7 DUP1 REVERT JUMPDEST POP RETURNDATASIZE PUSH2 0xDE1 JUMP INVALID LOG2 PUSH5 0x6970667358 0x22 SLT KECCAK256 SUB SIGNEXTEND 0xB0 0xAB 0xC 0xEB 0xCA 0xC8 PUSH1 0x70 0xC0 DUP8 0x22 0xD2 SWAP3 0xE5 PUSH7 0xFDB848A8A44344 LOG4 SDIV SWAP13 JUMPI 0xCB PUSH31 0x7CBB64736F6C63430008180033000000000000000000000000000000000000 "},"methodIdentifiers":{"approve(address,uint256)":"095ea7b3","balanceOf(address)":"70a08231","colony()":"349ff770","getApproved(uint256)":"081812fc","isApprovedForAll(address,address)":"e985e9c5","mint(address)":"6a627842","name()":"06fdde03","nextId()":"61b8ce8c","ownerOf(uint256)":"6352211e","safeTransferFrom(address,address,uint256)":"42842e0e","safeTransferFrom(address,address,uint256,bytes)":"b88d4fde","setApprovalForAll(address,bool)":"a22cb465","supportsInterface(bytes4)":"01ffc9a7","symbol()":"95d89b41","tokenURI(uint256)":"c87b56dd","transferFrom(address,address,uint256)":"23b872dd"}}}}}