{
  "_format": "hh-sol-artifact-1",
  "contractName": "ColonyMemory",
  "sourceName": "contracts/ColonyMemory.sol",
  "abi": [
    {
      "anonymous": false,
      "inputs": [
        {
          "components": [
            {
              "internalType": "uint32",
              "name": "x",
              "type": "uint32"
            },
            {
              "internalType": "uint32",
              "name": "y",
              "type": "uint32"
            },
            {
              "internalType": "address",
              "name": "ant",
              "type": "address"
            }
          ],
          "indexed": false,
          "internalType": "struct ColonyMemory.Visit",
          "name": "v",
          "type": "tuple"
        }
      ],
      "name": "CellVisited",
      "type": "event"
    },
    {
      "anonymous": false,
      "inputs": [
        {
          "indexed": false,
          "internalType": "uint256",
          "name": "tokenId",
          "type": "uint256"
        },
        {
          "indexed": false,
          "internalType": "uint32",
          "name": "x",
          "type": "uint32"
        },
        {
          "indexed": false,
          "internalType": "uint32",
          "name": "y",
          "type": "uint32"
        },
        {
          "indexed": false,
          "internalType": "address",
          "name": "ant",
          "type": "address"
        }
      ],
      "name": "FoodCollected",
      "type": "event"
    },
    {
      "inputs": [
        {
          "internalType": "uint32",
          "name": "x",
          "type": "uint32"
        },
        {
          "internalType": "uint32",
          "name": "y",
          "type": "uint32"
        }
      ],
      "name": "hasVisited",
      "outputs": [
        {
          "internalType": "bool",
          "name": "",
          "type": "bool"
        }
      ],
      "stateMutability": "view",
      "type": "function"
    },
    {
      "inputs": [
        {
          "internalType": "uint32",
          "name": "x",
          "type": "uint32"
        },
        {
          "internalType": "uint32",
          "name": "y",
          "type": "uint32"
        }
      ],
      "name": "markVisited",
      "outputs": [],
      "stateMutability": "nonpayable",
      "type": "function"
    },
    {
      "inputs": [
        {
          "internalType": "uint256",
          "name": "id",
          "type": "uint256"
        },
        {
          "internalType": "uint32",
          "name": "x",
          "type": "uint32"
        },
        {
          "internalType": "uint32",
          "name": "y",
          "type": "uint32"
        }
      ],
      "name": "recordFood",
      "outputs": [],
      "stateMutability": "nonpayable",
      "type": "function"
    },
    {
      "inputs": [
        {
          "internalType": "bytes32",
          "name": "",
          "type": "bytes32"
        }
      ],
      "name": "visited",
      "outputs": [
        {
          "internalType": "bool",
          "name": "",
          "type": "bool"
        }
      ],
      "stateMutability": "view",
      "type": "function"
    }
  ],
  "bytecode": "0x608060405234801561001057600080fd5b506105ec806100206000396000f3fe608060405234801561001057600080fd5b506004361061004c5760003560e01c806306d9e4b51461005157806315f769b01461008157806344d93dd41461009d578063f40022a6146100cd575b600080fd5b61006b600480360381019061006691906102d3565b6100e9565b604051610078919061032e565b60405180910390f35b61009b6004803603810190610096919061037f565b61013b565b005b6100b760048036038101906100b29190610408565b61017d565b6040516100c4919061032e565b60405180910390f35b6100e760048036038101906100e291906102d3565b61019d565b005b6000806000848460405160200161010192919061046b565b60405160208183030381529060405280519060200120815260200190815260200160002060009054906101000a900460ff16905092915050565b7fa96ae3077d483c4b54a8d717a6b5f64cd935e7d7c38bedb4f8f7aeca073a30de8383833360405161017094939291906104f6565b60405180910390a1505050565b60006020528060005260406000206000915054906101000a900460ff1681565b600082826040516020016101b292919061046b565b60405160208183030381529060405280519060200120905060008082815260200190815260200160002060009054906101000a900460ff1661028d57600160008083815260200190815260200160002060006101000a81548160ff0219169083151502179055507f1217636b53a0c3ef6fe9a2141bfd53cdf9d646e203bc257c1588a8ce653f07e960405180606001604052808563ffffffff1681526020018463ffffffff1681526020013373ffffffffffffffffffffffffffffffffffffffff16815250604051610284919061059b565b60405180910390a15b505050565b600080fd5b600063ffffffff82169050919050565b6102b081610297565b81146102bb57600080fd5b50565b6000813590506102cd816102a7565b92915050565b600080604083850312156102ea576102e9610292565b5b60006102f8858286016102be565b9250506020610309858286016102be565b9150509250929050565b60008115159050919050565b61032881610313565b82525050565b6000602082019050610343600083018461031f565b92915050565b6000819050919050565b61035c81610349565b811461036757600080fd5b50565b60008135905061037981610353565b92915050565b60008060006060848603121561039857610397610292565b5b60006103a68682870161036a565b93505060206103b7868287016102be565b92505060406103c8868287016102be565b9150509250925092565b6000819050919050565b6103e5816103d2565b81146103f057600080fd5b50565b600081359050610402816103dc565b92915050565b60006020828403121561041e5761041d610292565b5b600061042c848285016103f3565b91505092915050565b60008160e01b9050919050565b600061044d82610435565b9050919050565b61046561046082610297565b610442565b82525050565b60006104778285610454565b6004820191506104878284610454565b6004820191508190509392505050565b6104a081610349565b82525050565b6104af81610297565b82525050565b600073ffffffffffffffffffffffffffffffffffffffff82169050919050565b60006104e0826104b5565b9050919050565b6104f0816104d5565b82525050565b600060808201905061050b6000830187610497565b61051860208301866104a6565b61052560408301856104a6565b61053260608301846104e7565b95945050505050565b61054481610297565b82525050565b610553816104d5565b82525050565b60608201600082015161056f600085018261053b565b506020820151610582602085018261053b565b506040820151610595604085018261054a565b50505050565b60006060820190506105b06000830184610559565b9291505056fea2646970667358221220f2232764c33df9ae5dd619b9ee4ecf13fe89630737156ae97af97bac1bed35cf64736f6c63430008180033",
  "linkReferences": {},
  "deployedLinkReferences": {}
}