{
  "_format": "hh-sol-artifact-1",
  "contractName": "ColonyMemory",
  "sourceName": "contracts/ColonyMemory.sol",
  "abi": [
    {
      "anonymous": false,
      "inputs": [
        {
          "components": [
            {
              "internalType": "uint32",
              "name": "x",
              "type": "uint32"
            },
            {
              "internalType": "uint32",
              "name": "y",
              "type": "uint32"
            },
            {
              "internalType": "address",
              "name": "ant",
              "type": "address"
            }
          ],
          "indexed": false,
          "internalType": "struct ColonyMemory.Visit",
          "name": "v",
          "type": "tuple"
        }
      ],
      "name": "CellVisited",
      "type": "event"
    },
    {
      "anonymous": false,
      "inputs": [
        {
          "indexed": true,
          "internalType": "bytes32",
          "name": "runHash",
          "type": "bytes32"
        },
        {
          "indexed": false,
          "internalType": "uint32",
          "name": "x",
          "type": "uint32"
        },
        {
          "indexed": false,
          "internalType": "uint32",
          "name": "y",
          "type": "uint32"
        },
        {
          "indexed": false,
          "internalType": "uint32",
          "name": "z",
          "type": "uint32"
        },
        {
          "indexed": false,
          "internalType": "uint32",
          "name": "timestamp",
          "type": "uint32"
        },
        {
          "indexed": true,
          "internalType": "address",
          "name": "nanobot",
          "type": "address"
        },
        {
          "indexed": false,
          "internalType": "uint16",
          "name": "payloadAmount",
          "type": "uint16"
        }
      ],
      "name": "DrugDelivered",
      "type": "event"
    },
    {
      "anonymous": false,
      "inputs": [
        {
          "indexed": false,
          "internalType": "uint256",
          "name": "tokenId",
          "type": "uint256"
        },
        {
          "indexed": false,
          "internalType": "uint32",
          "name": "x",
          "type": "uint32"
        },
        {
          "indexed": false,
          "internalType": "uint32",
          "name": "y",
          "type": "uint32"
        },
        {
          "indexed": false,
          "internalType": "address",
          "name": "ant",
          "type": "address"
        }
      ],
      "name": "FoodCollected",
      "type": "event"
    },
    {
      "anonymous": false,
      "inputs": [
        {
          "indexed": true,
          "internalType": "bytes32",
          "name": "runHash",
          "type": "bytes32"
        },
        {
          "indexed": false,
          "internalType": "uint32",
          "name": "totalSteps",
          "type": "uint32"
        },
        {
          "indexed": false,
          "internalType": "uint16",
          "name": "cellsKilled",
          "type": "uint16"
        },
        {
          "indexed": false,
          "internalType": "uint16",
          "name": "drugDeliveries",
          "type": "uint16"
        },
        {
          "indexed": true,
          "internalType": "address",
          "name": "submitter",
          "type": "address"
        }
      ],
      "name": "SimulationCompleted",
      "type": "event"
    },
    {
      "anonymous": false,
      "inputs": [
        {
          "indexed": true,
          "internalType": "bytes32",
          "name": "runHash",
          "type": "bytes32"
        },
        {
          "indexed": true,
          "internalType": "uint256",
          "name": "cellId",
          "type": "uint256"
        },
        {
          "indexed": false,
          "internalType": "uint32",
          "name": "x",
          "type": "uint32"
        },
        {
          "indexed": false,
          "internalType": "uint32",
          "name": "y",
          "type": "uint32"
        },
        {
          "indexed": false,
          "internalType": "uint32",
          "name": "z",
          "type": "uint32"
        },
        {
          "indexed": false,
          "internalType": "uint32",
          "name": "timestamp",
          "type": "uint32"
        },
        {
          "indexed": true,
          "internalType": "address",
          "name": "nanobot",
          "type": "address"
        }
      ],
      "name": "TumorCellKilled",
      "type": "event"
    },
    {
      "inputs": [
        {
          "internalType": "bytes32",
          "name": "runHash",
          "type": "bytes32"
        },
        {
          "internalType": "uint32",
          "name": "totalSteps",
          "type": "uint32"
        },
        {
          "internalType": "uint16",
          "name": "cellsKilled",
          "type": "uint16"
        },
        {
          "internalType": "uint16",
          "name": "drugDeliveries",
          "type": "uint16"
        }
      ],
      "name": "completeSimulation",
      "outputs": [],
      "stateMutability": "nonpayable",
      "type": "function"
    },
    {
      "inputs": [
        {
          "internalType": "bytes32",
          "name": "",
          "type": "bytes32"
        },
        {
          "internalType": "uint256",
          "name": "",
          "type": "uint256"
        }
      ],
      "name": "deliveriesByRun",
      "outputs": [
        {
          "internalType": "uint32",
          "name": "x",
          "type": "uint32"
        },
        {
          "internalType": "uint32",
          "name": "y",
          "type": "uint32"
        },
        {
          "internalType": "uint32",
          "name": "z",
          "type": "uint32"
        },
        {
          "internalType": "uint32",
          "name": "timestamp",
          "type": "uint32"
        },
        {
          "internalType": "address",
          "name": "nanobot",
          "type": "address"
        },
        {
          "internalType": "uint16",
          "name": "payloadAmount",
          "type": "uint16"
        }
      ],
      "stateMutability": "view",
      "type": "function"
    },
    {
      "inputs": [
        {
          "internalType": "bytes32",
          "name": "runHash",
          "type": "bytes32"
        }
      ],
      "name": "getDeliveryCount",
      "outputs": [
        {
          "internalType": "uint256",
          "name": "",
          "type": "uint256"
        }
      ],
      "stateMutability": "view",
      "type": "function"
    },
    {
      "inputs": [
        {
          "internalType": "bytes32",
          "name": "runHash",
          "type": "bytes32"
        }
      ],
      "name": "getKillCount",
      "outputs": [
        {
          "internalType": "uint256",
          "name": "",
          "type": "uint256"
        }
      ],
      "stateMutability": "view",
      "type": "function"
    },
    {
      "inputs": [
        {
          "internalType": "bytes32",
          "name": "runHash",
          "type": "bytes32"
        }
      ],
      "name": "getSimulationRun",
      "outputs": [
        {
          "components": [
            {
              "internalType": "bytes32",
              "name": "runHash",
              "type": "bytes32"
            },
            {
              "internalType": "uint32",
              "name": "startTime",
              "type": "uint32"
            },
            {
              "internalType": "uint32",
              "name": "totalSteps",
              "type": "uint32"
            },
            {
              "internalType": "uint16",
              "name": "cellsKilled",
              "type": "uint16"
            },
            {
              "internalType": "uint16",
              "name": "drugDeliveries",
              "type": "uint16"
            },
            {
              "internalType": "address",
              "name": "submitter",
              "type": "address"
            },
            {
              "internalType": "bool",
              "name": "completed",
              "type": "bool"
            }
          ],
          "internalType": "struct ColonyMemory.SimulationRun",
          "name": "",
          "type": "tuple"
        }
      ],
      "stateMutability": "view",
      "type": "function"
    },
    {
      "inputs": [
        {
          "internalType": "uint32",
          "name": "x",
          "type": "uint32"
        },
        {
          "internalType": "uint32",
          "name": "y",
          "type": "uint32"
        }
      ],
      "name": "hasVisited",
      "outputs": [
        {
          "internalType": "bool",
          "name": "",
          "type": "bool"
        }
      ],
      "stateMutability": "view",
      "type": "function"
    },
    {
      "inputs": [
        {
          "internalType": "bytes32",
          "name": "runHash",
          "type": "bytes32"
        }
      ],
      "name": "initializeSimulation",
      "outputs": [],
      "stateMutability": "nonpayable",
      "type": "function"
    },
    {
      "inputs": [
        {
          "internalType": "bytes32",
          "name": "",
          "type": "bytes32"
        },
        {
          "internalType": "uint256",
          "name": "",
          "type": "uint256"
        }
      ],
      "name": "killsByRun",
      "outputs": [
        {
          "internalType": "uint256",
          "name": "cellId",
          "type": "uint256"
        },
        {
          "internalType": "uint32",
          "name": "x",
          "type": "uint32"
        },
        {
          "internalType": "uint32",
          "name": "y",
          "type": "uint32"
        },
        {
          "internalType": "uint32",
          "name": "z",
          "type": "uint32"
        },
        {
          "internalType": "uint32",
          "name": "timestamp",
          "type": "uint32"
        },
        {
          "internalType": "address",
          "name": "nanobot",
          "type": "address"
        }
      ],
      "stateMutability": "view",
      "type": "function"
    },
    {
      "inputs": [
        {
          "internalType": "uint32",
          "name": "x",
          "type": "uint32"
        },
        {
          "internalType": "uint32",
          "name": "y",
          "type": "uint32"
        }
      ],
      "name": "markVisited",
      "outputs": [],
      "stateMutability": "nonpayable",
      "type": "function"
    },
    {
      "inputs": [
        {
          "internalType": "bytes32",
          "name": "runHash",
          "type": "bytes32"
        },
        {
          "internalType": "uint32",
          "name": "x",
          "type": "uint32"
        },
        {
          "internalType": "uint32",
          "name": "y",
          "type": "uint32"
        },
        {
          "internalType": "uint32",
          "name": "z",
          "type": "uint32"
        },
        {
          "internalType": "uint32",
          "name": "timestamp",
          "type": "uint32"
        },
        {
          "internalType": "uint16",
          "name": "payloadAmount",
          "type": "uint16"
        }
      ],
      "name": "recordDrugDelivery",
      "outputs": [],
      "stateMutability": "nonpayable",
      "type": "function"
    },
    {
      "inputs": [
        {
          "internalType": "uint256",
          "name": "id",
          "type": "uint256"
        },
        {
          "internalType": "uint32",
          "name": "x",
          "type": "uint32"
        },
        {
          "internalType": "uint32",
          "name": "y",
          "type": "uint32"
        }
      ],
      "name": "recordFood",
      "outputs": [],
      "stateMutability": "nonpayable",
      "type": "function"
    },
    {
      "inputs": [
        {
          "internalType": "bytes32",
          "name": "runHash",
          "type": "bytes32"
        },
        {
          "internalType": "uint256",
          "name": "cellId",
          "type": "uint256"
        },
        {
          "internalType": "uint32",
          "name": "x",
          "type": "uint32"
        },
        {
          "internalType": "uint32",
          "name": "y",
          "type": "uint32"
        },
        {
          "internalType": "uint32",
          "name": "z",
          "type": "uint32"
        },
        {
          "internalType": "uint32",
          "name": "timestamp",
          "type": "uint32"
        }
      ],
      "name": "recordTumorKill",
      "outputs": [],
      "stateMutability": "nonpayable",
      "type": "function"
    },
    {
      "inputs": [
        {
          "internalType": "bytes32",
          "name": "",
          "type": "bytes32"
        }
      ],
      "name": "simulations",
      "outputs": [
        {
          "internalType": "bytes32",
          "name": "runHash",
          "type": "bytes32"
        },
        {
          "internalType": "uint32",
          "name": "startTime",
          "type": "uint32"
        },
        {
          "internalType": "uint32",
          "name": "totalSteps",
          "type": "uint32"
        },
        {
          "internalType": "uint16",
          "name": "cellsKilled",
          "type": "uint16"
        },
        {
          "internalType": "uint16",
          "name": "drugDeliveries",
          "type": "uint16"
        },
        {
          "internalType": "address",
          "name": "submitter",
          "type": "address"
        },
        {
          "internalType": "bool",
          "name": "completed",
          "type": "bool"
        }
      ],
      "stateMutability": "view",
      "type": "function"
    },
    {
      "inputs": [
        {
          "internalType": "bytes32",
          "name": "",
          "type": "bytes32"
        }
      ],
      "name": "visited",
      "outputs": [
        {
          "internalType": "bool",
          "name": "",
          "type": "bool"
        }
      ],
      "stateMutability": "view",
      "type": "function"
    }
  ],
  "bytecode": "0x6080806040523461001657610de5908161001c8239f35b600080fdfe60806040908082526004918236101561001757600080fd5b600091823560e01c90816306d9e4b514610c0c575080631075652414610b9457806313615122146109d557806315f769b01461096a5780631eb674811461087157806325c3dc2e146108495780632b500d92146106eb57806344d93dd4146106bf57806351f408501461063d57806372c9c94b1461047e5780637adb273a14610456578063999a6ff214610265578063c86374df146101e05763f40022a6146100bf57600080fd5b346101dc57806003193601126101dc576100d7610c77565b906100e0610c8f565b815160e084811b6001600160e01b0319908116602084019081529184901b1660248301529061011c81602881015b03601f198101835282610d8d565b519020845283602052818420805460ff811615610137578580f35b60ff191660011790558151926060840167ffffffffffffffff8111858210176101c957835263ffffffff908116808552918116602080860191825233958501958652845193845290519091169082015291516001600160a01b0316908201529091507f1217636b53a0c3ef6fe9a2141bfd53cdf9d646e203bc257c1588a8ce653f07e990606090a18038808080808580f35b634e487b7160e01b865260418752602486fd5b5080fd5b50346101dc576101ef36610cdb565b929081526003602052818120908154841015610262575060c09261021291610d23565b50908154916001810154809163ffffffff928391600260018060a01b03910154169480519687528282166020880152828260201c16818801521c16606085015260601c16608083015260a0820152f35b80fd5b5082346104525760c03660031901126104525780359083610284610c8f565b9161028d610ca2565b94610296610cb5565b9561029f610cc8565b9260a4359561ffff871680970361044e57879187918551966102c088610d71565b63ffffffff8092169b8c89528260208a0197169687815283898b019216998a835289856060830195169c8d86526080830199338b5260a08401998a528152600260205220805490600160401b821015610438579061032391600182018155610cf1565b96909661041f5750848093610370826103b0979560019a9961039096511663ffffffff198b5416178a555116889063ffffffff60201b82549160201b169063ffffffff60201b1916179055565b51865463ffffffff60401b1916911660401b63ffffffff60401b16178555565b51835463ffffffff60601b1916911660601b63ffffffff60601b16178255565b019160018060a01b0390511682549161ffff60a01b905160a01b169169ffffffffffffffffffff60b01b161717905581519687526020870152850152606084015260808301527f0c591fc8d9121ee406f82b19ea6d42a63a55a45e0ff89b44679a059325a9e88f60a03393a380f35b90508f925060249350829150634e487b7160e01b825252fd5b50505060248f604187634e487b7160e01b835252fd5b8580fd5b8280fd5b5082346104525760203660031901126104525760209282913581526002845220549051908152f35b5082346104525760c03660031901126104525780356024359161049f610ca2565b906104a8610cb5565b946104b1610cc8565b9560a4359363ffffffff938486168096036106395786918451956104d487610d71565b8987528b816020890193169b8c845282888a019716968781528360608b019216998a83528960808201948d865260a0830199338b528152600360205220805490600160401b821015610623579061053091600182018155610d23565b97909761041f57508480936105866105c69760029a9997956105a695518b558160018c0199511663ffffffff198a54161789555116879063ffffffff60201b82549160201b169063ffffffff60201b1916179055565b51855463ffffffff60401b1916911660401b63ffffffff60401b16178455565b51825463ffffffff60601b1916911660601b63ffffffff60601b16179055565b019060018060a01b039051166bffffffffffffffffffffffff60a01b8254161790558151968752602087015285015260608401527fe8c635839f4de7f9d0f38caa555296d8429b545b346a980fbe98de2bb6ed9d9160803394a480f35b50505060248f604188634e487b7160e01b835252fd5b8980fd5b50346101dc5761064c36610cdb565b929081526002602052818120908154841015610262575061067260c09361ffff92610cf1565b50805490600163ffffffff910154918451948282168652828260201c1660208701528282821c169086015260601c16606084015260018060a01b038116608084015260a01c1660a0820152f35b508234610452576020366003190112610452578160209360ff9235815280855220541690519015158152f35b5082903461045257602036600319011261045257813591828452600160205263ffffffff9081600184872001541661081157509060029181519161072e83610d3f565b8483526107e0602084019280421684528285018881526107ab60608701928a845260808801928b845260a089019633885260c08a019b8d8d528d5260016020528c20985189558160018a0198511663ffffffff198954161788555116869063ffffffff60201b82549160201b169063ffffffff60201b1916179055565b90518454915161ffff60501b60509190911b1663ffffffff60401b1990921661ffff60401b60409290921b9190911617178355565b516bffffffffffffffffffffffff82549181199060601b169116179055019051151560ff8019835416911617905580f35b606490602084519162461bcd60e51b8352820152601260248201527152756e20616c72656164792065786973747360701b6044820152fd5b5082346104525760203660031901126104525760209282913581526003845220549051908152f35b50903461026257602092836003193601126101dc5790829181835161089581610d3f565b818152818782015281858201528160608201528160808201528160a082015260c001523581526001845220918151916108cd83610d3f565b83549384845260018101549263ffffffff92818601908486168252808701948087851c16865261ffff9586948260608b0195878b871c16875260808c0198888c60501c168a5260a08d019b60601c8c526002015460ff169b60c0019b15158c5285519c8d525116908b01525116908801525116606086015251166080840152600160a01b6001900390511660a083015251151560c082015260e090f35b50829034610452576060366003190112610452577fa96ae3077d483c4b54a8d717a6b5f64cd935e7d7c38bedb4f8f7aeca073a30de916080916109ab610c8f565b6109b3610ca2565b82519335845263ffffffff80921660208501521690820152336060820152a180f35b508234610452576080366003190112610452578035906109f3610c8f565b9261ffff9160443583811691828203610b905760643594851694858103610b8c57868952600160205284892092600184019081549363ffffffff9586861615610b53576002019460ff865416610b185760601c3303610ad55750815460409190911b61ffff60401b1660208b901b63ffffffff60201b166bffffffffffffffff0000000019909216919091171760509290921b61ffff60501b16919091179055600160ff1982541617905582519516855260208501528301527fedacaa8e2a0034e7170a0aa44490014012724dfa25d7002a7fc867aa075bcead60603393a380f35b606490602089519162461bcd60e51b8352820152601b60248201527f4f6e6c79207375626d69747465722063616e20636f6d706c65746500000000006044820152fd5b885162461bcd60e51b81526020818401526015602482015274149d5b88185b1c9958591e4818dbdb5c1b195d1959605a1b6044820152606490fd5b885162461bcd60e51b81526020818401526013602482015272149d5b881b9bdd081a5b9a5d1a585b1a5e9959606a1b6044820152606490fd5b8880fd5b8780fd5b5082346104525760203660031901126104525760e09282913581526001602052209081549160026001820154918263ffffffff9460ff61ffff94859401541695815197885280831660208901528260201c16818801521c1660608501528160501c16608084015260601c60a0830152151560c0820152f35b9050346104525781600319360112610452578160209360ff92610c2d610c77565b90610c638161010e610c3d610c8f565b8a830195869060089263ffffffff60e01b809260e01b16835260e01b1660048201520190565b519020815280855220541690519015158152f35b6004359063ffffffff82168203610c8a57565b600080fd5b6024359063ffffffff82168203610c8a57565b6044359063ffffffff82168203610c8a57565b6064359063ffffffff82168203610c8a57565b6084359063ffffffff82168203610c8a57565b6040906003190112610c8a576004359060243590565b8054821015610d0d5760005260206000209060011b0190600090565b634e487b7160e01b600052603260045260246000fd5b8054821015610d0d576000526003602060002091020190600090565b60e0810190811067ffffffffffffffff821117610d5b57604052565b634e487b7160e01b600052604160045260246000fd5b60c0810190811067ffffffffffffffff821117610d5b57604052565b90601f8019910116810190811067ffffffffffffffff821117610d5b5760405256fea26469706673582212201fb16e38ae24beff95293dc74f7fa0ed163cdad561bc822215e8c49cf09f478c64736f6c63430008180033",
  "linkReferences": {},
  "deployedLinkReferences": {}
}